:100000000C94ED020C940A030C940A030C940A035A
:100010000C940A030C940A030C940A030C940A032C
:100020000C940A030C940A030C940A030C94750DA7
:100030000C940A030C940A030C94380D0C940A03D4
:100040000C940A030C940A030C940A030C940A03FC
:100050000C940A030C940A030C940A030C940A03EC
:100060000C940A030C940A030D0A436F6E74656EB8
:10007000742D547970653A206170706C6963617495
:10008000696F6E2F782D7777772D666F726D2D756E
:10009000726C656E636F6465640D0A0D0A00436FD0
:1000A0006E74656E742D4C656E6774683A20000D31
:1000B0000A557365722D4167656E743A20746772D4
:1000C0002F312E310D0A4163636570743A202A2F57
:1000D0002A0D0A436F6E6E656374696F6E3A206312
:1000E0006C6F73650D0A000D0A0020485454502FA0
:1000F000312E310D0A486F73743A2000504F53541B
:1001000020000D0A557365722D4167656E743A20A3
:100110007467722F312E300D0A4163636570743A33
:1001200020746578742F68746D6C0D0A436F6E6E61
:10013000656374696F6E3A20636C6F73650D0A0DA9
:100140000A0020485454502F312E310D0A486F7345
:10015000743A20004745542000E30004FA000100EF
:10016000000001450000820000400020000108005E
:1001700006040001485454502F312E3020343031C1
:1001800020556E617574686F72697A65640D0A43F3
:100190006F6E74656E742D547970653A207465784D
:1001A000742F68746D6C0D0A0D0A3C68313E343052
:1001B0003120556E617574686F72697A65643C2F81
:1001C00068313E003C68313E323030204F4B3C2F8E
:1001D00068313E003C2F7072653E3C62723E3C6866
:1001E000723E546F6D61737A204B003C2F666F72C4
:1001F0006D3E0A003C696E70757420747970653DBF
:100200007375626D69742076616C75653D227365E6
:100210006E64223E0A003C666F726D2061637469F1
:100220006F6E3D2F72206D6574686F643D676574F5
:100230003E0A006E7470207365727665723A200013
:100240003C68323E73656E64206E74702072657116
:10025000756573743C2F68323E3C7072653E0A00CF
:100260003C6120687265663D2F3E5B686F6D655D21
:100270003C2F613E003C2F7072653E0A00415741A1
:10028000524941004F4B0052757261205075737492
:100290006100527572612050656C6E610050726130
:1002A000636100437A656B616D003C68313E535475
:1002B0004F444F4C413A0A3C2F68313E003C687233
:1002C0003E003C68313E3C2F68313E004157415270
:1002D0004941004F4B005275726120507573746133
:1002E00000527572612050656C6E610050726163DE
:1002F0006100437A656B616D000A003C68313E4FD6
:10030000424F52413A3C2F68313E003C2F693E0A31
:100310000A3C2F666F6E743E003C666F6E743E3C06
:10032000693E6E72206F64703A003C68723E3C69B0
:100330006D67207372633D68747470733A2F2F6217
:1003400069742E6C792F3257645973487820776915
:100350006474683D223230302220686569676874B1
:100360003D22323030223E003C7072653E003C73CC
:100370006372697074207372633D74312E6A733EC8
:100380003C2F7363726970743E00293C2F73637253
:100390006970743E5D0020205B3C73637269707409
:1003A0003E74327328003C62723E3C68723E546F69
:1003B0006D61737A204B006E6F6E6500293C2F7360
:1003C00063726970743E5D00205B3C736372697098
:1003D000743E74327328000A0A54696D6520726590
:1003E00063656976656420696E20554E49582073AF
:1003F00065632073696E636520313937303A0A3C92
:100400002F7072653E000A5375636365737366757A
:100410006C20616E73776572733A20000A4E756DB9
:10042000626572206F662072657175657374733AC8
:1004300020006E6F00796573000A4757206D616375
:10044000206B6E6F776E3A20003C68323E4E5450FF
:1004500020726573706F6E73652073746174757349
:100460003C2F68323E0A3C7072653E0A003C736362
:1004700072697074207372633D74312E6A733E3CEE
:100480002F7363726970743E003C61206872656608
:100490003D2F6D3E5B6E6577206E747020717565C3
:1004A00072795D3C2F613E20003C61206872656678
:1004B0003D2F3E4F4B3C2F613E0066756E63746965
:1004C0006F6E20743273286E297B0A7661722074F5
:1004D000203D206E65772044617465286E2A313096
:1004E0003030293B0A646F63756D656E742E7772C8
:1004F00069746528742E746F4C6F63616C655374F6
:1005000072696E672829293B0A7D0A0048545450B5
:100510002F312E3020323030204F4B0D0A436F6E7A
:1005200074656E742D547970653A206170706C69D1
:10053000636174696F6E2F782D6A6176617363727F
:100540006970740D0A0D0A000A3C2F666F6E743EC6
:10055000003C666F6E7420636F6C6F723D2767722C
:1005600065656E272073697A653D2735273E003C17
:10057000666F6E7420636F6C6F723D2772656427BF
:100580002073697A653D2735273E003C666F6E749F
:100590002073697A653D2735273E00485454502F13
:1005A000312E3020323030204F4B0D0A436F6E74A5
:1005B000656E742D547970653A20746578742F686F
:1005C000746D6C0D0A507261676D613A206E6F2D0B
:1005D00063616368650D0A0D0A0011241FBECFEF29
:1005E000D8E0DEBFCDBF11E0A0E0B1E0E6E0FFE281
:1005F00002C005900D92AC33B107D9F725E0ACE30A
:10060000B1E001C01D92A734B207E1F70E94250EA8
:100610000C9481170C9400002A98962F9F71982BA8
:100620009EBD0DB407FEFDCF1EBC0DB407FEFDCF71
:1006300067FD03C02A9A8EB508951EBC0DB407FE4F
:10064000FDCFF8CF2A986F71682B6EBD0DB407FEF1
:10065000FDCF4EBD0DB407FEFDCF2A9A0895FB01D4
:100660002A982AE32EBD0DB407FEFDCF8E0F9F1FE3
:10067000E817F90739F01EBC0DB407FEFDCF2EB503
:100680002193F6CF10822A9A08952A982AE72EBD40
:100690000DB407FEFDCF860F971F6817790741F04D
:1006A000FB012191BF012EBD0DB407FEFDCFF5CF9B
:1006B0002A9A08951F93CF93DF93182F1076C12F96
:1006C000D0E020913E0130E0C217D30789F043E02B
:1006D0006FE180EA0E942203AE0185E055954795BF
:1006E0008A95E1F76FE180E80E94220310933E01B2
:1006F000DF91CF911F910895CF93DF931F92CDB7D4
:10070000DEB7682F69830E945A03698180E00F90E9
:10071000DF91CF910C940C031F93CF93DF931F9223
:10072000CDB7DEB7182F69830E945A034981612F24
:1007300080E40F90DF91CF911F910C942203682FDA
:1007400084ED0E948C0361E082ED0E948C0388E2BC
:100750008A95F1F78AEE0E947C0380FDFBCF60E072
:1007600082ED0E948C0389ED0E947C0390E0089545
:100770001F93CF93DF931F92CDB7DEB7162F682F4D
:1007800084ED79830E948C03612F86ED0E948C0397
:100790007981672F87ED0E948C0318E28AEE0E9410
:1007A0007C0380FF04C0812F8A95F1F7F7CF0F906B
:1007B000DF91CF911F910895682F677085E70C94A2
:1007C0008C03CF93DF93EC01229A2A9A84B188623A
:1007D00084B9249A2B9A2D9A80E58CBD8DB58160C1
:1007E0008DBD4FEF60E08FEF0E94220380E090E02C
:1007F0000197F1F710923D0110923C0160E088E012
:100800000E948C0360E089E00E948C0360E08CE031
:100810000E948C0360E08DE00E948C036FEF8AE001
:100820000E948C0369E18BE00E948C0360E084E00D
:100830000E948C036AE185E00E948C036FEF86E0E2
:100840000E948C036FE187E00E948C0360EB88E3D9
:100850000E948C036FE388E20E948C0360E389E2CC
:100860000E948C0369EF80E30E948C0367EF81E3B1
:100870000E948C036DE080EC0E948C0360E081ECB0
:100880000E948C0342E362EC80E80E94220362E152
:1008900086EC0E948C036CE087EC0E948C0362E182
:1008A00084EC0E948C036CED8AEC0E948C0365E062
:1008B0008BEC0E948C03688184EE0E948C0369811A
:1008C00085EE0E948C036A8182EE0E948C036B810C
:1008D00083EE0E948C036C8180EE0E948C036D81FC
:1008E00081EE0E948C0360E071E080E10E94B80319
:1008F0008FE10E945A0340EC6BE180E80E942203E2
:1009000044E06FE180E8DF91CF910C94220382E70D
:100910000E947C03863008F08F5F089581E10E9479
:100920009F0321E0892B09F420E0822F08950F9383
:100930001F93CF93DF93EC018B016FE180E00E9466
:100940000C0383FF10C08CE10E947C0381FFF5CF74
:1009500040E86FE180E80E94220340E86FE180EA0E
:100960000E942203EACF60E082E00E948C036AE1E9
:1009700083E00E948C036C2F86E00E948C03CE01E2
:10098000965E692F87E00E948C0340E060E08AE772
:100990000E942203B801CE010E94450348E06FE1A6
:1009A00080E8DF91CF911F910F910C94220389E38E
:1009B0000E947C0391E0811101C090E0892F08958D
:1009C0009F92AF92BF92CF92DF92EF92FF920F93DE
:1009D0001F93CF93DF937C016B0189E30E947C031B
:1009E000882309F45BC060913C01C0913D0180E027
:1009F0000E948C036C2F81E00E948C0360E08AE3EC
:100A00000E940C03082F60E08AE30E940C0310E0B0
:100A1000182B10933D0100933C0160E08AE30E9493
:100A20000C03C82F60E08AE30E940C03982E60E05C
:100A30008AE30E940C03A82E60E08AE30E940C0364
:100A4000A7FE0FC0970121503109D0E0D929249782
:100A50002C173D0708F4E901B601CE010E942F03CF
:100A600002C0C0E0D0E06FEF01308AE118072CF03F
:100A70008CE00E948C0369E107C0600F8CE00E944B
:100A80008C0301501109612F8DE00E948C0340E41A
:100A90006EE180E80E942203CE0102C080E090E077
:100AA000DF91CF911F910F91FF90EF90DF90CF904A
:100AB000BF90AF909F900895E1E8F0E0808188605A
:100AC0008083808185608083EFE6F0E080818260B2
:100AD00080838EEA9FE29093890080938800089536
:100AE00053985B9A54985C9A55985D9A56985E9A7A
:100AF00057985F9A2098289A3C9A449A089584B50A
:100B0000826084BD85B5856085BDEEE6F0E08081BC
:100B10008260808389E787BD08950F931F93CF93E9
:100B2000DF93EC01D901FB012081242391E088812E
:100B3000222311F090E004C0811102C098830BC001
:100B4000882331F19923D1F0813041F48C918111C6
:100B50001FC082E088838EE18C931AC0823039F402
:100B60008C91811115C083E0888382E012C08330AC
:100B700079F49C9181E0992361F00AC0823040F0C1
:100B80000115110511F0F8010995188283E001C0E3
:100B900080E0DF91CF911F910F910895EF92FF9226
:100BA0000F931F93CF93DF9389019091670189176A
:100BB00051F0E0916401F091650140E050E060E0A7
:100BC00070E084E02BC061112AC02D30310538F16E
:100BD000C0916401D0916501209709F1E09058011E
:100BE000F0905901BA01675F7F4F6E0D7F1D43E0A2
:100BF00050E089E191E00E945A14F70166A56295E0
:100C00006F70F4E06F9FB00111246E5D7F4FA801FB
:100C1000892B11F480E001C081E0FE01099580E09C
:100C2000DF91CF911F910F91FF90EF900895FF9268
:100C30000F931F93CF93DF93FB01413051F4AB012E
:100C40004850510960E070E04F5E5F4F6F4F7F4F3B
:100C50000FC0423051F4AB014850510960E070E0E0
:100C60004A5F5F4F6F4F7F4F03C040E050E0BA01D3
:100C7000EF01DC01C230D10598F00C9110E020E0CA
:100C800030E0322F212F102F00271196FC90119762
:100C90000F29400F511F621F731F12962297EACF30
:100CA000DF01AE7FA80FB91FE0FF0CC08C9190E070
:100CB000A0E0B0E0BA2FA92F982F8827480F591F1E
:100CC0006A1F7B1FCB01AA27BB270097A105B1058F
:100CD00019F066277727F2CFCA0180959095DF91AA
:100CE000CF911F910F91FF900895509374014093FD
:100CF0000401FB01A1E4B1E021912D9321E0A53491
:100D0000B207D1F7FC01A5E4B1E081918D9381E0B8
:100D1000AB34B807D1F70895DC015A96FB0180E0A7
:100D20002D919191291305C08F5F8430C9F781E01F
:100D3000089580E0089569327105A8F0FC012485CA
:100D4000283089F42585263071F4DC019696E1E49B
:100D5000F1E09D918191981306C081E0E534F80798
:100D6000C1F781E0089580E00895FC016A327105C1
:100D7000B0F08485883099F48585811110C086850E
:100D8000853469F47E96A1E4B1E091918D91981338
:100D900006C081E0A534B807C1F781E0089580E07E
:100DA0000895CF93DF93E5E4F1E0DC0116962C91F2
:100DB000EC012993CE0121912D93D1E0EB34FD0775
:100DC000B1F7DF91CF910895CF93DF93EC01188EA7
:100DD000198E80E48C8B1D8A8E8B40E064E170E07C
:100DE000CE010E960E941706988F898FDF91CF91C2
:100DF0000895CF93DF93EC016E96E1E4F1E0DC011E
:100E00005A962C91299321912D9321E0E534F207F4
:100E1000C1F7DF91CF910C94E406FC01BA96DC0196
:100E20009E9686962291620F711D2E916C9344239B
:100E300011F0208301C01082672F7727E817F90788
:100E400089F70895CF93DF93EC018CA19AA19CA31D
:100E50008AA38DA19BA19DA38BA3CE010E940D0708
:100E60001AAA1BAA80E58EA7DF91CF910895CF9390
:100E7000DF93EC010E94D1061C8A82E08D8BCE01AB
:100E8000809645E451E0DE0156962C91FC012193B9
:100E9000CF01FA012191AF012D93F1E04B345F07AF
:100EA000A1F7CE01869641E451E0DE015C962C91DB
:100EB000FC012193CF01FA012191AF012D93F1E0C3
:100EC00045345F07A1F7BE018AE290E0DF91CF9140
:100ED0000C9497040F931F93CF93DF93EC018B0136
:100EE0000E94D106CE010E94F9061AA29CA1983F49
:100EF00018F08DA18F5F8DA3985F9CA3BE01C801E0
:100F0000DF91CF911F910F910C949704DF92EF9294
:100F1000FF920F931F93CF93DF93EC01162FF72EC1
:100F2000042FE22ED32E0E94D1060D3D08F00CEDC9
:100F3000188A8CE1800F898BCE010E94F9068AA164
:100F40008CA38BA18DA3DAA2EBA21EA288E0800F56
:100F50008FA318A619A6912FDE019A96E12FFF2DD7
:100F60008E2F891B801718F481918D93F9CF10E093
:100F7000B801605F7F4F41E0CE014A960E9417069C
:100F800098A789A7BE01C8018A96DF91CF911F91CA
:100F90000F91FF90EF90DF900C949704CF93DF9325
:100FA000EC010E94D106188A8CE2898BCE010E9446
:100FB000F90682E18FA740E061E070E0CE010E9477
:100FC00022071EA21FA28091000188A719A68D5F8B
:100FD0008093000182E08EAB84E08FAB85E088AF28
:100FE00019AE90E69EA788AB88E789AB42E060E245
:100FF00070E0CE014A960E9417069AAB8BABBE01F9
:101000008AE390E0DF91CF910C949704FC018089F2
:1010100090E0982F88272189822B449726A5229536
:101020002F7034E0239F80199109112497FF02C08B
:1010300080E090E008959C01CB01461B570BFA011C
:10104000E80FF91FE491EE2339F0D901A80FB91F79
:10105000D696EC930196F3CF0895DB01D696A80FB0
:10106000B91FFA01420F4E1719F081918D93FBCFF2
:10107000CB01820F911D0895FA0101900020E9F73C
:101080009F0121503109241B350B0C942D08EF9240
:10109000FF920F931F93CF93DF9300D000D01F9246
:1010A000CDB7DEB79091670189139CC0809166012E
:1010B000009158011091590181112CC044E551E073
:1010C00060E070E0C8010E941B0840915E015091F1
:1010D0005F01BC01C8010E941B0840915C01509156
:1010E0005D01BC01C8010E943C0842E451E0BC0122
:1010F000C8010E941B0840915A0150915B01BC013C
:10110000C8010E941B0842E051E0BC01C8010E94D6
:101110001B086AC04CEF50E060E070E0C8010E941C
:101120001B0840915E0150915F01BC01C8010E9403
:101130001B084AEE50E0BC01C8010E941B08409108
:101140005A0150915B01BC01C8010E941B08E0904C
:101150006201F0906301E114F10459F047EE50E0B0
:10116000BC01C8010E941B08A701BC01C8010E9464
:101170001B084FEA50E0BC01C8010E941B084EE961
:1011800050E0BC01C8010E941B087C01A0916001D5
:10119000B0916101FD0101900020E9F731974AE02B
:1011A000BE016F5F7F4FCF018A1B9B0B0E947314A0
:1011B0000091580110915901AE014F5F5F4FB70187
:1011C000C8010E943C0848E650E0BC01C8010E94EA
:1011D0001B084091600150916101BC01C8010E944F
:1011E0003C0802C080E090E00F900F900F900F90AD
:1011F0000F90DF91CF911F910F91FF90EF90089585
:101200000F931F93CF93DF9300D01F92CDB7DEB71C
:101210008C014B8369837A830E94D1064B81842F92
:101220008061F80187A769817A81443029F06115CE
:10123000710511F461E070E041E0C8010E942207ED
:10124000F801108A88E2818BC8010E94F90684E0C7
:10125000F80180AB11AA42E06CE170E0C8014A9647
:101260000E941706F80192AB83ABB80186E390E0C9
:101270000F900F900F90DF91CF911F910F910C94D1
:1012800097040F931F93CF93DF93EC018B01CB0156
:101290008896988B898BCE010E94E4061AAA1BAA15
:1012A000B801645E7F4F42E0CE014A960E94170665
:1012B0009AAB8BABBE01C801C696DF91CF911F914F
:1012C0000F910C9497040F931F93CF93DF93EC012E
:1012D0008B0160913F017091400140E00E94000944
:1012E00089E18FA7B801CE01DF91CF911F910F91B6
:1012F0000C944109640F751F4617570741F0FA0116
:101300002491FC012193CF014F5F5F4FF5CF0895EA
:10131000FF920F931F93CF93DF93EC01F62E072FCD
:10132000142FECE4F1E09C0185E491E0BE016A5FDA
:101330007F4F4191D9014D939D01DC014D91CD012C
:10134000DB014D93BD01B1E0E235FB0791F788E089
:101350008C871D8643E651E069E070E0CE010E9671
:101360000E947A098CE4898B81E18F8B6F2D702F1D
:10137000CE014E96A1E4B1E0FB012191BF01FC0139
:101380002193CF014D919F0125503109F9014083EF
:10139000F1E0A534BF0781F7CE010E94E4061CA24C
:1013A0008BE78DA38AE08AA31BA31EA288E38FA3E9
:1013B00018A619A6CE018A96FC0120E011922F5F93
:1013C0002033E1F749E551E06AE070E00E947A09D4
:1013D00041E060E470E0CE014A960E94170698A7AB
:1013E00089A7BE018AE590E0DF91CF911F910F910F
:1013F000FF900C949704CF93DF93FC01DB0144230F
:1014000019F085A1841324C086A1811121C087A170
:101410008833F1F483A18B37D9F4EF01CE5ADF4F33
:1014200088812196488150E060E070E0BA0155273C
:101430004427782B22968881482BEC5AFF4F8081D5
:10144000582B4D935D936D937C93139781E001C06E
:1014500080E0DF91CF9108950F931F93CF93DF9397
:10146000EC018B01AE014A5F5F4FE5E4F1E03FEF35
:10147000DC013D93CD012191DA012D93AD01B1E065
:10148000EB34FB07A9F788E08C8786E08D874CE674
:1014900051E068E070E0CE010E960E947A09DE010C
:1014A000909645E451E0FA012191AF01CD010A97F0
:1014B000FC0120831D92F1E04B345F07A1F7B801D6
:1014C000CE018696A1E4B1E0FB012191BF01FC01B0
:1014D0002193CF014D919F012B503109F901408398
:1014E000F1E0A534BF0781F780914B0188608093BC
:1014F0004B01BE018AE290E0DF91CF911F910F91E5
:101500000C94970480914B018695817091E0892716
:101510000895DC015C96E2E5F1E03D912191321302
:101520000FC021E0E635F207C1F7DC015696ECE486
:10153000F1E08D91819381E0E235F807D1F702C0A7
:1015400080E0089581E0089580914B0181FF03C000
:10155000846080934B01089521E020934B01E2E5E4
:10156000F1E0DC012D91CD012193B1E0E635FB07DF
:10157000C1F70895EFE6F1E0DC012D91CD01219353
:10158000B1E0E337FB07C1F70895DF92EF92FF92D6
:101590000F931F93CF93DF93EC01F62EE42ED22E00
:1015A000ECE4F1E08C0185E491E0AE014A5F5F4F2D
:1015B0002191D8012D938D01DC012D91CD01DA010E
:1015C0002D93AD01B1E0E235FB0791F788E08C8700
:1015D0001D8643E651E069E070E0CE010E960E9460
:1015E0007A098CE2898B86E08F8B6FE671E0DE01F1
:1015F0005E9681E491E0FB012191BF012D93FC01F6
:101600004191CF019D0125503109F9014083F1E05D
:1016100063377F0781F7CE010E94E406ECA2DDA2CA
:101620008BE08AA3FBA2FE01B69688E0119281505E
:10163000E9F78091000188A78D5F8093000180E623
:101640008EA782E08FA793E098AB19AA1AAA1BAACB
:101650001CAA1DAA8EAB94E09FAB88AF86E289AF2F
:1016600042E060E270E0CE014A960E9417069AAB13
:101670008BABBE018AE390E0DF91CF911F910F9178
:10168000FF90EF90DF900C94970490936B01809300
:101690006A01709369016093680150936D014093F2
:1016A0006C0181E080936E01809173018F5F8830BF
:1016B00018F48093730102C010927301809173013A
:1016C000089590935F0180935E0170935D01609334
:1016D0005C0150935B0140935A0110926601309374
:1016E00065012093640140E550E067E478E08EEC0A
:1016F00095E00E94450B8093670108950F931F9317
:1017000090935F0180935E0170935B0160935A0137
:101710005093630140936201309361012093600113
:1017200081E080936601109365010093640140E5B8
:1017300050E067E478E08EEC95E00E94450B8093E2
:1017400067011F910F91089590935701809356015F
:101750000895CF92DF92EF92FF920F931F93CF9352
:10176000DF931F92CDB7DEB76C018B016115710558
:10177000E9F580914B01857079F08091010190919C
:101780000201892B49F40E948E04882329F062E526
:1017900071E0C6010E942C0A809101019091020122
:1017A0000196909302018093010180916E01813036
:1017B00009F04BC180914B0181FF47C182E08093CA
:1017C0006E01609103016F5F609303016F718091FF
:1017D000730120E2829FC0011124682B20916C01CB
:1017E00040916D01C6010E94C50A2FC10E949B064F
:1017F0008823D1F0D60155968C91813019F4C60119
:101800000E94370780914B0183FF1FC1F6011589A4
:10181000123009F01AC1C6010E94890A882309F40E
:1018200014C110934B0111C1B801C6010E94B50645
:10183000882309F40AC1D60157968C9157978130B5
:1018400099F492968C91883009F004C1E091560188
:10185000F0915701309719F0C6014A960995B801E1
:10186000C6010E946A07F1C00633110518F48630DC
:1018700009F0EBC0F60184A18B3009F0B3C0D0921F
:101880005901C09258016FE671E0C6010E948C06B2
:10189000882309F4DAC0D6019F962C919F9722FFE6
:1018A00013C0E0916A01F0916B01309709F490C088
:1018B00095968C9120E030E040E050E063E0829526
:1018C00086958770099584C0C60129830E94060801
:1018D0007C0180916E012981823099F5822F80717F
:1018E0002271223109F540E060E070E0C6010E94FB
:1018F000000988E1F60187A7E0916801F09169018C
:10190000309741F0D60193968C9182958695877099
:10191000099502C080E090E023E020936E01BC01B5
:10192000C6010E94410991C091E090936E0181111E
:1019300004C0B7016F5F7F4F02C060E070E044E019
:1019400071C08330A9F5E114F10491F184E0809332
:101950006E01E0916A01F0916B01309749F1D60177
:101960009E964C9142954F70B4E04B9FA00111247C
:10197000C80108974E5D5F4F8417950708F4AC01C6
:10198000C701840F951F0817190720F49801241B1D
:10199000350B01C09701D60195968C9160E0829538
:1019A000869587700995882319F049E0B7010DC025
:1019B00080916E01853009F448C0F60187A580FF4B
:1019C0000BC0B7016F5F7F4F49E0C6010E9400095D
:1019D00085E080936E0139C0E114F104B1F140E07B
:1019E000B70120C09091740189132FC095A18091F7
:1019F000040198132AC0F7A4F1FE04C0C6010E9496
:101A0000CE0723C0F4FE21C0C6010E9406089093B1
:101A1000400180933F01892B49F4F0FE16C040E05D
:101A200060E070E0C6010E9400090FC0F60126A523
:101A300022952F70F4E02F9F900111242E5D3F4FCF
:101A4000085011090217130718F480E090E006C04F
:101A5000C90104C006331105C0F30CCF0F90DF910C
:101A6000CF911F910F91FF90EF90DF90CF9008954D
:101A70001F920F920FB60F9211248F938091AC0199
:101A8000882319F081508093AC018091AA018823AA
:101A900019F081508093AA018091A301882319F045
:101AA00081508093A3018091A601882319F0815071
:101AB0008093A6018091AB01882319F08150809317
:101AC000AB018091A901882319F081508093A9016D
:101AD0008091AD01882319F081508093AD018F91E1
:101AE0000F900FBE0F901F9018951F920F920FB678
:101AF0000F9211248F939F93AF93BF9388B190E17E
:101B0000892788B980917C0190917D01A0917E0107
:101B1000B0917F010196A11DB11D80937C0190932E
:101B20007D01A0937E01B0937F018091050190918A
:101B30000601892B49F080910501909106010197DA
:101B40009093060180930501BF91AF919F918F9172
:101B50000F900FBE0F901F9018950F931F938091B9
:101B6000AC0181116FC000E010E02AEA31E048E0EA
:101B700069E270E08AE791E00E948D058093A801F8
:101B800023EA31E040E169E270E089E791E00E94F8
:101B90008D058093AF0126EA31E040E269E270E012
:101BA00088E791E00E948D058093A5012BEA31E042
:101BB00040E469E270E087E791E00E948D05809340
:101BC000A40129EA31E040E869E270E086E791E0AB
:101BD0000E948D058093A7012DEA31E041E063E288
:101BE00070E085E791E00E948D058093AE018091C1
:101BF000A501823081F480917C0190917D01A091BA
:101C00007E01B0917F018093B2019093B301A093C4
:101C1000B401B093B5018091A401823081F4809128
:101C20007C0190917D01A0917E01B0917F01809314
:101C3000BE019093BF01A093C001B093C10184E69F
:101C40008093AC011F910F91089580E8809361000B
:101C50001092610080E08A95F1F783E191E00E94A3
:101C6000E10382E00E94DC0380E08A95F1F766E7F9
:101C700074E084E10E94B80341E753E06FE071E053
:101C800083E191E00E9475068BE091E00E94AC0A2E
:101C90000E947F050E945C0583E294EF0197F1F7B3
:101CA00000C000000E94700544989FE121EA87E08F
:101CB000915020408040E1F700C00000449A7894A1
:101CC00029E288E190E00FB6F894A895809360002F
:101CD0000FBE20936000FF24F394C8EFD5E2A895CF
:101CE0000E94AD0D8091050190910601892B31F480
:101CF000F0928001D0930601C093050162EC71E07F
:101D000084E893E00E94E0046C01BC0182EC91E065
:101D10000E94A90B8C019093B1018093B0010097B0
:101D2000E9F144E050E0BC016E537E4F8DE191E05B
:101D30000E945A14892B51F00E942C0F9093B101EC
:101D40008093B00144EC51E0BC010BC0C8018A5340
:101D50009E4F0E9449128F3F49F444E751E060E0F2
:101D600070E082EC91E00E941B0809C0813019F4F8
:101D70000E94450F04C08A3031F00E944E0F9093AC
:101D8000B1018093B00144986091B0017091B101AC
:101D900082EC91E00E946309449AA1CFB60182ECE3
:101DA00091E00E94B50681111CC0809180018823BA
:101DB00009F495CF0E94820A811191CF40917B0155
:101DC0004F5F40937B011092800167E071E082ECED
:101DD00091E00E948809809182018F5F8093820147
:101DE0007ECF8091D901813109F079CF8091E401D2
:101DF000811175CF8091E5018B3709F070CF40914B
:101E00007B016CE771E082EC91E00E94FB09882382
:101E100009F465CF80917C0190917D01A0917E01B4
:101E2000B0917F0180917C0190917D01A0917E0114
:101E3000B0917F0180589E47AA4AB34880937C01A5
:101E400090937D01A0937E01B0937F0180918101E9
:101E50008F5F8093810143CF4BE955E060E070E0F4
:101E600082EC91E00C941B084CE055E060E070E0DF
:101E700082EC91E00C941B080E94340F4AEB54E072
:101E8000BC0182EC91E00C941B080E942C0F49EAE3
:101E900054E0BC0182EC91E00C941B084F925F92DD
:101EA0007F928F929F92AF92BF92CF92DF92EF92EA
:101EB000FF920F931F93CF93DF9300D0CDB7DEB780
:101EC000C0907C01D0907D01E0907E01F0907F0178
:101ED0000E942C0F49E854E0BC0182EC91E00E9482
:101EE0001B084DE654E0BC0182EC91E00E941B0807
:101EF00049E454E0BC0182EC91E00E941B0849E3F4
:101F000054E0BC0182EC91E00E941B08BC01898373
:101F10007A830E94820A69817A81811103C045E334
:101F200054E002C042E354E082EC91E00E941B08BE
:101F30004CE154E0BC0182EC91E00E941B088C0152
:101F4000809182014AE06EE871E090E00E94731493
:101F50004EE851E0B80182EC91E00E943C0846E076
:101F600054E0BC0182EC91E00E941B088C0180913E
:101F700081014AE06EE871E090E00E9473144EE83F
:101F800051E0B80182EC91E00E943C0847ED53E03B
:101F9000BC0182EC91E00E941B088C0180918101C0
:101FA000882309F440C010928D018AE0782E9AE0CF
:101FB000892E912CA12CB12CC114D104E104F1047F
:101FC000A9F0772099F07A94472C512CC2018D57B3
:101FD0009E4F2C01C701B601A50194010E94061471
:101FE000605DF201608369017A01E6CFE72CF12C94
:101FF000C7018D579E4F7C01AC01B80182EC91E086
:102000000E943C0848EC53E0BC0182EC91E00E9445
:102010001B08A701BC0182EC91E00E943C084CEB3C
:1020200053E0BC0103C047EB53E0B80182EC91E000
:102030000E941B0846EA53E0BC0182EC91E00F903D
:102040000F90DF91CF911F910F91FF90EF90DF9054
:10205000CF90BF90AF909F908F907F905F904F9068
:102060000C941B08BF92CF92DF92EF92FF920F93D6
:102070001F93CF93DF93EA0110928D012AE0B22ED5
:102080003AE0C32ED12CE12CF12C611571058105AC
:10209000910589F0BB2079F0BA940B2D10E00D5713
:1020A0001E4FA70196010E940614605DF80160832F
:1020B000B901CA01EACF6881798146E953E082EC2F
:1020C00091E00E941B08998388834B2D50E04D5767
:1020D0005E4FBC0182EC91E00E943C0899838883AA
:1020E0004AE853E0BC0182EC91E00E941B0899830E
:1020F0008883DF91CF911F910F91FF90EF90DF9038
:10210000CF90BF9008950F931F93CF93DF9300D08C
:10211000CDB7DEB78C010E942C0F9A8389834EE6DF
:1021200053E0BC01C8010E941B089A83898348E6DA
:1021300053E0BC01C8010E941B089A8389834AE2CC
:1021400053E0BC01C8010E941B089A83898349E1BE
:1021500053E0BC01C8010E941B089A8389838091C7
:10216000B7018F938091B6018F9382E291E09F93A4
:102170008F9388EB91E09F938F930E94A0146981C5
:102180007A8148EB51E0C8010E943C089A83898318
:102190004BE053E0BC01C8010E941B089A8389836D
:1021A0004BEF52E0BC01C8010E941B089A8389834F
:1021B00049EF52E0BC01C8010E941B089A83898341
:1021C0004BE855E0BC01C8010E941B08BC019A8382
:1021D00089830F900F900F900F900F900F90809128
:1021E000A501882329F0813051F44CEE52E002C061
:1021F00042EF52E0C8010E941B089A8389836091D4
:10220000B2017091B3018091B4019091B501AE011A
:102210004F5F5F4F0E94321069817A8148E455E038
:10222000C8010E941B089A8389834BE855E0BC01D2
:10223000C8010E941B08BC019A8389838091A80170
:10224000882329F0813051F446ED52E002C041EE7E
:1022500052E0C8010E941B089A83898369817A81B0
:1022600048E455E0C8010E941B08BC019A83898399
:102270008091A701882361F08130C9F44FE655E0D1
:10228000C8010E941B089A8389834CEC52E009C064
:1022900041E555E0C8010E941B089A83898343EDFC
:1022A00052E0BC01C8010E941B089A83898369819E
:1022B0007A8148E455E0C8010E941B089A8389830B
:1022C00042EC52E0BC01C8010E941B089A8389833A
:1022D0004DEB52E0BC01C8010E941B089A83898320
:1022E0004AEA52E0BC01C8010E941B089A83898314
:1022F0004BE855E0BC01C8010E941B08BC019A8351
:1023000089838091A401882329F0813051F44DE91B
:1023100052E002C043EA52E0C8010E941B089A83BF
:1023200089836091BE017091BF018091C00190913D
:10233000C101AE014F5F5F4F0E94321069817A8107
:1023400048E455E0C8010E941B089A8389834BE842
:1023500055E0BC01C8010E941B08BC019A83898317
:102360008091AF01882329F0813051F447E852E091
:1023700002C042E952E0C8010E941B089A83898387
:1023800069817A8148E455E0C8010E941B08BC01BC
:102390009A8389838091AE01882361F08130C9F4EA
:1023A0004FE655E0C8010E941B089A8389834DE7D8
:1023B00052E009C041E555E0C8010E941B089A831C
:1023C000898344E852E0BC01C8010E941B089A833B
:1023D000898369817A8148E455E0C8010E941B081D
:1023E0009A83898345E752E0BC01C8010E941B081B
:1023F0000F900F90DF91CF911F910F9108950F9340
:10240000CF93DF930E942C0F40E652E0BC0182EC98
:1024100091E00E941B0840E452E0BC0182EC91E094
:102420000E941B0843E352E0BC0182EC91E00E9451
:102430001B08EC010AE02EE244E067E071E08EE860
:1024400091E00E94C7134EE851E0BE0182EC91E09A
:102450000E943C0846E152E0BC0182EC91E00E94FF
:102460001B0844EF51E0BC0182EC91E00E941B0884
:102470004BEE51E0BC0182EC91E00E941B0844ED60
:1024800051E0BC0182EC91E0DF91CF910F910C946F
:102490001B08CF93DF93EC0188818F3221F489816F
:1024A000803209F445C045E050E0BE0185E291E08C
:1024B0000E945A14892B91F482EC91E00E948310BF
:1024C0009093B1018093B0018091B6019091B701D2
:1024D00001969093B7018093B6011BC046E050E08F
:1024E000BE018BE291E00E945A14892B19F40E94DC
:1024F0003C0F0BC043E050E0BE0182E391E00E943C
:102500005A14892B41F40E94FF119093B1018093DA
:10251000B0018AE010C044E050E0BE0186E391E0E3
:102520000E945A14892B31F481E08093800103C00A
:1025300080E001C08FEFDF91CF910895CF93DF93BB
:10254000F90150E0EC01A881BA2FBF7D01F1AA305A
:10255000F1F0511116C0B081AB1310C0A181AA23B4
:1025600011F031960CC0DC01119651E0EC0189812B
:102570008D3309F050E0F901CD0101C0F901019658
:10258000E1CFDC01FB0150E0415051090EC0513058
:10259000C1F380E011C09A3071F0963261F0282FBB
:1025A00030E0241735073CF491938E2F861B9D91C4
:1025B000292F2F7D81F71082DF91CF91089590ED23
:1025C000980F9A3070F09FE9980F963010F4875565
:1025D00008959FEB980F963010F48753089580E08C
:1025E0000895892F0895DF92EF92FF920F931F9322
:1025F000CF93DF93EC018C0188818823E1F08B324B
:10260000A1F0853299F47E0182E0E80EF11C898107
:102610000E94DF12D82E8A810E94DF1290E1D99E9B
:1026200090011124822BE70101C080E2F80181931F
:102630008F012196E1CFF8011082DF91CF911F9198
:102640000F91FF90EF90DF900895FB01982F9F70FE
:10265000292F30E02A30310514F4905D01C0995AD9
:10266000918382958F708A3010F4805D01C0895A01
:10267000808312820895AF92BF92DF92EF92FF9211
:102680000F931F93CF93DF931F92CDB7DEB75B01FC
:102690008C0185E2D82EF80121918F012223E9F0E7
:1026A000C50101967C01203249F0822F90E02983F8
:1026B0000E9446142981892B11F405C02BE2F501F3
:1026C00020835701E8CFF501D082B701822F0E9405
:1026D0002513F3E0AF0EB11CDECFF50110820F9091
:1026E000DF91CF911F910F91FF90EF90DF90BF90FE
:1026F000AF900895CF92DF92EF92FF920F931F93C6
:10270000CF93DF931F92CDB7DEB76C018B01FC0135
:10271000108211821282138240E080E090E0F80182
:102720005081511106C0F8011082433009F181E057
:1027300024C04430C0F7009741F4252F30E02053E7
:1027400031092A30310508F4C8015E3271F4F8010C
:1027500010827601E40EF11C49830E942814F701CF
:10276000808349814F5F80E090E00F5F1F4FD7CF9C
:102770000E942814F601838380E00F90DF91CF91AF
:102780001F910F91FF90EF90DF90CF9008958F925F
:102790009F92BF92CF92DF92EF92FF920F931F937F
:1027A000CF93DF931F92CDB7DEB77C01C42EB62E38
:1027B0004B01D12C10E0882D8B198C15A8F4F40155
:1027C00081914F01A801B7016D0D711D90E0298322
:1027D0000E9468142981F701ED0DF11D8081D394C9
:1027E0008111F9CF2083E7CFDA94F701ED0DF11DC8
:1027F00010820F90DF91CF911F910F91FF90EF907A
:10280000DF90CF90BF909F908F900895A1E21A2EF5
:10281000AA1BBB1BFD010DC0AA1FBB1FEE1FFF1F84
:10282000A217B307E407F50720F0A21BB30BE40BD4
:10283000F50B661F771F881F991F1A9469F760951B
:102840007095809590959B01AC01BD01CF010895D5
:10285000FC0188279927E89421912032E9F3293057
:1028600010F02E30C8F32B3241F02D3239F4689439
:1028700004C00E947E14820F911D219120532A30A2
:10288000C0F31EF4909581959F4F0895911106C055
:1028900080538A5010F0865C06C0089599278827D7
:1028A000089585FDFBCF80629111F8CF81568A5142
:1028B000E0F70895FB01DC014150504030F08D916C
:1028C0000190801919F40020B9F7881B990B08951D
:1028D0004532510520F4423010F00C947314FB0182
:1028E0001082CB010895BB274A3031F4992322F49A
:1028F000BDE2909581959F4F0C9487147AE0979F45
:10290000902D879F802D910D11240895BB27FB01E9
:102910005527AA27880F991FAA1FA41710F0A41BD8
:1029200083955051B9F7A05DAA3308F0A95DA19332
:10293000009779F7B111B1931192CB010C94AA16BB
:10294000AEE0B0E0E6EAF4E10C9458170D891E8978
:1029500086E08C831A8309838FEF9FE79E838D83A4
:10296000AE01475E5F4F6F89788DCE0101960E9460
:10297000C214EF81F885E00FF11F10822E96E4E07B
:102980000C947417ACE0B0E0E8ECF4E10C944A1756
:102990007C016B018A01FC0117821682838181FF11
:1029A000BDC1CE0101964C01F7019381F60193FD63
:1029B000859193FF81916F01882309F4ABC1853222
:1029C00039F493FD859193FF81916F01853229F44C
:1029D000B70190E00E94BA16E7CF512C312C20E0CD
:1029E0002032A0F48B3269F030F4803259F0833217
:1029F00069F420612CC08D3239F0803339F42160C4
:102A000026C02260246023C0286021C027FD27C083
:102A100030ED380F3A3078F426FF06C0FAE05F9EBA
:102A2000300D1124532E13C08AE0389E300D11242E
:102A3000332E20620CC08E3221F426FD6BC120643F
:102A400006C08C3611F4206802C0883641F4F601C5
:102A500093FD859193FF81916F018111C1CF982FD3
:102A60009F7D9554933028F40C5F1F4FFFE3F9834B
:102A70000DC0833631F0833771F0833509F05BC0C8
:102A800022C0F801808189830E5F1F4F4424439444
:102A9000512C540115C03801F2E06F0E711CF80181
:102AA000A080B18026FF03C0652D70E002C06FEFEB
:102AB0007FEFC5012C870E949F162C0183012C8576
:102AC0002F77222E17C03801F2E06F0E711CF8012B
:102AD000A080B18026FF03C0652D70E002C06FEFBB
:102AE0007FEFC5012C870E9494162C012C8520684D
:102AF000222E830123FC1BC0832D90E0481659062B
:102B0000B0F4B70180E290E00E94BA163A94F4CF94
:102B1000F50127FC859127FE81915F01B70190E0C7
:102B20000E94BA1631103A94F1E04F1A510841143C
:102B3000510471F7E5C0843611F0893639F5F80192
:102B400027FF07C060817181828193810C5F1F4FD5
:102B500008C060817181882777FD8095982F0E5F6E
:102B60001F4F2F76B22E97FF09C0909580957095D4
:102B700061957F4F8F4F9F4F2068B22E2AE030E043
:102B8000A4010E94EC16A82EA81844C0853729F489
:102B90002F7EB22E2AE030E025C0F22FF97FBF2E23
:102BA0008F36C1F018F4883579F0B4C0803719F049
:102BB000883721F0AFC02F2F2061B22EB4FE0DC098
:102BC0008B2D8460B82E09C024FF0AC09F2F966009
:102BD000B92E06C028E030E005C020E130E002C098
:102BE00020E132E0F801B7FE07C060817181828187
:102BF00093810C5F1F4F06C06081718180E090E07F
:102C00000E5F1F4FA4010E94EC16A82EA818FB2DE2
:102C1000FF77BF2EB6FE0BC02B2D2E7FA51450F4D0
:102C2000B4FE0AC0B2FC08C02B2D2E7E05C07A2C43
:102C30002B2D03C07A2C01C0752C24FF0DC0FE0182
:102C4000EA0DF11D8081803311F4297E09C022FF35
:102C500006C07394739404C0822F867809F073942D
:102C600023FD13C020FF06C05A2C731418F4530C14
:102C70005718732C731468F4B70180E290E02C8726
:102C80000E94BA1673942C85F5CF731410F437187C
:102C900001C0312C24FF12C0B70180E390E02C87E3
:102CA0000E94BA162C8522FF17C021FF03C088E5B9
:102CB00090E002C088E790E0B7010CC0822F8678D0
:102CC00059F021FD02C080E201C08BE227FD8DE2B8
:102CD000B70190E00E94BA16A51438F4B70180E35A
:102CE00090E00E94BA165A94F7CFAA94F401EA0D24
:102CF000F11D8081B70190E00E94BA16A110F5CFB6
:102D0000332009F451CEB70180E290E00E94BA1658
:102D10003A94F6CFF7018681978102C08FEF9FEF3B
:102D20002C96E2E10C946617FC010590615070400E
:102D30000110D8F7809590958E0F9F1F0895FC0184
:102D40006150704001900110D8F7809590958E0FDA
:102D50009F1F0895DC01FC01672F71917723E1F734
:102D6000329704C07C916D9370836291AE17BF0758
:102D7000C8F308950F931F93CF93DF93182F092F54
:102D8000EB018B8181FD03C08FEF9FEF20C082FF9D
:102D900010C04E815F812C813D81421753077CF426
:102DA000E881F9819F012F5F3F4F3983288310838A
:102DB00006C0E885F985812F0995892B29F72E8191
:102DC0003F812F5F3F4F3F832E83812F902FDF91D5
:102DD000CF911F910F910895FA01AA27283051F140
:102DE000203181F1E8946F936E7F6E5F7F4F8F4F3C
:102DF0009F4FAF4FB1E03ED0B4E03CD0670F781F9B
:102E0000891F9A1FA11D680F791F8A1F911DA11D7F
:102E10006A0F711D811D911DA11D20D009F46894B8
:102E20003F912AE0269F11243019305D3193DEF660
:102E3000CF010895462F4770405D4193B3E00FD016
:102E4000C9F7F6CF462F4F70405D4A3318F0495D01
:102E500031FD4052419302D0A9F7EACFB4E0A695E4
:102E60009795879577956795BA95C9F70097610506
:102E7000710508959B01AC010A2E0694579547955C
:102E800037952795BA95C9F7620F731F841F951F51
:102E9000A01D08952F923F924F925F926F927F9262
:102EA0008F929F92AF92BF92CF92DF92EF92FF925A
:102EB0000F931F93CF93DF93CDB7DEB7CA1BDB0B06
:102EC0000FB6F894DEBF0FBECDBF09942A883988AB
:102ED00048885F846E847D848C849B84AA84B984B2
:102EE000C884DF80EE80FD800C811B81AA81B981BE
:102EF000CE0FD11D0FB6F894DEBF0FBECDBFED01D2
:062F00000895F894FFCFD4
:102F06000A010001500A0086820411C0A80001C00F
:102F1600A8006E54555810002932303000474554E9
:102F260020002564002F666C7220002F74312E6AF3
:0C2F360073002F6D20002F723F20000060
:00000001FF
