:100000000C94B1030C94CE030C94CE030C94CE0349
:100010000C94CE030C94CE030C94CE030C94CE031C
:100020000C94CE030C94CE030C94CE030C94470E88
:100030000C94CE030C94CE030C94FC0D0C94CE03C4
:100040000C94CE030C94CE030C94CE030C94CE03EC
:100050000C94CE030C94CE030C94CE030C94CE03DC
:100060000C94CE030C94CE030D0A436F6E74656E30
:10007000742D547970653A206170706C6963617495
:10008000696F6E2F782D7777772D666F726D2D756E
:10009000726C656E636F6465640D0A0D0A00436FD0
:1000A0006E74656E742D4C656E6774683A20000D31
:1000B0000A557365722D4167656E743A20746772D4
:1000C0002F312E310D0A4163636570743A202A2F57
:1000D0002A0D0A436F6E6E656374696F6E3A206312
:1000E0006C6F73650D0A000D0A0020485454502FA0
:1000F000312E310D0A486F73743A2000504F53541B
:1001000020000D0A557365722D4167656E743A20A3
:100110007467722F312E300D0A4163636570743A33
:1001200020746578742F68746D6C0D0A436F6E6E61
:10013000656374696F6E3A20636C6F73650D0A0DA9
:100140000A0020485454502F312E310D0A486F7345
:10015000743A20004745542000E30004FA000100EF
:10016000000001450000820000400020000108005E
:1001700006040001485454502F312E3020343031C1
:1001800020556E617574686F72697A65640D0A43F3
:100190006F6E74656E742D547970653A207465784D
:1001A000742F68746D6C0D0A0D0A3C68313E343052
:1001B0003120556E617574686F72697A65643C2F81
:1001C00068313E003C68313E323030204F4B3C2F8E
:1001D00068313E003C2F7072653E3C62723E3C6866
:1001E000723E003C2F666F726D3E0A003C696E7075
:1001F000757420747970653D7375626D69742076CD
:10020000616C75653D2273656E64223E0A003C6632
:100210006F726D20616374696F6E3D2F72206D6522
:1002200074686F643D6765743E0A006E7470207375
:1002300065727665723A20003C68323E73656E6482
:10024000206E747020726571756573743C2F68320E
:100250003E3C7072653E0A003C6120687265663DF6
:100260002F3E5B686F6D655D3C2F613E003C2F70DB
:1002700072653E0A00733C2F68323E006D696E2045
:10028000002C20003C2F68313E3C68323E003C662A
:100290006F6E7420636F6C6F723D27726564273ECA
:1002A0002D2D2D3C2F666F6E743E00507261636180
:1002B0002E2E00437A656B616D200053746F7000C1
:1002C0003C666F6E7420636F6C6F723D277265645D
:1002D000273E415741524941213C2F666F6E743E83
:1002E000003C68313E53544F444F4C413A20003C4F
:1002F00068723E003C68313E3C2F68313E00733CE2
:100300002F68323E006D696E20002C20003C2F6863
:10031000313E3C68323E003C666F6E7420636F6C09
:100320006F723D27726564273E2D2D2D3C2F666F21
:100330006E743E0050726163612E2E2E00437A650A
:100340006B616D200053746F70003C666F6E74209B
:10035000636F6C6F723D27726564273E415741524F
:100360004941213C2F666F6E743E003C68313E4F20
:10037000424F52413A20003C68723E0A003C707283
:10038000653E003C736372697074207372633D74E0
:10039000312E6A733E3C2F7363726970743E003C69
:1003A0002F7072653E0A00733C2F68323E006D6903
:1003B0006E20002C20003C2F68313E3C68323E000D
:1003C0003C2F666F6E743E003C666F6E7420636FE8
:1003D0006C6F723D27726564273E005072616361E5
:1003E0002E2E00437A656B616D200053746F700090
:1003F0003C666F6E7420636F6C6F723D277265642C
:10040000273E415741524941213C2F666F6E743E51
:10041000003C68313E53544F444F4C413A20003C1D
:1004200068723E003C68313E3C2F68313E00733CB0
:100430002F68323E006D696E20002C20003C2F6832
:10044000313E3C68323E003C2F666F6E743E003C8D
:10045000666F6E7420636F6C6F723D2772656427E0
:100460003E0050726163612E2E2E00437A656B61EF
:100470006D200053746F70003C666F6E7420636F64
:100480006C6F723D27726564273E41574152494166
:10049000213C2F666F6E743E003C68313E4F424FE8
:1004A00052413A20003C2F693E3C68723E0A0A00E5
:1004B0003C693E6E72206F64703A003C68723E3C4C
:1004C000696D67207372633D68747470733A2F2F7F
:1004D0006269742E6C792F3257645973487820778B
:1004E000696474683D22323030222068656967682B
:1004F000743D22323030223E003C7072653E003C3A
:10050000736372697074207372633D74312E6A7301
:100510003E3C2F7363726970743E00293C2F7363F5
:10052000726970743E5D005B3C7363726970743E07
:1005300074327328003C62723E3C68723E006E6FFB
:100540006E6500293C2F7363726970743E5D0020F4
:100550005B3C7363726970743E74327328000A0ADC
:1005600054696D6520726563656976656420696E9E
:1005700020554E4958207365632073696E6365206A
:10058000313937303A0A3C2F7072653E000A537594
:10059000636365737366756C20616E7377657273E0
:1005A0003A20000A4E756D626572206F6620726592
:1005B0007175657374733A20006E6F00796573000E
:1005C0000A4757206D6163206B6E6F776E3A20008B
:1005D0003C68323E4E545020726573706F6E736586
:1005E000207374617475733C2F68323E0A3C7072DC
:1005F000653E0A003C736372697074207372633DD8
:1006000074312E6A733E3C2F7363726970743E00BE
:100610003C6120687265663D2F6D3E5B6E6577209C
:100620006E74702071756572795D3C2F613E20009B
:100630003C6120687265663D2F3E4F4B3C2F613E0A
:100640000066756E6374696F6E20743273286E294C
:100650007B0A7661722074203D206E6577204461AC
:100660007465286E2A31303030293B0A646F637517
:100670006D656E742E777269746528742E746F4C74
:100680006F63616C65537472696E672829293B0A30
:100690007D0A00485454502F312E30203230302003
:1006A0004F4B0D0A436F6E74656E742D54797065EF
:1006B0003A206170706C69636174696F6E2F782D78
:1006C0006A6176617363726970740D0A0D0A000ABB
:1006D0003C2F666F6E743E003C666F6E7420636FD5
:1006E0006C6F723D27677265656E272073697A6546
:1006F0003D2735273E003C666F6E7420636F6C6F3C
:10070000723D27726564272073697A653D27352716
:100710003E003C666F6E742073697A653D2735270D
:100720003E00485454502F312E3020323030204F6C
:100730004B0D0A436F6E74656E742D547970653A73
:1007400020746578742F68746D6C0D0A507261673F
:100750006D613A206E6F2D63616368650D0A0D0A45
:10076000000011241FBECFEFD8E0DEBFCDBF11E0E7
:10077000A0E0B1E0EEE5F7E302C005900D92A235EE
:10078000B107D9F725E0A2E5B1E001C01D92AE3076
:10079000B207E1F70E94BC0F0C94AD1B0C94000053
:1007A0002A98962F9F71982B9EBD0DB407FEFDCF02
:1007B0001EBC0DB407FEFDCF67FD03C02A9A8EB59F
:1007C00008951EBC0DB407FEFDCFF8CF2A986F71B7
:1007D000682B6EBD0DB407FEFDCF4EBD0DB407FEF8
:1007E000FDCF2A9A0895FB012A982AE32EBD0DB465
:1007F00007FEFDCF8E0F9F1FE817F90739F01EBCCB
:100800000DB407FEFDCF2EB52193F6CF10822A9AA4
:1008100008952A982AE72EBD0DB407FEFDCF860F56
:10082000971F6817790741F0FB012191BF012EBD89
:100830000DB407FEFDCFF5CF2A9A08951F93CF93ED
:10084000DF93182F1076C12FD0E02091540130E0B3
:10085000C217D30789F043E06FE180EA0E94E60304
:10086000AE0185E0559547958A95E1F76FE180E8FF
:100870000E94E60310935401DF91CF911F910895D8
:10088000CF93DF931F92CDB7DEB7682F69830E94A5
:100890001E04698180E00F90DF91CF910C94D0030A
:1008A0001F93CF93DF931F92CDB7DEB7182F6983C5
:1008B0000E941E044981612F80E40F90DF91CF9147
:1008C0001F910C94E603682F84ED0E94500461E0B0
:1008D00082ED0E94500488E28A95F1F78AEE0E9428
:1008E000400480FDFBCF60E082ED0E94500489ED62
:1008F0000E94400490E008951F93CF93DF931F92CE
:10090000CDB7DEB7162F682F84ED79830E9450048F
:10091000612F86ED0E9450047981672F87ED0E9438
:10092000500418E28AEE0E94400480FF04C0812F28
:100930008A95F1F7F7CF0F90DF91CF911F9108952E
:10094000682F677085E70C945004CF93DF93EC0118
:10095000229A2A9A84B1886284B9249A2B9A2D9A71
:1009600080E58CBD8DB581608DBD4FEF60E08FEF70
:100970000E94E60380E090E00197F1F710925301A6
:100980001092520160E088E00E94500460E089E02B
:100990000E94500460E08CE00E94500460E08DE012
:1009A0000E9450046FEF8AE00E94500469E18BE0DE
:1009B0000E94500460E084E00E9450046AE185E0F7
:1009C0000E9450046FEF86E00E9450046FE187E0C0
:1009D0000E94500460EB88E30E9450046FE388E2B9
:1009E0000E94500460E389E20E94500469EF80E3B2
:1009F0000E94500467EF81E30E9450046DE080EC98
:100A00000E94500460E081EC0E94500442E362ECDA
:100A100080E80E94E60362E186EC0E9450046CE0EC
:100A200087EC0E94500462E184EC0E9450046CED5B
:100A30008AEC0E94500465E08BEC0E9450046881AF
:100A400084EE0E945004698185EE0E9450046A8100
:100A500082EE0E9450046B8183EE0E9450046C81F0
:100A600080EE0E9450046D8181EE0E94500460E08F
:100A700071E080E10E947C048FE10E941E0440EC42
:100A80006BE180E80E94E60344E06FE180E8DF91DB
:100A9000CF910C94E60382E70E944004863008F070
:100AA0008F5F089581E10E94630421E0892B09F49E
:100AB00020E0822F08950F931F93CF93DF93EC01D3
:100AC0008B016FE180E00E94D00383FF10C08CE1B6
:100AD0000E94400481FFF5CF40E86FE180E80E946A
:100AE000E60340E86FE180EA0E94E603EACF60E0B7
:100AF00082E00E9450046AE183E00E9450046C2F5F
:100B000086E00E945004CE01965E692F87E00E9425
:100B1000500440E060E08AE70E94E603B801CE019D
:100B20000E94090448E06FE180E8DF91CF911F91B6
:100B30000F910C94E60389E30E94400491E0811137
:100B400001C090E0892F08959F92AF92BF92CF92FB
:100B5000DF92EF92FF920F931F93CF93DF937C016D
:100B60006B0189E30E944004882309F45BC0609113
:100B70005201C091530180E00E9450046C2F81E02B
:100B80000E94500460E08AE30E94D003082F60E0D6
:100B90008AE30E94D00310E0182B109353010093B6
:100BA000520160E08AE30E94D003C82F60E08AE32C
:100BB0000E94D003982E60E08AE30E94D003A82E02
:100BC00060E08AE30E94D003A7FE0FC09701215086
:100BD0003109D0E0D92924972C173D0708F4E90101
:100BE000B601CE010E94F30302C0C0E0D0E06FEF77
:100BF00001308AE118072CF08CE00E94500469E172
:100C000007C0600F8CE00E94500401501109612F51
:100C10008DE00E94500440E46EE180E80E94E6030B
:100C2000CE0102C080E090E0DF91CF911F910F9143
:100C3000FF90EF90DF90CF90BF90AF909F9008957E
:100C4000E1E8F0E080818860808380818560808336
:100C5000EFE6F0E08081826080838EEA9FE29093ED
:100C6000890080938800089553985B9A54985C9A01
:100C700055985D9A56985E9A57985F9A2098289A48
:100C80003C9A449A089584B5826084BD85B5856098
:100C900085BDEEE6F0E080818260808389E787BDD4
:100CA00008950F931F93CF93DF93EC01D901FB01BC
:100CB0002081242391E08881222311F090E004C058
:100CC000811102C098830BC0882331F19923D1F0A0
:100CD000813041F48C9181111FC082E088838EE1C4
:100CE0008C931AC0823039F48C91811115C083E045
:100CF000888382E012C0833079F49C9181E099234B
:100D000061F00AC0823040F00115110511F0F801C0
:100D10000995188283E001C080E0DF91CF911F9197
:100D20000F910895EF92FF920F931F93CF93DF934C
:100D3000890190917D01891751F0E0917A01F0913C
:100D40007B0140E050E060E070E084E02BC0611186
:100D50002AC02D30310538F1C0917A01D0917B0144
:100D6000209709F1E0906E01F0906F01BA01675F82
:100D70007F4F6E0D7F1D43E050E089E191E00E94BE
:100D80008618F70166A562956F70F4E06F9FB00159
:100D900011246E5D7F4FA801892B11F480E001C002
:100DA00081E0FE01099580E0DF91CF911F910F91C5
:100DB000FF90EF900895FF920F931F93CF93DF93CF
:100DC000FB01413051F4AB014850510960E070E043
:100DD0004F5E5F4F6F4F7F4F0FC0423051F4AB01FA
:100DE0004850510960E070E04A5F5F4F6F4F7F4F9E
:100DF00003C040E050E0BA01EF01DC01C230D10590
:100E000098F00C9110E020E030E0322F212F102FCD
:100E100000271196FC9011970F29400F511F621F58
:100E2000731F12962297EACFDF01AE7FA80FB91F7A
:100E3000E0FF0CC08C9190E0A0E0B0E0BA2FA92FA9
:100E4000982F8827480F591F6A1F7B1FCB01AA279D
:100E5000BB270097A105B10519F066277727F2CFC8
:100E6000CA0180959095DF91CF911F910F91FF90CE
:100E7000089550938A0140930401FB01A7E5B1E076
:100E800021912D9321E0AB35B207D1F7FC01ABE501
:100E9000B1E081918D9381E0A136B807D1F7089533
:100EA000DC015A96FB0180E02D919191291305C038
:100EB0008F5F8430C9F781E0089580E0089569323A
:100EC0007105A8F0FC012485283089F42585263099
:100ED00071F4DC019696E7E5F1E09D91819198131C
:100EE00006C081E0EB35F807C1F781E0089580E0A6
:100EF0000895FC016A327105B0F08485883099F458
:100F00008585811110C08685853469F47E96A7E5B4
:100F1000B1E091918D91981306C081E0AB35B8078F
:100F2000C1F781E0089580E00895CF93DF93EBE56A
:100F3000F1E0DC0116962C91EC012993CE01219170
:100F40002D93D1E0E136FD07B1F7DF91CF91089500
:100F5000CF93DF93EC01188E198E80E48C8B1D8A61
:100F60008E8B40E064E170E0CE010E960E94DB06BD
:100F7000988F898FDF91CF910895CF93DF93EC0104
:100F80006E96E7E5F1E0DC015A962C9129932191C8
:100F90002D9321E0EB35F207C1F7DF91CF910C944F
:100FA000A807FC01BA96DC019E9686962291620FF4
:100FB000711D2E916C93442311F0208301C0108287
:100FC000672F7727E817F90789F70895CF93DF93FD
:100FD000EC018CA19AA19CA38AA38DA19BA19DA3A6
:100FE0008BA3CE010E94D1071AAA1BAA80E58EA767
:100FF000DF91CF910895CF93DF93EC010E94950785
:101000001C8A82E08D8BCE0180964BE551E0DE019B
:1010100056962C91FC012193CF01FA012191AF0149
:101020002D93F1E041365F07A1F7CE01869647E5A3
:1010300051E0DE015C962C91FC012193CF01FA0175
:101040002191AF012D93F1E04B355F07A1F7BE0170
:101050008AE290E0DF91CF910C945B050F931F9390
:10106000CF93DF93EC018B010E949507CE010E9484
:10107000BD071AA29CA1983F18F08DA18F5F8DA388
:10108000985F9CA3BE01C801DF91CF911F910F9182
:101090000C945B05DF92EF92FF920F931F93CF9317
:1010A000DF93EC01162FF72E042FE22ED32E0E9491
:1010B00095070D3D08F00CED188A8CE1800F898BA7
:1010C000CE010E94BD078AA18CA38BA18DA3DAA2B9
:1010D000EBA21EA288E0800F8FA318A619A6912F5D
:1010E000DE019A96E12FFF2D8E2F891B801718F4B1
:1010F00081918D93F9CF10E0B801605F7F4F41E09F
:10110000CE014A960E94DB0698A789A7BE01C801B6
:101110008A96DF91CF911F910F91FF90EF90DF9012
:101120000C945B05CF93DF93EC010E949507188A1E
:101130008CE2898BCE010E94BD0782E18FA740E03F
:1011400061E070E0CE010E94E6071EA21FA280911E
:10115000000188A719A68D5F8093000182E08EAB05
:1011600084E08FAB85E088AF19AE90E69EA788AB90
:1011700088E789AB42E060E270E0CE014A960E94C7
:10118000DB069AAB8BABBE018AE390E0DF91CF9197
:101190000C945B05FC01808990E0982F88272189B9
:1011A000822B449726A522952F7034E0239F801927
:1011B0009109112497FF02C080E090E008959C01FE
:1011C000CB01461B570BFA01E80FF91FE491EE2300
:1011D00039F0D901A80FB91FD696EC930196F3CF39
:1011E0000895DB01D696A80FB91FFA01420F4E17DA
:1011F00019F081918D93FBCFCB01820F911D089542
:10120000FA0101900020E9F79F0121503109241BC8
:10121000350B0C94F108EF92FF920F931F93CF932D
:10122000DF9300D000D01F92CDB7DEB790917D0143
:1012300089139CC080917C0100916E0110916F0117
:1012400081112CC044E551E060E070E0C8010E94CB
:10125000DF084091740150917501BC01C8010E94E2
:10126000DF084091720150917301BC01C8010E94D6
:10127000000942E451E0BC01C8010E94DF0840912E
:10128000700150917101BC01C8010E94DF0842E069
:1012900051E0BC01C8010E94DF086AC04CEF50E079
:1012A00060E070E0C8010E94DF0840917401509135
:1012B0007501BC01C8010E94DF084AEE50E0BC0184
:1012C000C8010E94DF084091700150917101BC017A
:1012D000C8010E94DF08E0907801F0907901E114E4
:1012E000F10459F047EE50E0BC01C8010E94DF084C
:1012F000A701BC01C8010E94DF084FEA50E0BC0111
:10130000C8010E94DF084EE950E0BC01C8010E94FC
:10131000DF087C01A0917601B0917701FD01019079
:101320000020E9F731974AE0BE016F5F7F4FCF01A0
:101330008A1B9B0B0E949F1800916E0110916F01F8
:10134000AE014F5F5F4FB701C8010E94000948E638
:1013500050E0BC01C8010E94DF0840917601509125
:101360007701BC01C8010E94000902C080E090E042
:101370000F900F900F900F900F90DF91CF911F91D2
:101380000F91FF90EF9008950F931F93CF93DF93EA
:1013900000D01F92CDB7DEB78C014B8369837A836F
:1013A0000E9495074B81842F8061F80187A769818E
:1013B0007A81443029F06115710511F461E070E023
:1013C00041E0C8010E94E607F801108A88E2818B9B
:1013D000C8010E94BD0784E0F80180AB11AA42E079
:1013E0006CE170E0C8014A960E94DB06F80192ABFE
:1013F00083ABB80186E390E00F900F900F90DF91E0
:10140000CF911F910F910C945B050F931F93CF9376
:10141000DF93EC018B01CB018896988B898BCE01F1
:101420000E94A8071AAA1BAAB801645E7F4F42E077
:10143000CE014A960E94DB069AAB8BABBE01C80177
:10144000C696DF91CF911F910F910C945B050F937E
:101450001F93CF93DF93EC018B0160915501709145
:10146000560140E00E94C40989E18FA7B801CE016E
:10147000DF91CF911F910F910C94050A640F751F96
:101480004617570741F0FA012491FC012193CF013F
:101490004F5F5F4FF5CF0895FF920F931F93CF9348
:1014A000DF93EC01F62E072F142FE2E6F1E09C010A
:1014B0008BE591E0BE016A5F7F4F4191D9014D9369
:1014C0009D01DC014D91CD01DB014D93BD01B1E0EA
:1014D000E836FB0791F788E08C871D8643E651E0EC
:1014E00069E070E0CE010E960E943E0A8CE4898B82
:1014F00081E18F8B6F2D702FCE014E96A7E5B1E065
:10150000FB012191BF01FC012193CF014D919F016E
:1015100025503109F9014083F1E0AB35BF0781F770
:10152000CE010E94A8071CA28BE78DA38AE08AA3A4
:101530001BA31EA288E38FA318A619A6CE018A9624
:10154000FC0120E011922F5F2033E1F749E551E0E3
:101550006AE070E00E943E0A41E060E470E0CE0183
:101560004A960E94DB0698A789A7BE018AE590E00B
:10157000DF91CF911F910F91FF900C945B05CF935A
:10158000DF93FC01DB01442319F085A1841324C0FF
:1015900086A1811121C087A18833F1F483A18B3703
:1015A000D9F4EF01CE5ADF4F88812196488150E06F
:1015B00060E070E0BA0155274427782B2296888195
:1015C000482BEC5AFF4F8081582B4D935D936D93C0
:1015D0007C93139781E001C080E0DF91CF91089563
:1015E0000F931F93CF93DF93EC018B01AE014A5F02
:1015F0005F4FEBE5F1E03FEFDC013D93CD01219141
:10160000DA012D93AD01B1E0E136FB07A9F788E0DF
:101610008C8786E08D874CE651E068E070E0CE0173
:101620000E960E943E0ADE0190964BE551E0FA01CB
:101630002191AF01CD010A97FC0120831D92F1E0B9
:1016400041365F07A1F7B801CE018696A7E5B1E064
:10165000FB012191BF01FC012193CF014D919F011D
:101660002B503109F9014083F1E0AB35BF0781F719
:1016700080916101886080936101BE018AE290E0FF
:10168000DF91CF911F910F910C945B0580916101C7
:101690008695817091E089270895DC015C96E8E6E3
:1016A000F1E03D91219132130FC021E0EC36F207B9
:1016B000C1F7DC015696E2E6F1E08D91819381E07D
:1016C000E836F807D1F702C080E0089581E0089578
:1016D0008091610181FF03C084608093610108955E
:1016E00021E020936101E8E6F1E0DC012D91CD01DC
:1016F0002193B1E0EC36FB07C1F70895E5E8F1E08E
:10170000DC012D91CD012193B1E0E938FB07C1F750
:101710000895DF92EF92FF920F931F93CF93DF9381
:10172000EC01F62EE42ED22EE2E6F1E08C018BE500
:1017300091E0AE014A5F5F4F2191D8012D938D0159
:10174000DC012D91CD01DA012D93AD01B1E0E83638
:10175000FB0791F788E08C871D8643E651E069E03E
:1017600070E0CE010E960E943E0A8CE2898B86E0E4
:101770008F8B65E871E0DE015E9687E591E0FB0105
:101780002191BF012D93FC014191CF019D01255075
:101790003109F9014083F1E069387F0781F7CE0113
:1017A0000E94A807ECA2DDA28BE08AA3FBA2FE01A7
:1017B000B69688E011928150E9F78091000188A7E0
:1017C0008D5F8093000180E68EA782E08FA793E073
:1017D00098AB19AA1AAA1BAA1CAA1DAA8EAB94E040
:1017E0009FAB88AF86E289AF42E060E270E0CE0155
:1017F0004A960E94DB069AAB8BABBE018AE390E06F
:10180000DF91CF911F910F91FF90EF90DF900C949B
:101810005B05909381018093800170937F016093B9
:101820007E01509383014093820181E08093840183
:10183000809189018F5F883018F48093890102C0FC
:101840001092890180918901089590937501809388
:10185000740170937301609372015093710140930E
:10186000700110927C0130937B0120937A0140E556
:1018700050E06BE079E082E996E00E94090C8093E9
:101880007D0108950F931F939093750180937401C8
:1018900070937101609370015093790140937801C6
:1018A000309377012093760181E080937C0110933F
:1018B0007B0100937A0140E550E06BE079E082E93A
:1018C00096E00E94090C80937D011F910F9108956D
:1018D00090936D0180936C010895CF92DF92EF9207
:1018E000FF920F931F93CF93DF931F92CDB7DEB775
:1018F0006C018B0161157105E9F5809161018570BD
:1019000079F08091010190910201892B49F40E94A4
:101910005205882329F068E671E0C6010E94F00AAA
:1019200080910101909102010196909302018093B0
:10193000010180918401813009F04BC180916101E6
:1019400081FF47C182E080938401609103016F5F52
:10195000609303016F718091890120E2829FC00131
:101960001124682B2091820140918301C6010E94BD
:10197000890B2FC10E945F078823D1F0D6015596AD
:101980008C91813019F4C6010E94FB07809161019E
:1019900083FF1FC1F6011589123009F01AC1C60173
:1019A0000E944D0B882309F414C11093610111C1E9
:1019B000B801C6010E947907882309F40AC1D6013B
:1019C00057968C915797813099F492968C918830E4
:1019D00009F004C1E0916C01F0916D01309719F0AC
:1019E000C6014A960995B801C6010E942E08F1C0A9
:1019F0000633110518F4863009F0EBC0F60184A116
:101A00008B3009F0B3C0D0926F01C0926E0165E8CF
:101A100071E0C6010E945007882309F4DAC0D6019C
:101A20009F962C919F9722FF13C0E0918001F09127
:101A30008101309709F490C095968C9120E030E0B8
:101A400040E050E063E0829586958770099584C0F8
:101A5000C60129830E94CA087C01809184012981E2
:101A6000823099F5822F80712271223109F540E090
:101A700060E070E0C6010E94C40988E1F60187A712
:101A8000E0917E01F0917F01309741F0D60193966D
:101A90008C91829586958770099502C080E090E0D0
:101AA00023E020938401BC01C6010E94050A91C075
:101AB00091E090938401811104C0B7016F5F7F4F63
:101AC00002C060E070E044E071C08330A9F5E11429
:101AD000F10491F184E080938401E0918001F09120
:101AE0008101309749F1D6019E964C9142954F70F5
:101AF000B4E04B9FA0011124C80108974E5D5F4FD1
:101B00008417950708F4AC01C701840F951F0817C7
:101B1000190720F49801241B350B01C09701D60149
:101B200095968C9160E082958695877009958823BB
:101B300019F049E0B7010DC080918401853009F4A6
:101B400048C0F60187A580FF0BC0B7016F5F7F4FCC
:101B500049E0C6010E94C40985E08093840139C030
:101B6000E114F104B1F140E0B70120C090918A0185
:101B700089132FC095A18091040198132AC0F7A45E
:101B8000F1FE04C0C6010E94920823C0F4FE21C0E9
:101B9000C6010E94CA089093560180935501892B73
:101BA00049F4F0FE16C040E060E070E0C6010E941B
:101BB000C4090FC0F60126A522952F70F4E02F9FCF
:101BC000900111242E5D3F4F085011090217130791
:101BD00018F480E090E006C0C90104C00633110586
:101BE000C0F30CCF0F90DF91CF911F910F91FF9019
:101BF000EF90DF90CF9008951F920F920FB60F9243
:101C000011248F938091C301882319F08150809310
:101C1000C3018091C101882319F081508093C101D3
:101C20008091BA01882319F081508093BA01809184
:101C3000BD01882319F081508093BD018091C201BC
:101C4000882319F081508093C2018091C0018823BC
:101C500019F081508093C0018091C401882319F04C
:101C600081508093C401809191018F5F8093910195
:101C70008C3311F4449805C0813419F4449A1092BD
:101C800091018F910F900FBE0F901F9018951F928A
:101C90000F920FB60F9211248F939F93AF93BF9320
:101CA0008091930190919401A0919501B09196013A
:101CB0000196A11DB11D8093930190939401A0936F
:101CC0009501B09396018091050190910601892BB1
:101CD00049F08091050190910601019790930601CA
:101CE00080930501BF91AF919F918F910F900FBE8F
:101CF0000F901F9018958F929F92AF92BF92CF92A4
:101D0000DF92EF92FF920F931F93CF938091C301C5
:101D1000811126C100E010E021EC31E048E069E2E9
:101D200070E080E991E00E9451068093BF012AEBA8
:101D300031E040E169E270E08FE891E00E945106F5
:101D40008093C6012DEB31E040E269E270E08EE85D
:101D500091E00E9451068093BC0122EC31E040E406
:101D600069E270E08DE891E00E9451068093BB012A
:101D700020EC31E040E869E270E08CE891E00E94FC
:101D800051068093BE0124EC31E041E063E270E053
:101D90008BE891E00E945106C82F8093C501809185
:101DA000BC01813091F56091930170919401809113
:101DB0009501909196018090CE019090CF01A090D6
:101DC000D001B090D101681979098A099B093CE3D7
:101DD000C32ED12CE12CF12CA70196010E943218C0
:101DE0002093C701609193017091940180919501B6
:101DF00090919601681979098A099B09A7019601B2
:101E00000E9432186093E30112C0823081F4409145
:101E100093015091940160919501709196014093C6
:101E2000CE015093CF016093D0017093D101809186
:101E3000BB01813091F56091930170919401809183
:101E40009501909196018090DF019090E001A09023
:101E5000E101B090E201681979098A099B092CE334
:101E6000C22ED12CE12CF12CA70196010E94321830
:101E700020930505609193017091940180919501E3
:101E800090919601681979098A099B09A701960121
:101E90000E9432186093D80112C0823081F44091C0
:101EA0009301509194016091950170919601409336
:101EB000DF015093E0016093E1017093E2018091B2
:101EC000BF01823081F4409193015091940160915F
:101ED0009501709196014093060550930705609314
:101EE0000805709309058091C601823081F4409104
:101EF00093015091940160919501709196014093E6
:101F0000D4015093D5016093D6017093D70180918D
:101F1000BE01823081F4409193015091940160910F
:101F20009501709196014093C8015093C901609347
:101F3000CA017093CB01C23081F4809193019091DA
:101F40009401A0919501B091960180930A05909318
:101F50000B05A0930C05B0930D0584E68093C30197
:101F6000CF911F910F91FF90EF90DF90CF90BF9096
:101F7000AF909F908F90089580E8809361001092B9
:101F8000610080E08A95F1F783E191E00E94A50469
:101F900082E00E94A00480E08A95F1F766E774E091
:101FA00084E10E947C0441E753E06FE071E083E14B
:101FB00091E00E9439078BE091E00E94700B0E9433
:101FC00043060E94200683E294EF0197F1F700C0D8
:101FD00000000E94340644989FE121EA87E0915076
:101FE00020408040E1F700C00000449A789429E244
:101FF00088E190E00FB6F894A895809360000FBE3A
:1020000020936000FF24F394C8EFD5E2A8950E94C6
:102010007B0E8091050190910601892B31F4F0929D
:102020009701D0930601C093050164EE71E080E250
:1020300093E00E94A4056C01BC0184EE91E00E9433
:102040006D0C8C019093CD018093CC010097E9F148
:1020500044E050E0BC016C517E4F8DE191E00E9464
:102060008618892B51F00E94C3109093CD01809364
:10207000CC0144EC51E0BC010BC0C80188519E4F1B
:102080000E9468168F3F49F444E751E060E070E039
:1020900084EE91E00E94DF0809C0813019F40E94AB
:1020A000DC1004C08A3031F00E94E5109093CD011D
:1020B0008093CC0144986091CC017091CD0184EE65
:1020C00091E00E94270A449AA1CFB60184EE91E0E4
:1020D0000E94790781111CC080919701882309F41F
:1020E00095CF0E94460B811191CF409192014F5F95
:1020F000409392011092970167E071E084EE91E0C5
:102100000E944C0A809199018F5F809399017ECF44
:102110008091FB01813109F079CF80910602811114
:1021200075CF809107028B3709F070CF40919201F3
:1021300063E971E084EE91E00E94BF0A882309F40C
:1021400065CF8091930190919401A0919501B091F8
:1021500096018091930190919401A0919501B09185
:10216000960180589E47AA4AB34880939301909362
:102170009401A0939501B0939601809198018F5F8F
:102180008093980143CF42E257E060E070E084EE34
:1021900091E00C94DF0843E956E060E070E084EEE3
:1021A00091E00C94DF080E94CB1041E456E0BC01A2
:1021B00084EE91E00C94DF080E94C31040E356E0E7
:1021C000BC0184EE91E00C94DF084F925F927F9205
:1021D0008F929F92AF92BF92CF92DF92EF92FF9237
:1021E0000F931F93CF93DF9300D0CDB7DEB7C0908E
:1021F0009301D0909401E0909501F09096010E9497
:10220000C31040E156E0BC0184EE91E00E94DF087B
:1022100044EF55E0BC0184EE91E00E94DF0840ED00
:1022200055E0BC0184EE91E00E94DF0840EC55E0EF
:10223000BC0184EE91E00E94DF08BC0189837A83AF
:102240000E94460B69817A81811103C04CEB55E0F5
:1022500002C049EB55E084EE91E00E94DF0843EABA
:1022600055E0BC0184EE91E00E94DF088C01809172
:1022700099014AE065EA71E090E00E949F1845EA02
:1022800051E0B80184EE91E00E9400094DE855E06C
:10229000BC0184EE91E00E94DF088C0180919801DE
:1022A0004AE065EA71E090E00E949F1845EA51E03B
:1022B000B80184EE91E00E9400094EE555E0BC01B2
:1022C00084EE91E00E94DF088C01809198018823C0
:1022D00009F440C01092A4018AE0782E9AE0892E79
:1022E000912CA12CB12CC114D104E104F104A9F06A
:1022F000772099F07A94472C512CC20186569E4F34
:102300002C01C701B601A50194010E943218605D3D
:10231000F201608369017A01E6CFE72CF12CC70155
:1023200086569E4F7C01AC01B80184EE91E00E947C
:1023300000094FE455E0BC0184EE91E00E94DF0803
:10234000A701BC0184EE91E00E94000943E455E03E
:10235000BC0103C04EE355E0B80184EE91E00E9459
:10236000DF0845E355E0BC0184EE91E00F900F904B
:10237000DF91CF911F910F91FF90EF90DF90CF9061
:10238000BF90AF909F908F907F905F904F900C94F4
:10239000DF08BF92CF92DF92EF92FF920F931F93CD
:1023A000CF93DF93EA011092A4012AE0B22E3AE023
:1023B000C32ED12CE12CF12C6115710581059105FD
:1023C00089F0BB2079F0BA940B2D10E006561E4F11
:1023D000A70196010E943218605DF8016083B9017F
:1023E000CA01EACF6881798147E255E084EE91E045
:1023F0000E94DF08998388834B2D50E046565E4F3C
:10240000BC0184EE91E00E940009998388834BE12E
:1024100055E0BC0184EE91E00E94DF089983888337
:10242000DF91CF911F910F91FF90EF90DF90CF90B0
:10243000BF900895BF92CF92DF92EF92FF920F93D9
:102440001F93CF93DF9300D0CDB7DEB78C010E94EE
:10245000C3109A8389834FEF54E0BC01C8010E94E6
:10246000DF089A83898349EF54E0BC01C8010E94C8
:10247000DF089A8389834BEB54E0BC01C8010E94BA
:10248000DF089A83898340EB54E0BC01C8010E94B5
:10249000DF089A8389838091D3018F938091D20141
:1024A0008F9380E391E09F938F93A9EDEA2EA1E0B3
:1024B000FA2EFF92EF920E94CC1869817A81A701CF
:1024C000C8010E9400099A838983B6E0DB2EF701D8
:1024D0002D2D11922A95E9F745EA54E0BC01C80177
:1024E0000E94DF089A83898349E954E0BC01C8014E
:1024F0000E94DF08BC019A8389830F900F900F9090
:102500000F900F900F908091BE01882381F048E7D3
:1025100054E0C8010E94DF089A8389836091C80152
:102520007091C9018091CA019091CB011CC090911A
:10253000BF018091BC01911105C0811122C043E708
:1025400054E019C0811115C04BE654E0C8010E9447
:10255000DF089A8389836091060570910705809151
:10256000080590910905AE014F5F5F4F0E94C911A8
:102570003DC042E654E0C8010E94DF089A83898387
:1025800035C04FE454E0C8010E94DF089A83898374
:102590008091BE011F928F938091BC011F928F93F7
:1025A0008091BF011F928F9382E291E09F938F935E
:1025B000FF92EF920E94CC1869817A8149ED51E037
:1025C000C8010E9400099A838983F7011192DA9465
:1025D000E9F747E454E0BC01C8010E94DF089A8390
:1025E00089830FB6F894DEBF0FBECDBF69817A81B3
:1025F0004DE354E0C8010E94DF089A83898360910B
:10260000CE017091CF018091D0019091D101AE01A6
:102610004F5F5F4F0E94C91169817A814AE354E09C
:10262000C8010E94DF089A8389838091C7011F92A5
:102630008F9370E3C72E71E0D72EDF92CF92E9ED32
:10264000EE2EE1E0FE2EFF92EF920E94CC186981FF
:102650007A81A701C8010E9400099A838983F6E064
:10266000BF2EF7012B2D11922A95E9F745E354E08F
:10267000BC01C8010E94DF089A8389838091E3012D
:102680001F928F93DF92CF92FF92EF920E94CC180D
:1026900069817A81A701C8010E9400099A83898310
:1026A000F7012B2D11922A95E9F74EE254E0BC0177
:1026B000C8010E94DF089A83898344E254E0BC0188
:1026C000C8010E94DF089A8389834FE154E0BC016E
:1026D000C8010E94DF089A83898341E154E0BC016C
:1026E000C8010E94DF08BC019A8389830FB6F89461
:1026F000DEBF0FBECDBF8091C501882381F040EFC2
:1027000053E0C8010E94DF089A83898360910A051B
:1027100070910B0580910C0590910D051CC0909156
:10272000C6018091BB01911105C0811122C04BEE01
:1027300053E019C0811115C043EE53E0C8010E9457
:10274000DF089A8389836091D4017091D5018091CB
:10275000D6019091D701AE014F5F5F4F0E94C91122
:102760003DC04BED53E0C8010E94DF089A83898386
:1027700035C048EC53E0C8010E94DF089A83898382
:102780008091C5011F928F938091BB011F928F93FF
:102790008091C6011F928F9382E291E09F938F9365
:1027A000FF92EF920E94CC1869817A8149ED51E045
:1027B000C8010E9400099A838983F7011192BA9493
:1027C000E9F740EC53E0BC01C8010E94DF089A839E
:1027D00089830FB6F894DEBF0FBECDBF69817A81C1
:1027E00046EB53E0C8010E94DF089A838983609119
:1027F000DF017091E0018091E1019091E201AE0171
:102800004F5F5F4F0E94C91169817A8143EB53E0AA
:10281000C8010E94DF089A838983809105051F9271
:102820008F9340E3C42E41E0D42EDF92CF9259ED36
:10283000E52E51E0F52EFF92EF920E94CC186981AF
:102840007A81A701C8010E9400099A83898366E002
:10285000B62EF7012B2D11922A95E9F74EEA53E097
:10286000BC01C8010E94DF089A8389838091D80146
:102870001F928F93DF92CF92FF92EF920E94CC181B
:1028800069817A81A701C8010E9400099A8389831E
:10289000F7011192BA94E9F747EA53E0BC01C80185
:1028A0000E94DF089A8389834FE953E0BC01C80185
:1028B0000E94DF080FB6F894DEBF0FBECDBF0F90A9
:1028C0000F90DF91CF911F910F91FF90EF90DF90CC
:1028D000CF90BF900895BF92CF92DF92EF92FF9278
:1028E0000F931F93CF93DF9300D0CDB7DEB78C014A
:1028F0000E94C3109A83898343E853E0BC01C80156
:102900000E94DF089A8389834DE753E0BC01C80128
:102910000E94DF089A83898347E753E0BC01C8011E
:102920000E94DF089A8389834BE653E0BC01C8010B
:102930000E94DF08BC019A8389838091BE018823AD
:1029400081F04AE453E0C8010E94DF089A8389833A
:102950006091C8017091C9018091CA019091CB0129
:102960001CC09091BF018091BC01911105C08111E3
:102970001DC045E453E01CC0811115C04DE353E078
:10298000C8010E94DF089A838983609106057091CF
:1029900007058091080590910905AE014F5F5F4FD3
:1029A0000E94C9110AC044E353E002C047E153E06A
:1029B000C8010E94DF089A83898369817A814DE08A
:1029C00053E0C8010E94DF089A8389836091CE0199
:1029D0007091CF018091D0019091D101AE014F5FF4
:1029E0005F4F0E94C91169817A814AE053E0C801B2
:1029F0000E94DF089A8389838091C7011F928F9379
:102A000030E3C32E31E0D32EDF92CF9249EDE42E96
:102A100041E0F42EFF92EF920E94CC1869817A81F6
:102A2000A701C8010E9400099A83898356E0B52E48
:102A3000F7012B2D11922A95E9F745E053E0BC01EF
:102A4000C8010E94DF089A8389838091E3011F9265
:102A50008F93DF92CF92FF92EF920E94CC18698100
:102A60007A81A701C8010E9400099A838983F7012E
:102A70001192BA94E9F74EEF52E0BC01C8010E94EE
:102A8000DF089A83898344EF52E0BC01C8010E94A9
:102A9000DF089A8389834FEE52E0BC01C8010E948F
:102AA000DF089A83898341EE52E0BC01C8010E948D
:102AB000DF08BC019A8389830FB6F894DEBF0FBE8E
:102AC000CDBF8091C501882381F040EC52E0C80160
:102AD0000E94DF089A83898360910A0570910B0533
:102AE00080910C0590910D051CC09091C6018091BC
:102AF000BB01911105C081111DC04BEB52E01CC000
:102B0000811115C043EB52E0C8010E94DF089A838F
:102B100089836091D4017091D5018091D601909103
:102B2000D701AE014F5F5F4F0E94C9110AC04BEA47
:102B300052E002C04EE852E0C8010E94DF089A83CA
:102B4000898369817A8144E852E0C8010E94DF08E4
:102B50009A8389836091DF017091E0018091E101A6
:102B60009091E201AE014F5F5F4F0E94C9116981F0
:102B70007A8141E852E0C8010E94DF089A83898384
:102B8000809105051F928F9380E3C82E81E0D82E97
:102B9000DF92CF9299EDE92E91E0F92EFF92EF921C
:102BA0000E94CC1869817A81A701C8010E9400099E
:102BB0009A83898326E0B22EF7012B2D11922A9554
:102BC000E9F74CE752E0BC01C8010E94DF089A8394
:102BD00089838091D8011F928F93DF92CF92FF92C9
:102BE000EF920E94CC1869817A81A701C8010E94E6
:102BF00000099A838983F7011192BA94E9F745E7AE
:102C000052E0BC01C8010E94DF089A8389834DE627
:102C100052E0BC01C8010E94DF080FB6F894DEBF85
:102C20000FBECDBF0F900F90DF91CF911F910F91ED
:102C3000FF90EF90DF90CF90BF9008950F93CF93C8
:102C4000DF930E94C31048E552E0BC0184EE91E09E
:102C50000E94DF0848E352E0BC0184EE91E00E944C
:102C6000DF084BE252E0BC0184EE91E00E94DF08F5
:102C7000EC010AE02EE244E067E071E085EA91E0D1
:102C80000E94F31745EA51E0BE0184EE91E00E94F4
:102C900000094EE052E0BC0184EE91E00E94DF08A2
:102CA0004CEE51E0BC0184EE91E00E94DF0843EE5F
:102CB00051E0BC0184EE91E00E94DF0844ED51E058
:102CC000BC0184EE91E0DF91CF910F910C94DF086D
:102CD000CF93DF93EC0145E050E0BC0183E391E04A
:102CE0000E948618892B91F484EE91E00E941A12BA
:102CF0009093CD018093CC018091D2019091D3012A
:102D000001969093D3018093D2012FC045E050E00B
:102D1000BE0189E391E00E948618892B29F484EE94
:102D200091E00E946B141DC088818F3219F4898153
:102D3000803251F146E050E0BE0182E491E00E9411
:102D40008618892B19F40E94D3100BC043E050E081
:102D5000BE0189E491E00E948618892B41F40E940B
:102D60001E169093CD018093CC018AE010C044E000
:102D700050E0BE018DE491E00E948618892B31F469
:102D800081E08093970103C080E001C08FEFDF9165
:102D9000CF910895CF93DF93F90150E0EC01A88122
:102DA000BA2FBF7D01F1AA30F1F0511116C0B081E8
:102DB000AB1310C0A181AA2311F031960CC0DC0125
:102DC000119651E0EC0189818D3309F050E0F90151
:102DD000CD0101C0F9010196E1CFDC01FB0150E01A
:102DE000415051090EC05130C1F380E011C09A30FA
:102DF00071F0963261F0282F30E0241735073CF44B
:102E000091938E2F861B9D91292F2F7D81F7108204
:102E1000DF91CF91089590ED980F9A3070F09FE96F
:102E2000980F963010F4875508959FEB980F9630C1
:102E300010F48753089580E00895892F0895DF9254
:102E4000EF92FF920F931F93CF93DF93EC018C01CE
:102E500088818823E1F08B32A1F0853299F47E01DC
:102E600082E0E80EF11C89810E940B17D82E8A811E
:102E70000E940B1790E1D99E90011124822BE7014B
:102E800001C080E2F80181938F012196E1CFF80122
:102E90001082DF91CF911F910F91FF90EF90DF9003
:102EA0000895FB01982F9F70292F30E02A303105BB
:102EB00014F4905D01C0995A918382958F708A3085
:102EC00010F4805D01C0895A808312820895AF9208
:102ED000BF92DF92EF92FF920F931F93CF93DF93F6
:102EE0001F92CDB7DEB75B018C0185E2D82EF801C9
:102EF00021918F012223E9F0C50101967C01203246
:102F000049F0822F90E029830E9472182981892B31
:102F100011F405C02BE2F50120835701E8CFF5013C
:102F2000D082B701822F0E945117F3E0AF0EB11C7F
:102F3000DECFF50110820F90DF91CF911F910F919D
:102F4000FF90EF90DF90BF90AF900895CF92DF9207
:102F5000EF92FF920F931F93CF93DF931F92CDB702
:102F6000DEB76C018B01FC01108211821282138288
:102F700040E080E090E0F8015081511106C0F80176
:102F80001082433009F181E024C04430C0F700973B
:102F900041F4252F30E0205331092A30310508F45F
:102FA000C8015E3271F4F80110827601E40EF11C62
:102FB00049830E945418F701808349814F5F80E064
:102FC00090E00F5F1F4FD7CF0E945418F601838304
:102FD00080E00F90DF91CF911F910F91FF90EF90C4
:102FE000DF90CF9008958F929F92BF92CF92DF9201
:102FF000EF92FF920F931F93CF93DF931F92CDB762
:10300000DEB77C01C42EB62E4B01D12C10E0882DEA
:103010008B198C15A8F4F40181914F01A801B70117
:103020006D0D711D90E029830E9494182981F7018C
:10303000ED0DF11D8081D3948111F9CF2083E7CF6D
:10304000DA94F701ED0DF11D10820F90DF91CF9111
:103050001F910F91FF90EF90DF90CF90BF909F90C6
:103060008F900895A1E21A2EAA1BBB1BFD010DC073
:10307000AA1FBB1FEE1FFF1FA217B307E407F50728
:1030800020F0A21BB30BE40BF50B661F771F881F04
:10309000991F1A9469F760957095809590959B019A
:1030A000AC01BD01CF010895FC0188279927E89460
:1030B00021912032E9F3293010F02E30C8F32B3261
:1030C00041F02D3239F4689404C00E94AA18820F8E
:1030D000911D219120532A30C0F31EF490958195C3
:1030E0009F4F0895911106C080538A5010F0865C5E
:1030F00006C0089599278827089585FDFBCF806233
:103100009111F8CF81568A51E0F70895FB01DC0157
:103110004150504030F08D910190801919F40020F9
:10312000B9F7881B990B08954532510520F44230B8
:1031300010F00C949F18FB011082CB010895BB275F
:103140004A3031F4992322F4BDE2909581959F4F46
:103150000C94B3187AE0979F902D879F802D910D46
:1031600011240895BB27FB015527AA27880F991F13
:10317000AA1FA41710F0A41B83955051B9F7A05DA6
:10318000AA3308F0A95DA193009779F7B111B19323
:103190001192CB010C94D61AAEE0B0E0E2EDF8E16A
:1031A0000C94841B0D891E8986E08C831A83098305
:1031B0008FEF9FE79E838D83AE01475E5F4F6F89E0
:1031C000788DCE0101960E94EE18EF81F885E00F10
:1031D000F11F10822E96E4E00C94A01BACE0B0E04E
:1031E000E4EFF8E10C94761B7C016B018A01FC0191
:1031F00017821682838181FFBDC1CE0101964C01E9
:10320000F7019381F60193FD859193FF81916F0101
:10321000882309F4ABC1853239F493FD859193FF7E
:1032200081916F01853229F4B70190E00E94E61A7E
:10323000E7CF512C312C20E02032A0F48B3269F002
:1032400030F4803259F0833269F420612CC08D3221
:1032500039F0803339F4216026C02260246023C015
:10326000286021C027FD27C030ED380F3A3078F4B0
:1032700026FF06C0FAE05F9E300D1124532E13C0C6
:103280008AE0389E300D1124332E20620CC08E321D
:1032900021F426FD6BC1206406C08C3611F4206831
:1032A00002C0883641F4F60193FD859193FF819128
:1032B0006F018111C1CF982F9F7D9554933028F4D1
:1032C0000C5F1F4FFFE3F9830DC0833631F0833766
:1032D00071F0833509F05BC022C0F80180818983D9
:1032E0000E5F1F4F44244394512C540115C03801E4
:1032F000F2E06F0E711CF801A080B18026FF03C0C0
:10330000652D70E002C06FEF7FEFC5012C870E9432
:10331000CB1A2C0183012C852F77222E17C0380160
:10332000F2E06F0E711CF801A080B18026FF03C08F
:10333000652D70E002C06FEF7FEFC5012C870E9402
:10334000C01A2C012C852068222E830123FC1BC06F
:10335000832D90E048165906B0F4B70180E290E062
:103360000E94E61A3A94F4CFF50127FC859127FED6
:1033700081915F01B70190E00E94E61A31103A9402
:10338000F1E04F1A51084114510471F7E5C0843639
:1033900011F0893639F5F80127FF07C06081718186
:1033A000828193810C5F1F4F08C0608171818827E3
:1033B00077FD8095982F0E5F1F4F2F76B22E97FFC7
:1033C00009C090958095709561957F4F8F4F9F4F65
:1033D0002068B22E2AE030E0A4010E94181BA82E1B
:1033E000A81844C0853729F42F7EB22E2AE030E099
:1033F00025C0F22FF97FBF2E8F36C1F018F4883523
:1034000079F0B4C0803719F0883721F0AFC02F2F82
:103410002061B22EB4FE0DC08B2D8460B82E09C081
:1034200024FF0AC09F2F9660B92E06C028E030E026
:1034300005C020E130E002C020E132E0F801B7FE33
:1034400007C060817181828193810C5F1F4F06C02C
:103450006081718180E090E00E5F1F4FA4010E94A7
:10346000181BA82EA818FB2DFF77BF2EB6FE0BC089
:103470002B2D2E7FA51450F4B4FE0AC0B2FC08C058
:103480002B2D2E7E05C07A2C2B2D03C07A2C01C04B
:10349000752C24FF0DC0FE01EA0DF11D80818033E3
:1034A00011F4297E09C022FF06C07394739404C0EE
:1034B000822F867809F0739423FD13C020FF06C085
:1034C0005A2C731418F4530C5718732C731468F493
:1034D000B70180E290E02C870E94E61A73942C8555
:1034E000F5CF731410F4371801C0312C24FF12C02B
:1034F000B70180E390E02C870E94E61A2C8522FF1A
:1035000017C021FF03C088E590E002C088E790E083
:10351000B7010CC0822F867859F021FD02C080E2ED
:1035200001C08BE227FD8DE2B70190E00E94E61A10
:10353000A51438F4B70180E390E00E94E61A5A948B
:10354000F7CFAA94F401EA0DF11D8081B70190E054
:103550000E94E61AA110F5CF332009F451CEB7012D
:1035600080E290E00E94E61A3A94F6CFF701868155
:10357000978102C08FEF9FEF2C96E2E10C94921B93
:10358000FC010590615070400110D8F7809590952E
:103590008E0F9F1F0895FC01615070400190011033
:1035A000D8F7809590958E0F9F1F0895DC01FC0140
:1035B000672F71917723E1F7329704C07C916D9367
:1035C00070836291AE17BF07C8F308950F931F93DE
:1035D000CF93DF93182F092FEB018B8181FD03C05F
:1035E0008FEF9FEF20C082FF10C04E815F812C8142
:1035F0003D81421753077CF4E881F9819F012F5FD9
:103600003F4F39832883108306C0E885F985812FD1
:103610000995892B29F72E813F812F5F3F4F3F83EB
:103620002E83812F902FDF91CF911F910F910895BD
:10363000FA01AA27283051F1203181F1E8946F93E3
:103640006E7F6E5F7F4F8F4F9F4FAF4FB1E03ED089
:10365000B4E03CD0670F781F891F9A1FA11D680F27
:10366000791F8A1F911DA11D6A0F711D811D911D5A
:10367000A11D20D009F468943F912AE0269F1124CF
:103680003019305D3193DEF6CF010895462F477033
:10369000405D4193B3E00FD0C9F7F6CF462F4F708E
:1036A000405D4A3318F0495D31FD4052419302D0EC
:1036B000A9F7EACFB4E0A695979587957795679592
:1036C000BA95C9F700976105710508959B01AC0192
:1036D0000A2E06945795479537952795BA95C9F7B9
:1036E000620F731F841F951FA01D08952F923F9294
:1036F0004F925F926F927F928F929F92AF92BF9202
:10370000CF92DF92EF92FF920F931F93CF93DF93AD
:10371000CDB7DEB7CA1BDB0B0FB6F894DEBF0FBE0A
:10372000CDBF09942A88398848885F846E847D8457
:103730008C849B84AA84B984C884DF80EE80FD8059
:103740000C811B81AA81B981CE0FD11D0FB6F894CF
:0E375000DEBF0FBECDBFED010895F894FFCF90
:10375E000A010001500A0086820411C0A80101C0AE
:10376E00A8016E5455581000293230300047455488
:10377E002000433D25642C20523D25642C20463DDF
:10378E002564002F666C7220002F617070666C725B
:10379E0020002F74312E6A73002F6D20002F723F80
:0237AE002000F9
:00000001FF
