:100000000C94A9030C94C6030C94C6030C94C60369
:100010000C94C6030C94C6030C94C6030C94C6033C
:100020000C94C6030C94C6030C94C6030C94310EB6
:100030000C94C6030C94C6030C94F40D0C94C603E4
:100040000C94C6030C94C6030C94C6030C94C6030C
:100050000C94C6030C94C6030C94C6030C94C603FC
:100060000C94C6030C94C6030D0A436F6E74656E40
:10007000742D547970653A206170706C6963617495
:10008000696F6E2F782D7777772D666F726D2D756E
:10009000726C656E636F6465640D0A0D0A00436FD0
:1000A0006E74656E742D4C656E6774683A20000D31
:1000B0000A557365722D4167656E743A20746772D4
:1000C0002F312E310D0A4163636570743A202A2F57
:1000D0002A0D0A436F6E6E656374696F6E3A206312
:1000E0006C6F73650D0A000D0A0020485454502FA0
:1000F000312E310D0A486F73743A2000504F53541B
:1001000020000D0A557365722D4167656E743A20A3
:100110007467722F312E300D0A4163636570743A33
:1001200020746578742F68746D6C0D0A436F6E6E61
:10013000656374696F6E3A20636C6F73650D0A0DA9
:100140000A0020485454502F312E310D0A486F7345
:10015000743A20004745542000E30004FA000100EF
:10016000000001450000820000400020000108005E
:1001700006040001485454502F312E3020343031C1
:1001800020556E617574686F72697A65640D0A43F3
:100190006F6E74656E742D547970653A207465784D
:1001A000742F68746D6C0D0A0D0A3C68313E343052
:1001B0003120556E617574686F72697A65643C2F81
:1001C00068313E003C68313E323030204F4B3C2F8E
:1001D00068313E003C2F7072653E3C62723E3C6866
:1001E000723E003C2F666F726D3E0A003C696E7075
:1001F000757420747970653D7375626D69742076CD
:10020000616C75653D2273656E64223E0A003C6632
:100210006F726D20616374696F6E3D2F72206D6522
:1002200074686F643D6765743E0A006E7470207375
:1002300065727665723A20003C68323E73656E6482
:10024000206E747020726571756573743C2F68320E
:100250003E3C7072653E0A003C6120687265663DF6
:100260002F3E5B686F6D655D3C2F613E003C2F70DB
:1002700072653E0A006D696E3C2F68323E002C208C
:10028000003C2F68313E3C68323E003C666F6E7425
:1002900020636F6C6F723D27726564273E2D2D2D94
:1002A0003C2F666F6E743E0050726163612E2E00AB
:1002B000437A656B616D200053746F70003C666F0C
:1002C0006E7420636F6C6F723D27726564273E41C8
:1002D0005741524941213C2F666F6E743E003C6885
:1002E000313E53544F444F4C413A20003C68723EDB
:1002F000003C68313E3C2F68313E006D696E3C2FFA
:1003000068323E002C20003C2F68313E3C68323E73
:10031000003C666F6E7420636F6C6F723D27726570
:1003200064273E2D2D2D3C2F666F6E743E0050725B
:100330006163612E2E2E00437A656B616D20005340
:10034000746F70003C666F6E7420636F6C6F723DEB
:1003500027726564273E415741524941213C2F662F
:100360006F6E743E003C68313E4F424F52413A201E
:10037000003C68723E0A003C7072653E003C73634C
:1003800072697074207372633D74312E6A733E3CDF
:100390002F7363726970743E003C2F7072653E0A61
:1003A000006D696E3C2F68323E002C20003C2F68A7
:1003B000313E3C68323E003C2F666F6E743E003C1E
:1003C000666F6E7420636F6C6F723D277265642771
:1003D0003E0050726163612E2E00437A656B616D41
:1003E000200053746F70003C666F6E7420636F6CF6
:1003F0006F723D27726564273E4157415249412142
:100400003C2F666F6E743E003C68313E53544F443F
:100410004F4C413A20003C68723E003C68313E3C03
:100420002F68313E006D696E3C2F68323E002C20F3
:10043000003C2F68313E3C68323E003C2F666F6EB8
:10044000743E003C666F6E7420636F6C6F723D2764
:10045000726564273E0050726163612E2E2E004348
:100460007A656B616D200053746F70003C666F6E2F
:100470007420636F6C6F723D27726564273E41572D
:1004800041524941213C2F666F6E743E003C6831F9
:100490003E4F424F52413A20003C2F693E0A0A002B
:1004A0003C693E6E72206F64703A003C68723E3C5C
:1004B000696D67207372633D68747470733A2F2F8F
:1004C0006269742E6C792F3257645973487820779B
:1004D000696474683D22323030222068656967683B
:1004E000743D22323030223E003C7072653E003C4A
:1004F000736372697074207372633D74312E6A7312
:100500003E3C2F7363726970743E00293C2F736305
:10051000726970743E5D005B3C7363726970743E17
:1005200074327328003C62723E3C68723E006E6F0B
:100530006E6500293C2F7363726970743E5D002004
:100540005B3C7363726970743E74327328000A0AEC
:1005500054696D6520726563656976656420696EAE
:1005600020554E4958207365632073696E6365207A
:10057000313937303A0A3C2F7072653E000A5375A4
:10058000636365737366756C20616E7377657273F0
:100590003A20000A4E756D626572206F66207265A2
:1005A0007175657374733A20006E6F00796573001E
:1005B0000A4757206D6163206B6E6F776E3A20009B
:1005C0003C68323E4E545020726573706F6E736596
:1005D000207374617475733C2F68323E0A3C7072EC
:1005E000653E0A003C736372697074207372633DE8
:1005F00074312E6A733E3C2F7363726970743E00CF
:100600003C6120687265663D2F6D3E5B6E657720AC
:100610006E74702071756572795D3C2F613E2000AB
:100620003C6120687265663D2F3E4F4B3C2F613E1A
:100630000066756E6374696F6E20743273286E295C
:100640007B0A7661722074203D206E6577204461BC
:100650007465286E2A31303030293B0A646F637527
:100660006D656E742E777269746528742E746F4C84
:100670006F63616C65537472696E672829293B0A40
:100680007D0A00485454502F312E30203230302013
:100690004F4B0D0A436F6E74656E742D54797065FF
:1006A0003A206170706C69636174696F6E2F782D88
:1006B0006A6176617363726970740D0A0D0A000ACB
:1006C0003C2F666F6E743E003C666F6E7420636FE5
:1006D0006C6F723D27677265656E272073697A6556
:1006E0003D2735273E003C666F6E7420636F6C6F4C
:1006F000723D27726564272073697A653D27352727
:100700003E003C666F6E742073697A653D2735271D
:100710003E00485454502F312E3020323030204F7C
:100720004B0D0A436F6E74656E742D547970653A83
:1007300020746578742F68746D6C0D0A507261674F
:100740006D613A206E6F2D63616368650D0A0D0A55
:10075000000011241FBECFEFD8E0DEBFCDBF11E0F7
:10076000A0E0B1E0ECEFF5E302C005900D92A635F4
:10077000B107D9F725E0A6E5B1E001C01D92A5318A
:10078000B207E1F70E947C0F0C94FC1A0C94000055
:100790002A98962F9F71982B9EBD0DB407FEFDCF12
:1007A0001EBC0DB407FEFDCF67FD03C02A9A8EB5AF
:1007B00008951EBC0DB407FEFDCFF8CF2A986F71C7
:1007C000682B6EBD0DB407FEFDCF4EBD0DB407FE08
:1007D000FDCF2A9A0895FB012A982AE32EBD0DB475
:1007E00007FEFDCF8E0F9F1FE817F90739F01EBCDB
:1007F0000DB407FEFDCF2EB52193F6CF10822A9AB5
:1008000008952A982AE72EBD0DB407FEFDCF860F66
:10081000971F6817790741F0FB012191BF012EBD99
:100820000DB407FEFDCFF5CF2A9A08951F93CF93FD
:10083000DF93182F1076C12FD0E02091580130E0BF
:10084000C217D30789F043E06FE180EA0E94DE031C
:10085000AE0185E0559547958A95E1F76FE180E80F
:100860000E94DE0310935801DF91CF911F910895EC
:10087000CF93DF931F92CDB7DEB7682F69830E94B5
:100880001604698180E00F90DF91CF910C94C8032A
:100890001F93CF93DF931F92CDB7DEB7182F6983D5
:1008A0000E9416044981612F80E40F90DF91CF915F
:1008B0001F910C94DE03682F84ED0E94480461E0D0
:1008C00082ED0E94480488E28A95F1F78AEE0E9440
:1008D000380480FDFBCF60E082ED0E94480489ED82
:1008E0000E94380490E008951F93CF93DF931F92E6
:1008F000CDB7DEB7162F682F84ED79830E944804A8
:10090000612F86ED0E9448047981672F87ED0E9450
:10091000480418E28AEE0E94380480FF04C0812F48
:100920008A95F1F7F7CF0F90DF91CF911F9108953E
:10093000682F677085E70C944804CF93DF93EC0130
:10094000229A2A9A84B1886284B9249A2B9A2D9A81
:1009500080E58CBD8DB581608DBD4FEF60E08FEF80
:100960000E94DE0380E090E00197F1F710925701BA
:100970001092560160E088E00E94480460E089E03F
:100980000E94480460E08CE00E94480460E08DE032
:100990000E9448046FEF8AE00E94480469E18BE0FE
:1009A0000E94480460E084E00E9448046AE185E017
:1009B0000E9448046FEF86E00E9448046FE187E0E0
:1009C0000E94480460EB88E30E9448046FE388E2D9
:1009D0000E94480460E389E20E94480469EF80E3D2
:1009E0000E94480467EF81E30E9448046DE080ECB8
:1009F0000E94480460E081EC0E94480442E362ECFB
:100A000080E80E94DE0362E186EC0E9448046CE00C
:100A100087EC0E94480462E184EC0E9448046CED7B
:100A20008AEC0E94480465E08BEC0E9448046881CF
:100A300084EE0E944804698185EE0E9448046A8120
:100A400082EE0E9448046B8183EE0E9448046C8110
:100A500080EE0E9448046D8181EE0E94480460E0AF
:100A600071E080E10E9474048FE10E94160440EC62
:100A70006BE180E80E94DE0344E06FE180E8DF91F3
:100A8000CF910C94DE0382E70E943804863008F090
:100A90008F5F089581E10E945B0421E0892B09F4B6
:100AA00020E0822F08950F931F93CF93DF93EC01E3
:100AB0008B016FE180E00E94C80383FF10C08CE1CE
:100AC0000E94380481FFF5CF40E86FE180E80E9482
:100AD000DE0340E86FE180EA0E94DE03EACF60E0D7
:100AE00082E00E9448046AE183E00E9448046C2F7F
:100AF00086E00E944804CE01965E692F87E00E943E
:100B0000480440E060E08AE70E94DE03B801CE01BD
:100B10000E94010448E06FE180E8DF91CF911F91CE
:100B20000F910C94DE0389E30E94380491E0811157
:100B300001C090E0892F08959F92AF92BF92CF920B
:100B4000DF92EF92FF920F931F93CF93DF937C017D
:100B50006B0189E30E943804882309F45BC060912B
:100B60005601C091570180E00E9448046C2F81E03B
:100B70000E94480460E08AE30E94C803082F60E0F6
:100B80008AE30E94C80310E0182B109357010093CA
:100B9000560160E08AE30E94C803C82F60E08AE340
:100BA0000E94C803982E60E08AE30E94C803A82E22
:100BB00060E08AE30E94C803A7FE0FC0970121509E
:100BC0003109D0E0D92924972C173D0708F4E90111
:100BD000B601CE010E94EB0302C0C0E0D0E06FEF8F
:100BE00001308AE118072CF08CE00E94480469E18A
:100BF00007C0600F8CE00E94480401501109612F6A
:100C00008DE00E94480440E46EE180E80E94DE032B
:100C1000CE0102C080E090E0DF91CF911F910F9153
:100C2000FF90EF90DF90CF90BF90AF909F9008958E
:100C3000E1E8F0E080818860808380818560808346
:100C4000EFE6F0E08081826080838EEA9FE29093FD
:100C5000890080938800089553985B9A54985C9A11
:100C600055985D9A56985E9A57985F9A2098289A58
:100C70003C9A449A089584B5826084BD85B58560A8
:100C800085BDEEE6F0E080818260808389E787BDE4
:100C900008950F931F93CF93DF93EC01D901FB01CC
:100CA0002081242391E08881222311F090E004C068
:100CB000811102C098830BC0882331F19923D1F0B0
:100CC000813041F48C9181111FC082E088838EE1D4
:100CD0008C931AC0823039F48C91811115C083E055
:100CE000888382E012C0833079F49C9181E099235B
:100CF00061F00AC0823040F00115110511F0F801D1
:100D00000995188283E001C080E0DF91CF911F91A7
:100D10000F910895EF92FF920F931F93CF93DF935C
:100D2000890190918101891751F0E0917E01F09144
:100D30007F0140E050E060E070E084E02BC0611192
:100D40002AC02D30310538F1C0917E01D0917F014C
:100D5000209709F1E0907201F0907301BA01675F8A
:100D60007F4F6E0D7F1D43E050E089E191E00E94CE
:100D7000D517F70166A562956F70F4E06F9FB0011B
:100D800011246E5D7F4FA801892B11F480E001C012
:100D900081E0FE01099580E0DF91CF911F910F91D5
:100DA000FF90EF900895FF920F931F93CF93DF93DF
:100DB000FB01413051F4AB014850510960E070E053
:100DC0004F5E5F4F6F4F7F4F0FC0423051F4AB010A
:100DD0004850510960E070E04A5F5F4F6F4F7F4FAE
:100DE00003C040E050E0BA01EF01DC01C230D105A0
:100DF00098F00C9110E020E030E0322F212F102FDE
:100E000000271196FC9011970F29400F511F621F68
:100E1000731F12962297EACFDF01AE7FA80FB91F8A
:100E2000E0FF0CC08C9190E0A0E0B0E0BA2FA92FB9
:100E3000982F8827480F591F6A1F7B1FCB01AA27AD
:100E4000BB270097A105B10519F066277727F2CFD8
:100E5000CA0180959095DF91CF911F910F91FF90DE
:100E6000089550938E0140930401FB01ABE5B1E07E
:100E700021912D9321E0AF35B207D1F7FC01AFE509
:100E8000B1E081918D9381E0A536B807D1F708953F
:100E9000DC015A96FB0180E02D919191291305C048
:100EA0008F5F8430C9F781E0089580E0089569324A
:100EB0007105A8F0FC012485283089F425852630A9
:100EC00071F4DC019696EBE5F1E09D918191981328
:100ED00006C081E0EF35F807C1F781E0089580E0B2
:100EE0000895FC016A327105B0F08485883099F468
:100EF0008585811110C08685853469F47E96ABE5C1
:100F0000B1E091918D91981306C081E0AF35B8079B
:100F1000C1F781E0089580E00895CF93DF93EFE576
:100F2000F1E0DC0116962C91EC012993CE01219180
:100F30002D93D1E0E536FD07B1F7DF91CF9108950C
:100F4000CF93DF93EC01188E198E80E48C8B1D8A71
:100F50008E8B40E064E170E0CE010E960E94D306D5
:100F6000988F898FDF91CF910895CF93DF93EC0114
:100F70006E96EBE5F1E0DC015A962C9129932191D4
:100F80002D9321E0EF35F207C1F7DF91CF910C945B
:100F9000A007FC01BA96DC019E9686962291620F0C
:100FA000711D2E916C93442311F0208301C0108297
:100FB000672F7727E817F90789F70895CF93DF930D
:100FC000EC018CA19AA19CA38AA38DA19BA19DA3B6
:100FD0008BA3CE010E94C9071AAA1BAA80E58EA77F
:100FE000DF91CF910895CF93DF93EC010E948D079D
:100FF0001C8A82E08D8BCE0180964FE551E0DE01A8
:1010000056962C91FC012193CF01FA012191AF0159
:101010002D93F1E045365F07A1F7CE0186964BE5AB
:1010200051E0DE015C962C91FC012193CF01FA0185
:101030002191AF012D93F1E04F355F07A1F7BE017C
:101040008AE290E0DF91CF910C9453050F931F93A8
:10105000CF93DF93EC018B010E948D07CE010E949C
:10106000B5071AA29CA1983F18F08DA18F5F8DA3A0
:10107000985F9CA3BE01C801DF91CF911F910F9192
:101080000C945305DF92EF92FF920F931F93CF932F
:10109000DF93EC01162FF72E042FE22ED32E0E94A1
:1010A0008D070D3D08F00CED188A8CE1800F898BBF
:1010B000CE010E94B5078AA18CA38BA18DA3DAA2D1
:1010C000EBA21EA288E0800F8FA318A619A6912F6D
:1010D000DE019A96E12FFF2D8E2F891B801718F4C1
:1010E00081918D93F9CF10E0B801605F7F4F41E0AF
:1010F000CE014A960E94D30698A789A7BE01C801CF
:101100008A96DF91CF911F910F91FF90EF90DF9022
:101110000C945305CF93DF93EC010E948D07188A3E
:101120008CE2898BCE010E94B50782E18FA740E057
:1011300061E070E0CE010E94DE071EA21FA2809136
:10114000000188A719A68D5F8093000182E08EAB15
:1011500084E08FAB85E088AF19AE90E69EA788ABA0
:1011600088E789AB42E060E270E0CE014A960E94D7
:10117000D3069AAB8BABBE018AE390E0DF91CF91AF
:101180000C945305FC01808990E0982F88272189D1
:10119000822B449726A522952F7034E0239F801937
:1011A0009109112497FF02C080E090E008959C010E
:1011B000CB01461B570BFA01E80FF91FE491EE2310
:1011C00039F0D901A80FB91FD696EC930196F3CF49
:1011D0000895DB01D696A80FB91FFA01420F4E17EA
:1011E00019F081918D93FBCFCB01820F911D089552
:1011F000FA0101900020E9F79F0121503109241BD9
:10120000350B0C94E908EF92FF920F931F93CF9345
:10121000DF9300D000D01F92CDB7DEB7909181014F
:1012200089139CC08091800100917201109173011B
:1012300081112CC044E551E060E070E0C8010E94DB
:10124000D7084091780150917901BC01C8010E94F2
:10125000D7084091760150917701BC01C8010E94E6
:10126000F80842E451E0BC01C8010E94D70840914F
:10127000740150917501BC01C8010E94D70842E079
:1012800051E0BC01C8010E94D7086AC04CEF50E091
:1012900060E070E0C8010E94D70840917801509149
:1012A0007901BC01C8010E94D7084AEE50E0BC0198
:1012B000C8010E94D7084091740150917501BC018A
:1012C000C8010E94D708E0907C01F0907D01E114F4
:1012D000F10459F047EE50E0BC01C8010E94D70864
:1012E000A701BC01C8010E94D7084FEA50E0BC0129
:1012F000C8010E94D7084EE950E0BC01C8010E9415
:10130000D7087C01A0917A01B0917B01FD01019089
:101310000020E9F731974AE0BE016F5F7F4FCF01B0
:101320008A1B9B0B0E94EE170091720110917301B2
:10133000AE014F5F5F4FB701C8010E94F80848E651
:1013400050E0BC01C8010E94D70840917A01509139
:101350007B01BC01C8010E94F80802C080E090E057
:101360000F900F900F900F900F90DF91CF911F91E2
:101370000F91FF90EF9008950F931F93CF93DF93FA
:1013800000D01F92CDB7DEB78C014B8369837A837F
:101390000E948D074B81842F8061F80187A76981A6
:1013A0007A81443029F06115710511F461E070E033
:1013B00041E0C8010E94DE07F801108A88E2818BB3
:1013C000C8010E94B50784E0F80180AB11AA42E091
:1013D0006CE170E0C8014A960E94D306F80192AB16
:1013E00083ABB80186E390E00F900F900F90DF91F0
:1013F000CF911F910F910C9453050F931F93CF938F
:10140000DF93EC018B01CB018896988B898BCE0101
:101410000E94A0071AAA1BAAB801645E7F4F42E08F
:10142000CE014A960E94D3069AAB8BABBE01C8018F
:10143000C696DF91CF911F910F910C9453050F9396
:101440001F93CF93DF93EC018B0160915901709151
:101450005A0140E00E94BC0989E18FA7B801CE0182
:10146000DF91CF911F910F910C94FD09640F751FAF
:101470004617570741F0FA012491FC012193CF014F
:101480004F5F5F4FF5CF0895FF920F931F93CF9358
:10149000DF93EC01F62E072F142FE6E6F1E09C0116
:1014A0008FE591E0BE016A5F7F4F4191D9014D9375
:1014B0009D01DC014D91CD01DB014D93BD01B1E0FA
:1014C000EC36FB0791F788E08C871D8643E651E0F8
:1014D00069E070E0CE010E960E94360A8CE4898B9A
:1014E00081E18F8B6F2D702FCE014E96ABE5B1E071
:1014F000FB012191BF01FC012193CF014D919F017F
:1015000025503109F9014083F1E0AF35BF0781F77C
:10151000CE010E94A0071CA28BE78DA38AE08AA3BC
:101520001BA31EA288E38FA318A619A6CE018A9634
:10153000FC0120E011922F5F2033E1F749E551E0F3
:101540006AE070E00E94360A41E060E470E0CE019B
:101550004A960E94D30698A789A7BE018AE590E023
:10156000DF91CF911F910F91FF900C945305CF9372
:10157000DF93FC01DB01442319F085A1841324C00F
:1015800086A1811121C087A18833F1F483A18B3713
:10159000D9F4EF01CE5ADF4F88812196488150E07F
:1015A00060E070E0BA0155274427782B22968881A5
:1015B000482BEC5AFF4F8081582B4D935D936D93D0
:1015C0007C93139781E001C080E0DF91CF91089573
:1015D0000F931F93CF93DF93EC018B01AE014A5F12
:1015E0005F4FEFE5F1E03FEFDC013D93CD0121914D
:1015F000DA012D93AD01B1E0E536FB07A9F788E0EC
:101600008C8786E08D874CE651E068E070E0CE0183
:101610000E960E94360ADE0190964FE551E0FA01DF
:101620002191AF01CD010A97FC0120831D92F1E0C9
:1016300045365F07A1F7B801CE018696ABE5B1E06C
:10164000FB012191BF01FC012193CF014D919F012D
:101650002B503109F9014083F1E0AF35BF0781F725
:1016600080916501886080936501BE018AE290E007
:10167000DF91CF911F910F910C94530580916501DB
:101680008695817091E089270895DC015C96ECE6EF
:10169000F1E03D91219132130FC021E0E037F207D4
:1016A000C1F7DC015696E6E6F1E08D91819381E089
:1016B000EC36F807D1F702C080E0089581E0089584
:1016C0008091650181FF03C0846080936501089566
:1016D00021E020936501ECE6F1E0DC012D91CD01E4
:1016E0002193B1E0E037FB07C1F70895E9E8F1E0A5
:1016F000DC012D91CD012193B1E0ED38FB07C1F75D
:101700000895DF92EF92FF920F931F93CF93DF9391
:10171000EC01F62EE42ED22EE6E6F1E08C018FE508
:1017200091E0AE014A5F5F4F2191D8012D938D0169
:10173000DC012D91CD01DA012D93AD01B1E0EC3644
:10174000FB0791F788E08C871D8643E651E069E04E
:1017500070E0CE010E960E94360A8CE2898B86E0FC
:101760008F8B69E871E0DE015E968BE591E0FB010D
:101770002191BF012D93FC014191CF019D01255085
:101780003109F9014083F1E06D387F0781F7CE011F
:101790000E94A007ECA2DDA28BE08AA3FBA2FE01BF
:1017A000B69688E011928150E9F78091000188A7F0
:1017B0008D5F8093000180E68EA782E08FA793E083
:1017C00098AB19AA1AAA1BAA1CAA1DAA8EAB94E050
:1017D0009FAB88AF86E289AF42E060E270E0CE0165
:1017E0004A960E94D3069AAB8BABBE018AE390E087
:1017F000DF91CF911F910F91FF90EF90DF900C94AC
:1018000053059093850180938401709383016093C5
:101810008201509387014093860181E08093880183
:1018200080918D018F5F883018F480938D0102C004
:1018300010928D0180918D0108959093790180938C
:10184000780170937701609376015093750140930E
:1018500074011092800130937F0120937E0140E556
:1018600050E063E079E08AE896E00E94010C809302
:10187000810108950F931F939093790180937801CC
:10188000709375016093740150937D0140937C01C6
:1018900030937B0120937A0181E080938001109343
:1018A0007F0100937E0140E550E063E079E08AE843
:1018B00096E00E94010C809381011F910F91089581
:1018C00090937101809370010895CF92DF92EF920F
:1018D000FF920F931F93CF93DF931F92CDB7DEB785
:1018E0006C018B0161157105E9F5809165018570C9
:1018F00079F08091010190910201892B49F40E94B5
:101900004A05882329F06CE671E0C6010E94E80AC6
:1019100080910101909102010196909302018093C0
:10192000010180918801813009F04BC180916501EE
:1019300081FF47C182E080938801609103016F5F5E
:10194000609303016F7180918D0120E2829FC0013D
:101950001124682B2091860140918701C6010E94C5
:10196000810B2FC10E9457078823D1F0D6015596CD
:101970008C91813019F4C6010E94F30780916501B2
:1019800083FF1FC1F6011589123009F01AC1C60183
:101990000E94450B882309F414C11093650111C1FD
:1019A000B801C6010E947107882309F40AC1D60153
:1019B00057968C915797813099F492968C918830F4
:1019C00009F004C1E0917001F0917101309719F0B4
:1019D000C6014A960995B801C6010E942608F1C0C1
:1019E0000633110518F4863009F0EBC0F60184A126
:1019F0008B3009F0B3C0D0927301C092720169E8D4
:101A000071E0C6010E944807882309F4DAC0D601B4
:101A10009F962C919F9722FF13C0E0918401F09133
:101A20008501309709F490C095968C9120E030E0C4
:101A300040E050E063E0829586958770099584C008
:101A4000C60129830E94C2087C01809188012981F6
:101A5000823099F5822F80712271223109F540E0A0
:101A600060E070E0C6010E94BC0988E1F60187A72A
:101A7000E0918201F0918301309741F0D601939675
:101A80008C91829586958770099502C080E090E0E0
:101A900023E020938801BC01C6010E94FD0991C08A
:101AA00091E090938801811104C0B7016F5F7F4F6F
:101AB00002C060E070E044E071C08330A9F5E11439
:101AC000F10491F184E080938801E0918401F09128
:101AD0008501309749F1D6019E964C9142954F7001
:101AE000B4E04B9FA0011124C80108974E5D5F4FE1
:101AF0008417950708F4AC01C701840F951F0817D8
:101B0000190720F49801241B350B01C09701D60159
:101B100095968C9160E082958695877009958823CB
:101B200019F049E0B7010DC080918801853009F4B2
:101B300048C0F60187A580FF0BC0B7016F5F7F4FDC
:101B400049E0C6010E94BC0985E08093880139C044
:101B5000E114F104B1F140E0B70120C090918E0191
:101B600089132FC095A18091040198132AC0F7A46E
:101B7000F1FE04C0C6010E948A0823C0F4FE21C001
:101B8000C6010E94C20890935A0180935901892B83
:101B900049F4F0FE16C040E060E070E0C6010E942B
:101BA000BC090FC0F60126A522952F70F4E02F9FE7
:101BB000900111242E5D3F4F0850110902171307A1
:101BC00018F480E090E006C0C90104C00633110596
:101BD000C0F30CCF0F90DF91CF911F910F91FF9029
:101BE000EF90DF90CF9008951F920F920FB60F9253
:101BF00011248F938091C601882319F0815080931E
:101C0000C6018091C401882319F081508093C401DA
:101C10008091BD01882319F081508093BD0180918E
:101C2000C001882319F081508093C0018091C501C3
:101C3000882319F081508093C5018091C3018823C6
:101C400019F081508093C3018091C701882319F056
:101C500081508093C7018F910F900FBE0F901F90FE
:101C600018951F920F920FB60F9211248F939F9386
:101C7000AF93BF9388B190E1892788B9809196018D
:101C800090919701A0919801B09199010196A11DA1
:101C9000B11D8093960190939701A0939801B09302
:101CA00099018091050190910601892B49F080915D
:101CB000050190910601019790930601809305011B
:101CC000BF91AF919F918F910F900FBE0F901F907A
:101CD00018950F931F93CF938091C601811108C16E
:101CE00000E010E024EC31E048E069E270E084E9D3
:101CF00091E00E9449068093C2012DEB31E040E162
:101D000069E270E083E991E00E9449068093C9018D
:101D100020EC31E040E269E270E082E991E00E946B
:101D200049068093BF0125EC31E040E469E270E0B0
:101D300081E991E00E9449068093BE0123EC31E0E5
:101D400040E869E270E080E991E00E9449068093F2
:101D5000C10127EC31E041E063E270E08FE891E0FF
:101D60000E944906C82F8093C8018091BF0181302D
:101D700019F5609196017091970180919801909169
:101D800099010091D4011091D5012091D601309193
:101D9000D701601B710B820B930B2CE330E040E00A
:101DA00050E00E9481172093CA013093CB014093E9
:101DB000CC015093CD0112C0823081F44091960144
:101DC0005091970160919801709199014093D401CD
:101DD0005093D5016093D6017093D7018091BE01D5
:101DE000813019F560919601709197018091980169
:101DF000909199010091E4011091E5012091E60193
:101E00003091E701601B710B820B930B2CE330E0E8
:101E100040E050E00E9481172093090530930A05A5
:101E200040930B0550930C0512C0823081F4409111
:101E3000960150919701609198017091990140939A
:101E4000E4015093E5016093E6017093E70180910E
:101E5000C201823081F440919601509197016091C6
:101E600098017091990140930D0550930E05609370
:101E70000F05709310058091C901823081F4409163
:101E8000960150919701609198017091990140934A
:101E9000DA015093DB016093DC017093DD018091E6
:101EA000C101823081F44091960150919701609177
:101EB0009801709199014093CE015093CF016093A6
:101EC000D0017093D101C23081F48091960190913C
:101ED0009701A0919801B091990180931105909379
:101EE0001205A0931305B093140584E68093C601F0
:101EF000CF911F910F91089580E880936100109217
:101F0000610080E08A95F1F783E191E00E949D04F1
:101F100082E00E94980480E08A95F1F766E774E019
:101F200084E10E94740441E753E06FE071E083E1D3
:101F300091E00E9431078BE091E00E94680B0E94C3
:101F40003B060E94180683E294EF0197F1F700C068
:101F500000000E942C0644989FE121EA87E09150FE
:101F600020408040E1F700C00000449A789429E2C4
:101F700088E190E00FB6F894A895809360000FBEBA
:101F800020936000FF24F394C8EFD5E2A8950E9447
:101F9000690E8091050190910601892B31F4F09230
:101FA0009A01D0930601C093050168EE71E080E2CA
:101FB00093E00E949C056C01BC0188EE91E00E94B8
:101FC000650C8C019093D3018093D2010097E9F1C5
:101FD00044E050E0BC0168517E4F8DE191E00E94E9
:101FE000D517892B51F00E9483109093D3018093D1
:101FF000D20144EC51E0BC010BC0C80184519E4F9A
:102000000E94B7158F3F49F444E751E060E070E06B
:1020100088EE91E00E94D70809C0813019F40E942F
:102020009C1004C08A3031F00E94A5109093D30117
:102030008093D20144986091D2017091D30188EECF
:1020400091E00E941F0A449AA1CFB60188EE91E068
:102050000E94710781111CC080919A01882309F4A4
:1020600095CF0E943E0B811191CF409195014F5F1A
:102070004093950110929A0167E071E088EE91E03B
:102080000E94440A80919C018F5F80939C017ECFC7
:102090008091FF01813109F079CF80910A0281118D
:1020A00075CF80910B028B3709F070CF409195016D
:1020B00066E971E088EE91E00E94B70A882309F48E
:1020C00065CF8091960190919701A0919801B09170
:1020D00099018091960190919701A0919801B091FA
:1020E000990180589E47AA4AB348809396019093DD
:1020F0009701A0939801B093990180919B018F5F04
:1021000080939B0143CF42E157E060E070E088EEAE
:1021100091E00C94D70843E856E060E070E088EE68
:1021200091E00C94D7080E948B1041E356E0BC016B
:1021300088EE91E00C94D7080E94831040E256E0AC
:10214000BC0188EE91E00C94D7084F925F927F9289
:102150008F929F92AF92BF92CF92DF92EF92FF92B7
:102160000F931F93CF93DF9300D0CDB7DEB7C0900E
:102170009601D0909701E0909801F09099010E940B
:10218000831040E056E0BC0188EE91E00E94D70841
:1021900044EE55E0BC0188EE91E00E94D70840EC87
:1021A00055E0BC0188EE91E00E94D70840EB55E075
:1021B000BC0188EE91E00E94D708BC0189837A8334
:1021C0000E943E0B69817A81811103C04CEA55E07F
:1021D00002C049EA55E088EE91E00E94D70843E941
:1021E00055E0BC0188EE91E00E94D7088C018091F7
:1021F0009C014AE068EA71E090E00E94EE1748EA2C
:1022000051E0B80188EE91E00E94F8084DE755E0F2
:10221000BC0188EE91E00E94D7088C0180919B015F
:102220004AE068EA71E090E00E94EE1748EA51E067
:10223000B80188EE91E00E94F8084EE455E0BC0138
:1022400088EE91E00E94D7088C0180919B01882341
:1022500009F440C01092A7018AE0782E9AE0892EF6
:10226000912CA12CB12CC114D104E104F104A9F0EA
:10227000772099F07A94472C512CC20183569E4FB7
:102280002C01C701B601A50194010E948117605D70
:10229000F201608369017A01E6CFE72CF12CC701D6
:1022A00083569E4F7C01AC01B80188EE91E00E94FC
:1022B000F8084FE355E0BC0188EE91E00E94D70892
:1022C000A701BC0188EE91E00E94F80843E355E0C5
:1022D000BC0103C04EE255E0B80188EE91E00E94D7
:1022E000D70845E255E0BC0188EE91E00F900F90D1
:1022F000DF91CF911F910F91FF90EF90DF90CF90E2
:10230000BF90AF909F908F907F905F904F900C9474
:10231000D708BF92CF92DF92EF92FF920F931F9355
:10232000CF93DF93EA011092A7012AE0B22E3AE0A0
:10233000C32ED12CE12CF12C61157105810591057D
:1023400089F0BB2079F0BA940B2D10E003561E4F94
:10235000A70196010E948117605DF8016083B901B1
:10236000CA01EACF6881798147E155E088EE91E0C2
:102370000E94D708998388834B2D50E043565E4FC7
:10238000BC0188EE91E00E94F808998388834BE0B5
:1023900055E0BC0188EE91E00E94D70899838883BC
:1023A000DF91CF911F910F91FF90EF90DF90CF9031
:1023B000BF900895DF92EF92FF920F931F93CF93F8
:1023C000DF9300D0CDB7DEB78C010E9483109A83D3
:1023D00089834FEE54E0BC01C8010E94D7089A835C
:1023E000898349EE54E0BC01C8010E94D7089A8352
:1023F00089834BEA54E0BC01C8010E94D7089A8344
:10240000898340EA54E0BC01C8010E94D7089A833E
:1024100089838091D9018F938091D8018F9380E334
:1024200091E09F938F937EEDE72E71E0F72EFF9260
:10243000EF920E941B1869817A81A701C8010E944E
:10244000F8089A838983E6E0DE2EF7012D2D11929C
:102450002A95E9F749E954E0BC01C8010E94D70870
:102460009A8389834DE854E0BC01C8010E94D708D3
:10247000BC019A8389830F900F900F900F900F905B
:102480000F908091C101882381F04CE654E0C8018F
:102490000E94D7089A8389836091CE017091CF0101
:1024A0008091D0019091D1011CC09091C201809186
:1024B000BF01911105C0811122C047E654E019C047
:1024C000811115C04FE554E0C8010E94D7089A83D6
:1024D000898360910D0570910E0580910F05909193
:1024E0001005AE014F5F5F4F0E9489113DC046E568
:1024F00054E0C8010E94D7089A83898335C043E419
:1025000054E0C8010E94D7089A8389838091C10151
:102510001F928F938091BF011F928F938091C20170
:102520001F928F9382E291E09F938F93FF92EF929D
:102530000E941B1869817A814EED51E0C8010E940A
:10254000F8089A838983F7011192DA94E9F74BE34B
:1025500054E0BC01C8010E94D7089A8389830FB652
:10256000F894DEBF0FBECDBF69817A8141E354E0AC
:10257000C8010E94D7089A8389836091D401709121
:10258000D5018091D6019091D701AE014F5F5F4F89
:102590000E94891169817A814EE254E0C8010E944B
:1025A000D7089A8389838091CD018F938091CC0144
:1025B0008F938091CB018F938091CA018F9383E396
:1025C00091E09F938F935EEDE52E51E0F52EFF9203
:1025D000EF920E941B1869817A81A701C8010E94AD
:1025E000F8089A83898366E0D62EF7012D2D119283
:1025F0002A95E9F745E254E0BC01C8010E94D708DA
:102600009A8389834BE154E0BC01C8010E94D7083A
:102610009A83898346E154E0BC01C8010E94D7082F
:102620009A83898348E054E0BC01C8010E94D7081E
:10263000BC019A8389830FB6F894DEBF0FBECDBF6D
:102640008091C801882381F047EE53E0C8010E94C1
:10265000D7089A8389836091110570911205809142
:102660001305909114051CC09091C9018091BE0181
:10267000911105C0811122C042EE53E019C08111B1
:1026800015C04AED53E0C8010E94D7089A83898398
:102690006091DA017091DB018091DC019091DD01A4
:1026A000AE014F5F5F4F0E9489113DC042ED53E084
:1026B000C8010E94D7089A83898335C04FEB53E045
:1026C000C8010E94D7089A8389838091C8011F920C
:1026D0008F938091BE011F928F938091C9011F92A9
:1026E0008F9382E291E09F938F93FF92EF920E94EB
:1026F0001B1869817A814EED51E0C8010E94F808EB
:102700009A838983F7011192DA94E9F747EB53E052
:10271000BC01C8010E94D7089A8389830FB6F89438
:10272000DEBF0FBECDBF69817A814DEA53E0C8019B
:102730000E94D7089A8389836091E4017091E50132
:102740008091E6019091E701AE014F5F5F4F0E94DB
:10275000891169817A814AEA53E0C8010E94D70849
:102760009A83898380910C058F9380910B058F93B9
:1027700080910A058F93809109058F9383E391E0FF
:102780009F938F934EEDE42E41E0F42EFF92EF9253
:102790000E941B1869817A81A701C8010E94F8086C
:1027A0009A83898326E0F70111922A95E9F741EA95
:1027B00053E0BC01C8010E94D7089A83898349E984
:1027C00053E0BC01C8010E94D7080FB6F894DEBFE1
:1027D0000FBECDBF0F900F90DF91CF911F910F9142
:1027E000FF90EF90DF900895EF92FF920F931F9369
:1027F000CF93DF9300D0CDB7DEB78C010E9483105A
:102800009A8389834DE753E0BC01C8010E94D70831
:102810009A83898347E753E0BC01C8010E94D70827
:102820009A83898341E753E0BC01C8010E94D7081D
:102830009A83898345E653E0BC01C8010E94D7080A
:10284000BC019A8389838091C101882381F044E48B
:1028500053E0C8010E94D7089A8389836091CE0112
:102860007091CF018091D0019091D1011CC09091C5
:10287000C2018091BF01911105C081111DC04FE3BC
:1028800053E01CC0811115C047E353E0C8010E940A
:10289000D7089A83898360910D0570910E05809108
:1028A0000F0590911005AE014F5F5F4F0E94891197
:1028B0000AC04EE253E002C041E153E0C8010E9469
:1028C000D7089A83898369817A8147E053E0C801F8
:1028D0000E94D7089A8389836091D4017091D501B1
:1028E0008091D6019091D701AE014F5F5F4F0E945A
:1028F000891169817A8144E053E0C8010E94D708B8
:102900009A8389838091CD018F938091CC018F939D
:102910008091CB018F938091CA018F9383E391E0E3
:102920009F938F93AEEDEA2EA1E0FA2EFF92EF92E5
:102930000E941B1869817A81A701C8010E94F808CA
:102940009A83898326E0F70111922A95E9F74BEFE4
:1029500052E0BC01C8010E94D7089A83898341EFE5
:1029600052E0BC01C8010E94D7089A8389834CEECB
:1029700052E0BC01C8010E94D7089A8389834EEDBA
:1029800052E0BC01C8010E94D708BC019A83898328
:102990000FB6F894DEBF0FBECDBF8091C80188236B
:1029A00081F04DEB52E0C8010E94D7089A838983D9
:1029B0006091110570911205809113059091140595
:1029C0001CC09091C9018091BE01911105C0811177
:1029D0001DC048EB52E01CC0811115C040EB52E015
:1029E000C8010E94D7089A8389836091DA017091A7
:1029F000DB018091DC019091DD01AE014F5F5F4F03
:102A00000E9489110AC048EA52E002C04BE852E035
:102A1000C8010E94D7089A83898369817A8141E835
:102A200052E0C8010E94D7089A8389836091E4012B
:102A30007091E5018091E6019091E701AE014F5F51
:102A40005F4F0E94891169817A814EE752E0C80187
:102A50000E94D7089A83898380910C058F93809177
:102A60000B058F9380910A058F93809109058F93B1
:102A700083E391E09F938F93FEEDEF2EF1E0FF2E25
:102A8000FF92EF920E941B1869817A81A701C80109
:102A90000E94F8089A83898326E0F70111922A950B
:102AA000E9F745E752E0BC01C8010E94D7089A83C4
:102AB00089834DE652E0BC01C8010E94D7080FB6D9
:102AC000F894DEBF0FBECDBF0F900F90DF91CF9176
:102AD0001F910F91FF90EF9008950F93CF93DF9385
:102AE0000E94831048E552E0BC0188EE91E00E940C
:102AF000D70848E352E0BC0188EE91E00E94D70875
:102B00004BE252E0BC0188EE91E00E94D708EC0154
:102B10000AE02EE244E067E071E088EA91E00E947A
:102B2000421748EA51E0BE0188EE91E00E94F808A1
:102B30004EE052E0BC0188EE91E00E94D7084CEED6
:102B400051E0BC0188EE91E00E94D70843EE51E0CD
:102B5000BC0188EE91E00E94D70844ED51E0BC0131
:102B600088EE91E0DF91CF910F910C94D708CF932D
:102B7000DF93EC0145E050E0BC0187E391E00E9467
:102B8000D517892B91F488EE91E00E94DA11909389
:102B9000D3018093D2018091D8019091D9010196FF
:102BA0009093D9018093D8012FC045E050E0BE0139
:102BB0008DE391E00E94D517892B29F488EE91E0EE
:102BC0000E94F4131DC088818F3219F489818032EC
:102BD00051F146E050E0BE0186E491E00E94D51735
:102BE000892B19F40E9493100BC043E050E0BE0102
:102BF0008DE491E00E94D517892B41F40E946D1558
:102C00009093D3018093D2018AE010C044E050E059
:102C1000BE0181E591E00E94D517892B31F481E056
:102C200080939A0103C080E001C08FEFDF91CF91C4
:102C30000895CF93DF93F90150E0EC01A881BA2FFA
:102C4000BF7D01F1AA30F1F0511116C0B081AB1374
:102C500010C0A181AA2311F031960CC0DC0111969D
:102C600051E0EC0189818D3309F050E0F901CD018B
:102C700001C0F9010196E1CFDC01FB0150E04150B8
:102C800051090EC05130C1F380E011C09A3071F08B
:102C9000963261F0282F30E0241735073CF49193E9
:102CA0008E2F861B9D91292F2F7D81F71082DF911A
:102CB000CF91089590ED980F9A3070F09FE9980F9A
:102CC000963010F4875508959FEB980F963010F4C6
:102CD0008753089580E00895892F0895DF92EF9239
:102CE000FF920F931F93CF93DF93EC018C018881A8
:102CF0008823E1F08B32A1F0853299F47E0182E0E5
:102D0000E80EF11C89810E945A16D82E8A810E94F1
:102D10005A1690E1D99E90011124822BE70101C03F
:102D200080E2F80181938F012196E1CFF8011082B2
:102D3000DF91CF911F910F91FF90EF90DF90089559
:102D4000FB01982F9F70292F30E02A30310514F4B1
:102D5000905D01C0995A918382958F708A3010F4EA
:102D6000805D01C0895A808312820895AF92BF921C
:102D7000DF92EF92FF920F931F93CF93DF931F92F7
:102D8000CDB7DEB75B018C0185E2D82EF801219129
:102D90008F012223E9F0C50101967C01203249F020
:102DA000822F90E029830E94C1172981892B11F479
:102DB00005C02BE2F50120835701E8CFF501D08251
:102DC000B701822F0E94A016F3E0AF0EB11CDECF38
:102DD000F50110820F90DF91CF911F910F91FF901D
:102DE000EF90DF90BF90AF900895CF92DF92EF9277
:102DF000FF920F931F93CF93DF931F92CDB7DEB750
:102E00006C018B01FC01108211821282138240E05E
:102E100080E090E0F8015081511106C0F801108265
:102E2000433009F181E024C04430C0F7009741F4F9
:102E3000252F30E0205331092A30310508F4C8012C
:102E40005E3271F4F80110827601E40EF11C4983C0
:102E50000E94A317F701808349814F5F80E090E0D3
:102E60000F5F1F4FD7CF0E94A317F601838380E027
:102E70000F90DF91CF911F910F91FF90EF90DF9016
:102E8000CF9008958F929F92BF92CF92DF92EF9250
:102E9000FF920F931F93CF93DF931F92CDB7DEB7AF
:102EA0007C01C42EB62E4B01D12C10E0882D8B193D
:102EB0008C15A8F4F40181914F01A801B7016D0DA3
:102EC000711D90E029830E94E3172981F701ED0D20
:102ED000F11D8081D3948111F9CF2083E7CFDA945B
:102EE000F701ED0DF11D10820F90DF91CF911F9131
:102EF0000F91FF90EF90DF90CF90BF909F908F90B9
:102F00000895A1E21A2EAA1BBB1BFD010DC0AA1F2A
:102F1000BB1FEE1FFF1FA217B307E407F50720F042
:102F2000A21BB30BE40BF50B661F771F881F991FBD
:102F30001A9469F760957095809590959B01AC0106
:102F4000BD01CF010895FC0188279927E8942191BC
:102F50002032E9F3293010F02E30C8F32B3241F043
:102F60002D3239F4689404C00E94F917820F911D24
:102F7000219120532A30C0F31EF4909581959F4FE4
:102F80000895911106C080538A5010F0865C06C0E7
:102F9000089599278827089585FDFBCF80629111B8
:102FA000F8CF81568A51E0F70895FB01DC014150CA
:102FB000504030F08D910190801919F40020B9F73C
:102FC000881B990B08954532510520F4423010F0CA
:102FD0000C94EE17FB011082CB010895BB274A30F9
:102FE00031F4992322F4BDE2909581959F4F0C9482
:102FF00002187AE0979F902D879F802D910D1124C4
:103000000895BB27FB015527AA27880F991FAA1FE0
:10301000A41710F0A41B83955051B9F7A05DAA33F3
:1030200008F0A95DA193009779F7B111B1931192BE
:10303000CB010C94251AAEE0B0E0E1E2F8E10C948B
:10304000D31A0D891E8986E08C831A8309838FEF3A
:103050009FE79E838D83AE01475E5F4F6F89788DBA
:10306000CE0101960E943D18EF81F885E00FF11F17
:1030700010822E96E4E00C94EF1AACE0B0E0E3E4AA
:10308000F8E10C94C51A7C016B018A01FC011782DE
:103090001682838181FFBDC1CE0101964C01F701EB
:1030A0009381F60193FD859193FF81916F018823B0
:1030B00009F4ABC1853239F493FD859193FF819179
:1030C0006F01853229F4B70190E00E94351AE7CFED
:1030D000512C312C20E02032A0F48B3269F030F4F6
:1030E000803259F0833269F420612CC08D3239F07E
:1030F000803339F4216026C02260246023C0286018
:1031000021C027FD27C030ED380F3A3078F426FF74
:1031100006C0FAE05F9E300D1124532E13C08AE0E2
:10312000389E300D1124332E20620CC08E3221F4D3
:1031300026FD6BC1206406C08C3611F4206802C0E5
:10314000883641F4F60193FD859193FF81916F01DB
:103150008111C1CF982F9F7D9554933028F40C5F37
:103160001F4FFFE3F9830DC0833631F0833771F0D1
:10317000833509F05BC022C0F801808189830E5F2E
:103180001F4F44244394512C540115C03801F2E0E0
:103190006F0E711CF801A080B18026FF03C0652D61
:1031A00070E002C06FEF7FEFC5012C870E941A1AF2
:1031B0002C0183012C852F77222E17C03801F2E0D5
:1031C0006F0E711CF801A080B18026FF03C0652D31
:1031D00070E002C06FEF7FEFC5012C870E940F1ACD
:1031E0002C012C852068222E830123FC1BC0832DFB
:1031F00090E048165906B0F4B70180E290E00E94D2
:10320000351A3A94F4CFF50127FC859127FE819178
:103210005F01B70190E00E94351A31103A94F1E055
:103220004F1A51084114510471F7E5C0843611F06A
:10323000893639F5F80127FF07C0608171818281E5
:1032400093810C5F1F4F08C060817181882777FDD3
:103250008095982F0E5F1F4F2F76B22E97FF09C0D3
:1032600090958095709561957F4F8F4F9F4F206807
:10327000B22E2AE030E0A4010E94671AA82EA818F6
:1032800044C0853729F42F7EB22E2AE030E025C0D5
:10329000F22FF97FBF2E8F36C1F018F4883579F000
:1032A000B4C0803719F0883721F0AFC02F2F2061CC
:1032B000B22EB4FE0DC08B2D8460B82E09C024FF41
:1032C0000AC09F2F9660B92E06C028E030E005C0E6
:1032D00020E130E002C020E132E0F801B7FE07C093
:1032E00060817181828193810C5F1F4F06C0608174
:1032F000718180E090E00E5F1F4FA4010E94671A69
:10330000A82EA818FB2DFF77BF2EB6FE0BC02B2DC5
:103310002E7FA51450F4B4FE0AC0B2FC08C02B2DB9
:103320002E7E05C07A2C2B2D03C07A2C01C0752C63
:1033300024FF0DC0FE01EA0DF11D8081803311F4E0
:10334000297E09C022FF06C07394739404C0822FA3
:10335000867809F0739423FD13C020FF06C05A2C11
:10336000731418F4530C5718732C731468F4B701C2
:1033700080E290E02C870E94351A73942C85F5CF5B
:10338000731410F4371801C0312C24FF12C0B70198
:1033900080E390E02C870E94351A2C8522FF17C00D
:1033A00021FF03C088E590E002C088E790E0B70104
:1033B0000CC0822F867859F021FD02C080E201C046
:1033C0008BE227FD8DE2B70190E00E94351AA5142B
:1033D00038F4B70180E390E00E94351A5A94F7CF91
:1033E000AA94F401EA0DF11D8081B70190E00E94DA
:1033F000351AA110F5CF332009F451CEB70180E280
:1034000090E00E94351A3A94F6CFF70186819781B1
:1034100002C08FEF9FEF2C96E2E10C94E11AFC01C1
:103420000590615070400110D8F7809590958E0FEF
:103430009F1F0895FC016150704001900110D8F762
:10344000809590958E0F9F1F0895DC01FC01672FDA
:1034500071917723E1F7329704C07C916D9370836B
:103460006291AE17BF07C8F308950F931F93CF93D0
:10347000DF93182F092FEB018B8181FD03C08FEFA4
:103480009FEF20C082FF10C04E815F812C813D8163
:10349000421753077CF4E881F9819F012F5F3F4F6A
:1034A00039832883108306C0E885F985812F099523
:1034B000892B29F72E813F812F5F3F4F3F832E833A
:1034C000812F902FDF91CF911F910F910895FA01D5
:1034D000AA27283051F1203181F1E8946F936E7F53
:1034E0006E5F7F4F8F4F9F4FAF4FB1E03ED0B4E044
:1034F0003CD0670F781F891F9A1FA11D680F791F85
:103500008A1F911DA11D6A0F711D811D911DA11D95
:1035100020D009F468943F912AE0269F11243019A5
:10352000305D3193DEF6CF010895462F4770405D40
:103530004193B3E00FD0C9F7F6CF462F4F70405DEF
:103540004A3318F0495D31FD4052419302D0A9F74A
:10355000EACFB4E0A6959795879577956795BA9544
:10356000C9F700976105710508959B01AC010A2E0A
:1035700006945795479537952795BA95C9F7620FE1
:10358000731F841F951FA01D08952F923F924F9285
:103590005F926F927F928F929F92AF92BF92CF92E3
:1035A000DF92EF92FF920F931F93CF93DF93CDB7EC
:1035B000DEB7CA1BDB0B0FB6F894DEBF0FBECDBF64
:1035C00009942A88398848885F846E847D848C8435
:1035D0009B84AA84B984C884DF80EE80FD800C813E
:1035E0001B81AA81B981CE0FD11D0FB6F894DEBF21
:0C35F0000FBECDBFED010895F894FFCF91
:1035FC000A010001500A0086820411C0A80101C012
:10360C00A8016E54555810002932303000474554EB
:10361C002000433D25642C20523D25642C20463D42
:10362C00256400256C64002F666C7220002F61707D
:10363C0070666C7220002F74312E6A73002F6D200F
:06364C00002F723F200078
:00000001FF
