:100000000C94ED020C940A030C940A030C940A035A
:100010000C940A030C940A030C940A030C940A032C
:100020000C940A030C940A030C940A030C943A08E7
:100030000C940A030C940A030C94FD070C940A0315
:100040000C940A030C940A030C940A030C940A03FC
:100050000C940A030C940A030C940A030C940A03EC
:100060000C940A030C940A03485454502F312E3038
:100070002034303120556E617574686F72697A650D
:10008000640D0A436F6E74656E742D547970653A11
:1000900020746578742F68746D6C0D0A0D0A3C68C5
:1000A000313E34303120556E617574686F72697AF3
:1000B00065643C2F68313E003C68313E3230302070
:1000C0004F4B3C2F68313E003C2F7072653E3C62C6
:1000D000723E3C68723E546F6D61737A204B003CF7
:1000E0002F666F726D3E0A003C696E7075742074E5
:1000F0007970653D7375626D69742076616C7565A4
:100100003D2273656E64223E0A003C666F726D206C
:10011000616374696F6E3D2F72206D6574686F64E2
:100120003D6765743E0A006E747020736572766573
:10013000723A20003C68323E73656E64206E7470C3
:1001400020726571756573743C2F68323E3C707225
:10015000653E0A003C6120687265663D2F3E5B6823
:100160006F6D655D3C2F613E003C2F7072653E0AED
:1001700000415741524941004F4B00527572612076
:10018000507573746100527572612050656C6E61B8
:1001900000507261636100437A656B616D003C6879
:1001A000313E53544F444F4C413A0A3C2F68313E44
:1001B000003C68723E003C68313E3C2F68313E0096
:1001C000415741524941004F4B00527572612050D6
:1001D0007573746100527572612050656C6E6100B8
:1001E000507261636100437A656B616D000A003C87
:1001F00068313E4F424F52413A3C2F68313E003CFD
:100200002F693E0A0A3C2F666F6E743E003C666F93
:100210006E743E3C693E6E72206F64703A003C68BA
:10022000723E3C696D67207372633D6874747073CD
:100230003A2F2F6269742E6C792F325764597348A4
:10024000782077696474683D2232303022206865F6
:10025000696768743D22323030223E003C7072651E
:100260003E003C736372697074207372633D743135
:100270002E6A733E3C2F7363726970743E00293C92
:100280002F7363726970743E5D0020205B3C736362
:10029000726970743E74327328003C62723E3C682E
:1002A000723E546F6D61737A204B006E6F6E650005
:1002B000293C2F7363726970743E5D00205B3C7350
:1002C00063726970743E74327328000A0A54696D4F
:1002D0006520726563656976656420696E20554E98
:1002E0004958207365632073696E6365203139371F
:1002F000303A0A3C2F7072653E000A53756363659D
:10030000737366756C20616E73776572733A200043
:100310000A4E756D626572206F6620726571756533
:100320007374733A20006E6F00796573000A475743
:10033000206D6163206B6E6F776E3A20003C6832EF
:100340003E4E545020726573706F6E7365207374E7
:10035000617475733C2F68323E0A3C7072653E0AC8
:10036000003C736372697074207372633D74312E44
:100370006A733E3C2F7363726970743E003C612067
:10038000687265663D2F6D3E5B6E6577206E74709A
:100390002071756572795D3C2F613E20003C6120C3
:1003A000687265663D2F3E4F4B3C2F613E0066757F
:1003B0006E6374696F6E20743273286E297B0A76BF
:1003C00061722074203D206E657720446174652839
:1003D0006E2A31303030293B0A646F63756D656E6B
:1003E000742E777269746528742E746F4C6F636114
:1003F0006C65537472696E672829293B0A7D0A006F
:10040000485454502F312E3020323030204F4B0D75
:100410000A436F6E74656E742D547970653A20616D
:1004200070706C69636174696F6E2F782D6A617684
:10043000617363726970740D0A0D0A000A3C2F66BD
:100440006F6E743E003C666F6E7420636F6C6F72EB
:100450003D27677265656E272073697A653D27358C
:10046000273E003C666F6E7420636F6C6F723D2791
:10047000726564272073697A653D2735273E003C05
:10048000666F6E742073697A653D2735273E004894
:100490005454502F312E3020323030204F4B0D0A23
:1004A000436F6E74656E742D547970653A2074656F
:1004B00078742F68746D6C0D0A507261676D613AC3
:1004C000206E6F2D63616368650D0A0D0A000D0AC9
:1004D000436F6E74656E742D547970653A20617047
:1004E000706C69636174696F6E2F782D7777772DE3
:1004F000666F726D2D75726C656E636F6465640DE9
:100500000A0D0A00436F6E74656E742D4C656E673C
:1005100074683A20000D0A557365722D4167656E47
:10052000743A207467722F312E310D0A416363656E
:1005300070743A202A2F2A0D0A436F6E6E65637419
:10054000696F6E3A20636C6F73650D0A000D0A00C7
:1005500020485454502F312E310D0A486F73743A8D
:100560002000504F535420000D0A557365722D41E1
:1005700067656E743A207467722F312E300D0A4110
:1005800063636570743A20746578742F68746D6C59
:100590000D0A436F6E6E656374696F6E3A20636C0B
:1005A0006F73650D0A0D0A0020485454502F312EE8
:1005B000310D0A486F73743A20004745542000E318
:1005C0000004FA0001000000014500008200004024
:1005D0000020000108000604000111241FBECFEF17
:1005E000D8E0DEBFCDBF11E0A0E0B1E0E6E0FFE281
:1005F00002C005900D92AC33B107D9F725E0ACE30A
:10060000B1E001C01D92A734B207E1F70E94F606DF
:100610000C9481170C9400004FE854E060E070E007
:100620008AE491E00C94810D40E054E060E070E0D9
:100630008AE491E00C94810D0E9414034EEA53E089
:10064000BC018AE491E00C94810D0E940C034DE9F9
:1006500053E0BC018AE491E00C94810D4F925F92CB
:100660007F928F929F92AF92BF92CF92DF92EF9242
:10067000FF920F931F93CF93DF9300D0CDB7DEB7D8
:10068000C090CF04D090D004E090D104F090D20478
:100690000E940C034DE753E0BC018AE491E00E9404
:1006A000810D41E653E0BC018AE491E00E94810D96
:1006B0004DE353E0BC018AE491E00E94810D4DE2DC
:1006C00053E0BC018AE491E00E94810DBC01898362
:1006D0007A830E94E80F69817A81811103C049E21F
:1006E00053E002C046E253E08AE491E00E94810DAB
:1006F00040E153E0BC018AE491E00E94810D8C014D
:100700008091D5044AE064EE74E090E00E94731496
:1007100044EE54E0B8018AE491E00E94A20D4AEF51
:1007200052E0BC018AE491E00E94810D8C0180912D
:10073000D4044AE064EE74E090E00E94731444EE46
:1007400054E0B8018AE491E00E94A20D4BEC52E023
:10075000BC018AE491E00E94810D8C018091D40457
:10076000882309F440C01092E1048AE0782E9AE0D0
:10077000892E912CA12CB12CC114D104E104F104D7
:10078000A9F0772099F07A94472C512CC201895214
:100790009B4F2C01C701B601A50194010E940614CC
:1007A000605DF201608369017A01E6CFE72CF12CEC
:1007B000C70189529B4F7C01AC01B8018AE491E0EA
:1007C0000E94A20D4CEB52E0BC018AE491E00E9431
:1007D000810DA701BC018AE491E00E94A20D40EBCB
:1007E00052E0BC0103C04BEA52E0B8018AE491E058
:1007F0000E94810D4AE952E0BC018AE491E00F9029
:100800000F90DF91CF911F910F91FF90EF90DF90AC
:10081000CF90BF90AF909F908F907F905F904F90C0
:100820000C94810DBF92CF92DF92EF92FF920F93C3
:100830001F93CF93DF93EA011092E1042AE0B22ED6
:100840003AE0C32ED12CE12CF12C61157105810504
:10085000910589F0BB2079F0BA940B2D10E0095274
:100860001B4FA70196010E940614605DF80160838A
:10087000B901CA01EACF688179814AE852E08AE485
:1008800091E00E94810D998388834B2D50E049525D
:100890005B4FBC018AE491E00E94A20D998388839A
:1008A0004EE752E0BC018AE491E00E94810D9983F9
:1008B0008883DF91CF911F910F91FF90EF90DF9090
:1008C000CF90BF9008950F931F93CF93DF9300D0E5
:1008D000CDB7DEB78C010E940C039A83898342E670
:1008E00052E0BC01C8010E94810D9A8389834CE5C6
:1008F00052E0BC01C8010E94810D9A8389834EE1B8
:1009000052E0BC01C8010E94810D9A8389834DE0A9
:1009100052E0BC01C8010E94810D9A8389838091B5
:1009200036058F93809135058F9389E191E09F93F0
:100930008F938AE395E09F938F930E94A01469811F
:100940007A814AE355E0C8010E94A20D9A83898307
:100950004FEF51E0BC01C8010E94810D9A83898349
:100960004FEE51E0BC01C8010E94810D9A8389833A
:100970004DEE51E0BC01C8010E94810D9A8389832C
:100980004FE754E0BC01C8010E94810DBC019A836D
:1009900089830F900F900F900F900F900F90809180
:1009A0003405882329F0813051F440EE51E002C033
:1009B00046EE51E0C8010E94810D9A8389836091BF
:1009C0004601709147018091480190914901AE0123
:1009D0004F5F5F4F0E94120469817A814CE354E0BB
:1009E000C8010E94810D9A8389834FE754E0BC01BE
:1009F000C8010E94810DBC019A83898380913905C9
:100A0000882329F0813051F44AEC51E002C045EDD1
:100A100051E0C8010E94810D9A83898369817A819E
:100A20004CE354E0C8010E94810DBC019A83898384
:100A300080913805882361F08130C9F443E654E0A1
:100A4000C8010E94810D9A83898340EC51E009C05E
:100A500045E454E0C8010E94810D9A83898347ECE4
:100A600051E0BC01C8010E94810D9A83898369818C
:100A70007A814CE354E0C8010E94810D9A838983F6
:100A800046EB51E0BC01C8010E94810D9A83898325
:100A900041EB51E0BC01C8010E94810D9A8389831A
:100AA0004EE951E0BC01C8010E94810D9A838983FF
:100AB0004FE754E0BC01C8010E94810DBC019A833C
:100AC000898380913305882329F0813051F441E9ED
:100AD00051E002C047E951E0C8010E94810D9A83AC
:100AE000898360914201709143018091440190910A
:100AF0004501AE014F5F5F4F0E94120469817A8108
:100B00004CE354E0C8010E94810D9A8389834FE72A
:100B100054E0BC01C8010E94810DBC019A83898305
:100B200080914605882329F0813051F44BE751E04C
:100B300002C046E851E0C8010E94810D9A83898372
:100B400069817A814CE354E0C8010E94810DBC01A7
:100B50009A83898380914505882361F08130C9F4A7
:100B600043E654E0C8010E94810D9A83898341E7DE
:100B700051E009C045E454E0C8010E94810D9A8308
:100B8000898348E751E0BC01C8010E94810D9A8326
:100B9000898369817A814CE354E0C8010E94810D08
:100BA0009A83898349E651E0BC01C8010E94810D06
:100BB0000F900F90DF91CF911F910F9108950F9398
:100BC000CF93DF930E940C0344E551E0BC018AE41B
:100BD00091E00E94810D44E351E0BC018AE491E080
:100BE0000E94810D47E251E0BC018AE491E00E943D
:100BF000810DEC010AE02EE244E062E071E084EE57
:100C000094E00E94C71344EE54E0BE018AE491E0F0
:100C10000E94A20D4AE051E0BC018AE491E00E94EA
:100C2000810D48EE50E0BC018AE491E00E94810D04
:100C30004FED50E0BC018AE491E00E94810D48EC48
:100C400050E0BC018AE491E0DF91CF910F910C94C8
:100C5000810DCF93DF93EC0188818F3221F489815C
:100C6000803209F445C045E050E0BE018CE191E0DE
:100C70000E945A14892B91F48AE491E00E94630443
:100C80009093E3048093E2048091350590913605BA
:100C9000019690933605809335051BC046E050E0E1
:100CA000BE0182E291E00E945A14892B19F40E943D
:100CB0001C030BC043E050E0BE0189E291E00E94BA
:100CC0005A14892B41F40E94DF059093E30480932A
:100CD000E2048AE010C044E050E0BE018DE291E001
:100CE0000E945A14892B31F481E08093D30403C00D
:100CF00080E001C08FEFDF91CF9108950F931F9394
:100D00008091430581116FC000E010E021E435E0DF
:100D100048E069E270E081E491E00E94F30A809388
:100D2000390522E335E040E169E270E080E491E0DA
:100D30000E94F30A8093460527E335E040E269E22A
:100D400070E08FE391E00E94F30A8093340522E47F
:100D500035E040E469E270E08EE391E00E94F30A3E
:100D60008093330520E435E040E869E270E08DE3EC
:100D700091E00E94F30A8093380524E435E041E0D5
:100D800063E270E08CE391E00E94F30A80934505F2
:100D900080913405823081F48091CF049091D00409
:100DA000A091D104B091D204809346019093470161
:100DB000A0934801B093490180913305823081F4BA
:100DC0008091CF049091D004A091D104B091D2042D
:100DD0008093420190934301A0934401B093450155
:100DE00084E6809343051F910F91089580E88093D6
:100DF00061001092610080E08A95F1F78EE091E049
:100E00000E94470982E00E94420980E08A95F1F73A
:100E100066E774E084E10E941E0941E753E06AE05E
:100E200071E08EE091E00E94DB0B86E091E00E9491
:100E300012100E94E50A0E94C20A83E294EF019711
:100E4000F1F700C000000E94D60A44989FE121EA11
:100E500087E0915020408040E1F700C00000449AB4
:100E6000789429E288E190E00FB6F894A8958093F1
:100E700060000FBE20936000FF24F394C8EFD5E21A
:100E8000A8950E947E068091000190910101892B16
:100E900031F4F092D304D0930101C09300016AE4CD
:100EA00071E084E893E00E94460A6C01BC018AE488
:100EB00091E00E940F118C019093E3048093E2046F
:100EC0000097E9F144E050E0BC01665B7E4F82E3AD
:100ED00091E00E945A14892B51F00E940C039093C8
:100EE000E3048093E20448EB50E0BC010BC0C8016E
:100EF000825B9E4F0E9429068F3F49F448E650E0EE
:100F000060E070E08AE491E00E94810D09C08130C8
:100F100019F40E94250304C08A3031F00E942E0388
:100F20009093E3048093E20444986091E20470910A
:100F3000E3048AE491E00E94C90E449AA1CFB6016D
:100F40008AE491E00E941B0C81111CC08091D304A3
:100F5000882309F495CF0E94E80F811191CF409129
:100F6000D6044F5F4093D6041092D30462E071E040
:100F70008AE491E00E94EE0E8091D5048F5F809309
:100F8000D5047ECF80916101813109F079CF8091C4
:100F90006C01811175CF80916D018B3709F070CF95
:100FA0004091D6046FEC74E08AE491E00E94610FF6
:100FB000882309F465CF8091CF049091D004A0914B
:100FC000D104B091D2048091CF049091D004A0912B
:100FD000D104B091D20480589E47AA4AB348809366
:100FE000CF049093D004A093D104B093D204809105
:100FF000D4048F5F8093D40443CF1F920F920FB617
:101000000F9211248F9380914305882319F081500A
:101010008093430580914105882319F08150809386
:10102000410580913205882319F081508093320563
:1010300080913705882319F081508093370580917E
:101040004205882319F08150809342058091400524
:10105000882319F0815080934005809144058823AE
:1010600019F08150809344058F910F900FBE0F901F
:101070001F9018951F920F920FB60F9211248F9305
:101080009F93AF93BF9388B190E1892788B98091EE
:10109000CF049091D004A091D104B091D2040196D4
:1010A000A11DB11D8093CF049093D004A093D104CF
:1010B000B093D2048091000190910101892B49F0F5
:1010C000809100019091010101979093010180931B
:1010D0000001BF91AF919F918F910F900FBE0F9024
:1010E0001F9018952A98962F9F71982B9EBD0DB42E
:1010F00007FEFDCF1EBC0DB407FEFDCF67FD03C08C
:101100002A9A8EB508951EBC0DB407FEFDCFF8CF08
:101110002A986F71682B6EBD0DB407FEFDCF4EBDD2
:101120000DB407FEFDCF2A9A0895FB012A982AE301
:101130002EBD0DB407FEFDCF8E0F9F1FE817F907D8
:1011400039F01EBC0DB407FEFDCF2EB52193F6CFAE
:1011500010822A9A08952A982AE72EBD0DB407FE18
:10116000FDCF860F971F6817790741F0FB0121918A
:10117000BF012EBD0DB407FEFDCFF5CF2A9A08950D
:101180001F93CF93DF93182F1076C12FD0E02091BB
:10119000FB0430E0C217D30789F043E06FE180EA37
:1011A0000E948808AE0185E0559547958A95E1F73C
:1011B0006FE180E80E9488081093FB04DF91CF91D3
:1011C0001F910895CF93DF931F92CDB7DEB7682F9D
:1011D00069830E94C008698180E00F90DF91CF9100
:1011E0000C9472081F93CF93DF931F92CDB7DEB795
:1011F000182F69830E94C0084981612F80E40F90F5
:10120000DF91CF911F910C948808682F84ED0E9484
:10121000F20861E082ED0E94F20888E28A95F1F717
:101220008AEE0E94E20880FDFBCF60E082ED0E9422
:10123000F20889ED0E94E20890E008951F93CF9391
:10124000DF931F92CDB7DEB7162F682F84ED798319
:101250000E94F208612F86ED0E94F2087981672FC3
:1012600087ED0E94F20818E28AEE0E94E20880FFF1
:1012700004C0812F8A95F1F7F7CF0F90DF91CF91BE
:101280001F910895682F677085E70C94F208CF933B
:10129000DF93EC01229A2A9A84B1886284B9249A55
:1012A0002B9A2D9A80E58CBD8DB581608DBD4FEF59
:1012B00060E08FEF0E94880880E090E00197F1F7EE
:1012C0001092FA041092F90460E088E00E94F2089B
:1012D00060E089E00E94F20860E08CE00E94F20881
:1012E00060E08DE00E94F2086FEF8AE00E94F20851
:1012F00069E18BE00E94F20860E084E00E94F2085D
:101300006AE185E00E94F2086FEF86E00E94F20831
:101310006FE187E00E94F20860EB88E30E94F20828
:101320006FE388E20E94F20860E389E20E94F2081B
:1013300069EF80E30E94F20867EF81E30E94F20800
:101340006DE080EC0E94F20860E081EC0E94F208FF
:1013500042E362EC80E80E94880862E186EC0E9429
:10136000F2086CE087EC0E94F20862E184EC0E94D3
:10137000F2086CED8AEC0E94F20865E08BEC0E94AA
:10138000F208688184EE0E94F208698185EE0E946D
:10139000F2086A8182EE0E94F2086B8183EE0E945D
:1013A000F2086C8180EE0E94F2086D8181EE0E944D
:1013B000F20860E071E080E10E941E098FE10E9466
:1013C000C00840EC6BE180E80E94880844E06FE1CF
:1013D00080E8DF91CF910C94880882E70E94E208B0
:1013E000863008F08F5F089581E10E94050921E0B1
:1013F000892B09F420E0822F08950F931F93CF9338
:10140000DF93EC018B016FE180E00E94720883FFA3
:1014100010C08CE10E94E20881FFF5CF40E86FE147
:1014200080E80E94880840E86FE180EA0E9488080E
:10143000EACF60E082E00E94F2086AE183E00E9465
:10144000F2086C2F86E00E94F208CE01965E692FAA
:1014500087E00E94F20840E060E08AE70E94880886
:10146000B801CE010E94AB0848E06FE180E8DF914F
:10147000CF911F910F910C94880889E30E94E20894
:1014800091E0811101C090E0892F08959F92AF9261
:10149000BF92CF92DF92EF92FF920F931F93CF9361
:1014A000DF937C016B0189E30E94E208882309F441
:1014B0005BC06091F904C091FA0480E00E94F208D8
:1014C0006C2F81E00E94F20860E08AE30E947208BB
:1014D000082F60E08AE30E94720810E0182B109336
:1014E000FA040093F90460E08AE30E947208C82FAE
:1014F00060E08AE30E947208982E60E08AE30E940E
:101500007208A82E60E08AE30E947208A7FE0FC04E
:10151000970121503109D0E0D92924972C173D0794
:1015200008F4E901B601CE010E94950802C0C0E0AE
:10153000D0E06FEF01308AE118072CF08CE00E94B8
:10154000F20869E107C0600F8CE00E94F2080150C8
:101550001109612F8DE00E94F20840E46EE180E8FD
:101560000E948808CE0102C080E090E0DF91CF9118
:101570001F910F91FF90EF90DF90CF90BF90AF90B1
:101580009F900895E1E8F0E0808188608083808109
:1015900085608083EFE6F0E08081826080838EEA60
:1015A0009FE29093890080938800089553985B9AF6
:1015B00054985C9A55985D9A56985E9A57985F9A97
:1015C0002098289A3C9A449A089584B5826084BDF4
:1015D00085B5856085BDEEE6F0E080818260808320
:1015E00089E787BD08950F931F93CF93DF93EC0195
:1015F000D901FB012081242391E08881222311F06D
:1016000090E004C0811102C098830BC0882331F19F
:101610009923D1F0813041F48C9181111FC082E077
:1016200088838EE18C931AC0823039F48C918111B9
:1016300015C083E0888382E012C0833079F49C91E6
:1016400081E0992361F00AC0823040F00115110554
:1016500011F0F8010995188283E001C080E0DF9164
:10166000CF911F910F910895EF92FF920F931F93C7
:10167000CF93DF93890190912405891751F0E09170
:101680002105F091220540E050E060E070E084E048
:101690002BC061112AC02D30310538F1C0912105D0
:1016A000D0912205209709F1E0901505F0901605DC
:1016B000BA01675F7F4F6E0D7F1D43E050E087E307
:1016C00091E00E945A14F70166A562956F70F4E0EC
:1016D0006F9FB00111246E5D7F4FA801892B11F41B
:1016E00080E001C081E0FE01099580E0DF91CF91AB
:1016F0001F910F91FF90EF900895FF920F931F930A
:10170000CF93DF93FB01413051F4AB0148505109B5
:1017100060E070E04F5E5F4F6F4F7F4F0FC0423011
:1017200051F4AB014850510960E070E04A5F5F4FEF
:101730006F4F7F4F03C040E050E0BA01EF01DC0182
:10174000C230D10598F00C9110E020E030E0322F4B
:10175000212F102F00271196FC9011970F29400F71
:10176000511F621F731F12962297EACFDF01AE7FCF
:10177000A80FB91FE0FF0CC08C9190E0A0E0B0E092
:10178000BA2FA92F982F8827480F591F6A1F7B1F30
:10179000CB01AA27BB270097A105B10519F0662741
:1017A0007727F2CFCA0180959095DF91CF911F9155
:1017B0000F91FF9008955093310540931801FB015C
:1017C000AEEFB4E021912D9325E0A230B207D1F71E
:1017D000FC01A2E0B5E081918D9385E0A830B807C7
:1017E000D1F70895DC015A96FB0180E02D9191918B
:1017F000291305C08F5F8430C9F781E0089580E028
:10180000089569327105A8F0FC012485283089F417
:101810002585263071F4DC019696EEEFF4E09D917B
:101820008191981306C085E0E230F807C1F781E0A6
:10183000089580E00895FC016A327105B0F0848556
:10184000883099F48585811110C08685853469F4C6
:101850007E96AEEFB4E091918D91981306C085E02D
:10186000A230B807C1F781E0089580E00895CF93D2
:10187000DF93E2E0F5E0DC0116962C91EC01299370
:10188000CE0121912D93D5E0E830FD07B1F7DF912E
:10189000CF910895CF93DF93EC01188E198E80E4D9
:1018A0008C8B1D8A8E8B40E064E170E0CE010E9639
:1018B0000E947D0B988F898FDF91CF910895CF93F0
:1018C000DF93EC016E96EEEFF4E0DC015A962C917A
:1018D000299321912D9325E0E230F207C1F7DF91A2
:1018E000CF910C944A0CFC01BA96DC019E96869628
:1018F0002291620F711D2E916C93442311F020836D
:1019000001C01082672F7727E817F90789F7089534
:10191000CF93DF93EC018CA19AA19CA38AA38DA104
:101920009BA19DA38BA3CE010E94730C1AAA1BAA94
:1019300080E58EA7DF91CF910895CF93DF93EC01DF
:101940000E94370C1C8A82E08D8BCE01809642E08B
:1019500055E0DE0156962C91FC012193CF01FA014E
:101960002191AF012D93F5E048305F07A1F7CE013B
:1019700086964EEF54E0DE015C962C91FC0121939B
:10198000CF01FA012191AF012D93F5E042305F07BD
:10199000A1F7BE018AE290E0DF91CF910C94FD099E
:1019A0000F931F93CF93DF93EC018B010E94370CB1
:1019B000CE010E945F0C1AA29CA1983F18F08DA145
:1019C0008F5F8DA3985F9CA3BE01C801DF91CF916B
:1019D0001F910F910C94FD09DF92EF92FF920F93EC
:1019E0001F93CF93DF93EC01162FF72E042FE22ED7
:1019F000D32E0E94370C0D3D08F00CED188A8CE1B7
:101A0000800F898BCE010E945F0C8AA18CA38BA1D1
:101A10008DA3DAA2EBA21EA288E0800F8FA318A6E6
:101A200019A6912FDE019A96E12FFF2D8E2F891B8B
:101A3000801718F481918D93F9CF10E0B801605FA1
:101A40007F4F41E0CE014A960E947D0B98A789A75F
:101A5000BE01C8018A96DF91CF911F910F91FF902F
:101A6000EF90DF900C94FD09CF93DF93EC010E947F
:101A7000370C188A8CE2898BCE010E945F0C82E1C0
:101A80008FA740E061E070E0CE010E94880C1EA2AA
:101A90001FA28091140188A719A68D5F809314015D
:101AA00082E08EAB84E08FAB85E088AF19AE90E624
:101AB0009EA788AB88E789AB42E060E270E0CE0188
:101AC0004A960E947D0B9AAB8BABBE018AE390E0F5
:101AD000DF91CF910C94FD09FC01808990E0982F53
:101AE00088272189822B449726A522952F7034E0E0
:101AF000239F80199109112497FF02C080E090E094
:101B000008959C01CB01461B570BFA01E80FF91F02
:101B1000E491EE2339F0D901A80FB91FD696EC93C2
:101B20000196F3CF0895DB01D696A80FB91FFA01ED
:101B3000420F4E1719F081918D93FBCFCB01820F8D
:101B4000911D0895FA0101900020E9F79F012150AD
:101B50003109241B350B0C94930DEF92FF920F93D8
:101B60001F93CF93DF9300D000D01F92CDB7DEB785
:101B70009091240589139CC080912305009115053F
:101B80001091160581112CC04AEB55E060E070E021
:101B9000C8010E94810D40911B0550911C05BC019C
:101BA000C8010E94810D4091190550911A05BC0190
:101BB000C8010E94A20D48EA55E0BC01C8010E947C
:101BC000810D4091170550911805BC01C8010E9474
:101BD000810D48E655E0BC01C8010E94810D6AC034
:101BE00042E655E060E070E0C8010E94810D40913E
:101BF0001B0550911C05BC01C8010E94810D40E5E8
:101C000055E0BC01C8010E94810D4091170550911B
:101C10001805BC01C8010E94810DE0901F05F090DD
:101C20002005E114F10459F04DE455E0BC01C80170
:101C30000E94810DA701BC01C8010E94810D45E1F0
:101C400055E0BC01C8010E94810D44E055E0BC0193
:101C5000C8010E94810D7C01A0911D05B0911E0557
:101C6000FD0101900020E9F731974AE0BE016F5F66
:101C70007F4FCF018A1B9B0B0E94731400911505A7
:101C800010911605AE014F5F5F4FB701C8010E946A
:101C9000A20D4EEC54E0BC01C8010E94810D4091A0
:101CA0001D0550911E05BC01C8010E94A20D02C075
:101CB00080E090E00F900F900F900F900F90DF91C9
:101CC000CF911F910F91FF90EF9008950F931F9365
:101CD000CF93DF9300D01F92CDB7DEB78C014B833B
:101CE00069837A830E94370C4B81842F8061F801CD
:101CF00087A769817A81443029F06115710511F453
:101D000061E070E041E0C8010E94880CF801108A8F
:101D100088E2818BC8010E945F0C84E0F80180ABEF
:101D200011AA42E06CE170E0C8014A960E947D0B66
:101D3000F80192AB83ABB80186E390E00F900F906F
:101D40000F90DF91CF911F910F910C94FD090F938C
:101D50001F93CF93DF93EC018B01CB018896988B77
:101D6000898BCE010E944A0C1AAA1BAAB801645E94
:101D70007F4F42E0CE014A960E947D0B9AAB8BAB1F
:101D8000BE01C801C696DF91CF911F910F910C94AF
:101D9000FD090F931F93CF93DF93EC018B016091AB
:101DA000FC047091FD0440E00E94660E89E18FA75B
:101DB000B801CE01DF91CF911F910F910C94A70E26
:101DC000640F751F4617570741F0FA012491FC0173
:101DD0002193CF014F5F5F4FF5CF0895FF920F938F
:101DE0001F93CF93DF93EC01F62E072F142FE9E01A
:101DF000F5E09C0182E095E0BE016A5F7F4F419172
:101E0000D9014D939D01DC014D91CD01DB014D9335
:101E1000BD01B5E0EF30FB0791F788E08C871D86A8
:101E200049EC55E069E070E0CE010E960E94E00EAC
:101E30008CE4898B81E18F8B6F2D702FCE014E96B4
:101E4000AEEFB4E0FB012191BF01FC012193CF0172
:101E50004D919F0125503109F9014083F5E0A230F1
:101E6000BF0781F7CE010E944A0C1CA28BE78DA30D
:101E70008AE08AA31BA31EA288E38FA318A619A633
:101E8000CE018A96FC0120E011922F5F2033E1F70A
:101E90004FEB55E06AE070E00E94E00E41E060E444
:101EA00070E0CE014A960E947D0B98A789A7BE01DB
:101EB0008AE590E0DF91CF911F910F91FF900C94F4
:101EC000FD09CF93DF93FC01DB01442319F085A1C9
:101ED000841324C086A1811121C087A18833F1F425
:101EE00083A18B37D9F4EF01CE5ADF4F8881219639
:101EF000488150E060E070E0BA0155274427782B14
:101F000022968881482BEC5AFF4F8081582B4D93A5
:101F10005D936D937C93139781E001C080E0DF9126
:101F2000CF9108950F931F93CF93DF93EC018B0113
:101F3000AE014A5F5F4FE2E0F5E03FEFDC013D9329
:101F4000CD012191DA012D93AD01B5E0E830FB0719
:101F5000A9F788E08C8786E08D8742ED55E068E040
:101F600070E0CE010E960E94E00EDE01909642E0F7
:101F700055E0FA012191AF01CD010A97FC012083C0
:101F80001D92F5E048305F07A1F7B801CE018696B3
:101F9000AEEFB4E0FB012191BF01FC012193CF0121
:101FA0004D919F012B503109F9014083F5E0A2309A
:101FB000BF0781F780910805886080930805BE01FE
:101FC0008AE290E0DF91CF911F910F910C94FD096F
:101FD000809108058695817091E089270895DC013C
:101FE0005C96EFE0F5E03D91219132130FC025E0C2
:101FF000E331F207C1F7DC015696E9E0F5E08D9197
:10200000819385E0EF30F807D1F702C080E00895B2
:1020100081E008958091080581FF03C0846080936A
:102020000805089521E020930805EFE0F5E0DC01C4
:102030002D91CD012193B5E0E331FB07C1F7089560
:10204000ECE2F5E0DC012D91CD012193B5E0E03328
:10205000FB07C1F70895DF92EF92FF920F931F9352
:10206000CF93DF93EC01F62EE42ED22EE9E0F5E0DB
:102070008C0182E095E0AE014A5F5F4F2191D8016B
:102080002D938D01DC012D91CD01DA012D93AD0150
:10209000B5E0EF30FB0791F788E08C871D8649ECAF
:1020A00055E069E070E0CE010E960E94E00E8CE2F1
:1020B000898B86E08F8B6CE275E0DE015E968EEF99
:1020C00094E0FB012191BF012D93FC014191CF01CF
:1020D0009D0125503109F9014083F5E060337F0708
:1020E00081F7CE010E944A0CECA2DDA28BE08AA30C
:1020F000FBA2FE01B69688E011928150E9F780912B
:10210000140188A78D5F8093140180E68EA782E07A
:102110008FA793E098AB19AA1AAA1BAA1CAA1DAAFA
:102120008EAB94E09FAB88AF86E289AF42E060E27D
:1021300070E0CE014A960E947D0B9AAB8BABBE013C
:102140008AE390E0DF91CF911F910F91FF90EF9084
:10215000DF900C94FD0990932805809327057093D8
:1021600026056093250550932A054093290581E0B3
:1021700080932B05809130058F5F883018F4809311
:10218000300502C01092300580913005089590937B
:102190001C0580931B0570931A05609319055093D5
:1021A00018054093170510922305309322052093BC
:1021B000210540E550E06DEA7DE084E39BE00E946C
:1021C000AB108093240508950F931F9390931C05E3
:1021D00080931B0570931805609317055093200595
:1021E00040931F0530931E0520931D0581E08093C9
:1021F0002305109322050093210540E550E06DEA88
:102200007DE084E39BE00E94AB10809324051F9146
:102210000F91089590931405809313050895CF921C
:10222000DF92EF92FF920F931F93CF93DF931F9252
:10223000CDB7DEB76C018B0161157105E9F58091B1
:102240000805857079F08091150190911601892B10
:1022500049F40E94F409882329F06FE075E0C60173
:102260000E94920F80911501909116010196909312
:1022700016018093150180912B05813009F04BC127
:102280008091080581FF47C182E080932B05609112
:1022900017016F5F609317016F718091300520E225
:1022A000829FC0011124682B2091290540912A05A5
:1022B000C6010E942B102FC10E94010C8823D1F06F
:1022C000D60155968C91813019F4C6010E949D0C5F
:1022D0008091080583FF1FC1F6011589123009F0AE
:1022E0001AC1C6010E94EF0F882309F414C110938C
:1022F000080511C1B801C6010E941B0C882309F40E
:102300000AC1D60157968C915797813099F49296CD
:102310008C91883009F004C1E0911305F091140507
:10232000309719F0C6014A960995B801C6010E9476
:10233000D00CF1C00633110518F4863009F0EBC05B
:10234000F60184A18B3009F0B3C0D0921605C0927B
:1023500015056CE275E0C6010E94F20B882309F4B2
:10236000DAC0D6019F962C919F9722FF13C0E0916F
:102370002705F0912805309709F490C095968C9127
:1023800020E030E040E050E063E082958695877081
:10239000099584C0C60129830E946C0D7C0180913F
:1023A0002B052981823099F5822F8071227122318B
:1023B00009F540E060E070E0C6010E94660E88E129
:1023C000F60187A7E0912505F0912605309741F0A9
:1023D000D60193968C91829586958770099502C057
:1023E00080E090E023E020932B05BC01C6010E9411
:1023F000A70E91C091E090932B05811104C0B70105
:102400006F5F7F4F02C060E070E044E071C08330D6
:10241000A9F5E114F10491F184E080932B05E0919A
:102420002705F0912805309749F1D6019E964C91E9
:1024300042954F70B4E04B9FA0011124C80108974A
:102440004E5D5F4F8417950708F4AC01C701840FF8
:10245000951F0817190720F49801241B350B01C09C
:102460009701D60195968C9160E08295869587704C
:102470000995882319F049E0B7010DC080912B051B
:10248000853009F448C0F60187A580FF0BC0B7016D
:102490006F5F7F4F49E0C6010E94660E85E0809322
:1024A0002B0539C0E114F104B1F140E0B70120C0BF
:1024B0009091310589132FC095A18091180198132F
:1024C0002AC0F7A4F1FE04C0C6010E94340D23C047
:1024D000F4FE21C0C6010E946C0D9093FD04809310
:1024E000FC04892B49F4F0FE16C040E060E070E087
:1024F000C6010E94660E0FC0F60126A522952F7018
:10250000F4E02F9F900111242E5D3F4F08501109D8
:102510000217130718F480E090E006C0C90104C058
:1025200006331105C0F30CCF0F90DF91CF911F91AF
:102530000F91FF90EF90DF90CF900895CF93DF93AE
:10254000F90150E0EC01A881BA2FBF7D01F1AA305A
:10255000F1F0511116C0B081AB1310C0A181AA23B4
:1025600011F031960CC0DC01119651E0EC0189812B
:102570008D3309F050E0F901CD0101C0F901019658
:10258000E1CFDC01FB0150E0415051090EC0513058
:10259000C1F380E011C09A3071F0963261F0282FBB
:1025A00030E0241735073CF491938E2F861B9D91C4
:1025B000292F2F7D81F71082DF91CF91089590ED23
:1025C000980F9A3070F09FE9980F963010F4875565
:1025D00008959FEB980F963010F48753089580E08C
:1025E0000895892F0895DF92EF92FF920F931F9322
:1025F000CF93DF93EC018C0188818823E1F08B324B
:10260000A1F0853299F47E0182E0E80EF11C898107
:102610000E94DF12D82E8A810E94DF1290E1D99E9B
:1026200090011124822BE70101C080E2F80181931F
:102630008F012196E1CFF8011082DF91CF911F9198
:102640000F91FF90EF90DF900895FB01982F9F70FE
:10265000292F30E02A30310514F4905D01C0995AD9
:10266000918382958F708A3010F4805D01C0895A01
:10267000808312820895AF92BF92DF92EF92FF9211
:102680000F931F93CF93DF931F92CDB7DEB75B01FC
:102690008C0185E2D82EF80121918F012223E9F0E7
:1026A000C50101967C01203249F0822F90E02983F8
:1026B0000E9446142981892B11F405C02BE2F501F3
:1026C00020835701E8CFF501D082B701822F0E9405
:1026D0002513F3E0AF0EB11CDECFF50110820F9091
:1026E000DF91CF911F910F91FF90EF90DF90BF90FE
:1026F000AF900895CF92DF92EF92FF920F931F93C6
:10270000CF93DF931F92CDB7DEB76C018B01FC0135
:10271000108211821282138240E080E090E0F80182
:102720005081511106C0F8011082433009F181E057
:1027300024C04430C0F7009741F4252F30E02053E7
:1027400031092A30310508F4C8015E3271F4F8010C
:1027500010827601E40EF11C49830E942814F701CF
:10276000808349814F5F80E090E00F5F1F4FD7CF9C
:102770000E942814F601838380E00F90DF91CF91AF
:102780001F910F91FF90EF90DF90CF9008958F925F
:102790009F92BF92CF92DF92EF92FF920F931F937F
:1027A000CF93DF931F92CDB7DEB77C01C42EB62E38
:1027B0004B01D12C10E0882D8B198C15A8F4F40155
:1027C00081914F01A801B7016D0D711D90E0298322
:1027D0000E9468142981F701ED0DF11D8081D394C9
:1027E0008111F9CF2083E7CFDA94F701ED0DF11DC8
:1027F00010820F90DF91CF911F910F91FF90EF907A
:10280000DF90CF90BF909F908F900895A1E21A2EF5
:10281000AA1BBB1BFD010DC0AA1FBB1FEE1FFF1F84
:10282000A217B307E407F50720F0A21BB30BE40BD4
:10283000F50B661F771F881F991F1A9469F760951B
:102840007095809590959B01AC01BD01CF010895D5
:10285000FC0188279927E89421912032E9F3293057
:1028600010F02E30C8F32B3241F02D3239F4689439
:1028700004C00E947E14820F911D219120532A30A2
:10288000C0F31EF4909581959F4F0895911106C055
:1028900080538A5010F0865C06C0089599278827D7
:1028A000089585FDFBCF80629111F8CF81568A5142
:1028B000E0F70895FB01DC014150504030F08D916C
:1028C0000190801919F40020B9F7881B990B08951D
:1028D0004532510520F4423010F00C947314FB0182
:1028E0001082CB010895BB274A3031F4992322F49A
:1028F000BDE2909581959F4F0C9487147AE0979F45
:10290000902D879F802D910D11240895BB27FB01E9
:102910005527AA27880F991FAA1FA41710F0A41BD8
:1029200083955051B9F7A05DAA3308F0A95DA19332
:10293000009779F7B111B1931192CB010C94AA16BB
:10294000AEE0B0E0E6EAF4E10C9458170D891E8978
:1029500086E08C831A8309838FEF9FE79E838D83A4
:10296000AE01475E5F4F6F89788DCE0101960E9460
:10297000C214EF81F885E00FF11F10822E96E4E07B
:102980000C947417ACE0B0E0E8ECF4E10C944A1756
:102990007C016B018A01FC0117821682838181FF11
:1029A000BDC1CE0101964C01F7019381F60193FD63
:1029B000859193FF81916F01882309F4ABC1853222
:1029C00039F493FD859193FF81916F01853229F44C
:1029D000B70190E00E94BA16E7CF512C312C20E0CD
:1029E0002032A0F48B3269F030F4803259F0833217
:1029F00069F420612CC08D3239F0803339F42160C4
:102A000026C02260246023C0286021C027FD27C083
:102A100030ED380F3A3078F426FF06C0FAE05F9EBA
:102A2000300D1124532E13C08AE0389E300D11242E
:102A3000332E20620CC08E3221F426FD6BC120643F
:102A400006C08C3611F4206802C0883641F4F601C5
:102A500093FD859193FF81916F018111C1CF982FD3
:102A60009F7D9554933028F40C5F1F4FFFE3F9834B
:102A70000DC0833631F0833771F0833509F05BC0C8
:102A800022C0F801808189830E5F1F4F4424439444
:102A9000512C540115C03801F2E06F0E711CF80181
:102AA000A080B18026FF03C0652D70E002C06FEFEB
:102AB0007FEFC5012C870E949F162C0183012C8576
:102AC0002F77222E17C03801F2E06F0E711CF8012B
:102AD000A080B18026FF03C0652D70E002C06FEFBB
:102AE0007FEFC5012C870E9494162C012C8520684D
:102AF000222E830123FC1BC0832D90E0481659062B
:102B0000B0F4B70180E290E00E94BA163A94F4CF94
:102B1000F50127FC859127FE81915F01B70190E0C7
:102B20000E94BA1631103A94F1E04F1A510841143C
:102B3000510471F7E5C0843611F0893639F5F80192
:102B400027FF07C060817181828193810C5F1F4FD5
:102B500008C060817181882777FD8095982F0E5F6E
:102B60001F4F2F76B22E97FF09C0909580957095D4
:102B700061957F4F8F4F9F4F2068B22E2AE030E043
:102B8000A4010E94EC16A82EA81844C0853729F489
:102B90002F7EB22E2AE030E025C0F22FF97FBF2E23
:102BA0008F36C1F018F4883579F0B4C0803719F049
:102BB000883721F0AFC02F2F2061B22EB4FE0DC098
:102BC0008B2D8460B82E09C024FF0AC09F2F966009
:102BD000B92E06C028E030E005C020E130E002C098
:102BE00020E132E0F801B7FE07C060817181828187
:102BF00093810C5F1F4F06C06081718180E090E07F
:102C00000E5F1F4FA4010E94EC16A82EA818FB2DE2
:102C1000FF77BF2EB6FE0BC02B2D2E7FA51450F4D0
:102C2000B4FE0AC0B2FC08C02B2D2E7E05C07A2C43
:102C30002B2D03C07A2C01C0752C24FF0DC0FE0182
:102C4000EA0DF11D8081803311F4297E09C022FF35
:102C500006C07394739404C0822F867809F073942D
:102C600023FD13C020FF06C05A2C731418F4530C14
:102C70005718732C731468F4B70180E290E02C8726
:102C80000E94BA1673942C85F5CF731410F437187C
:102C900001C0312C24FF12C0B70180E390E02C87E3
:102CA0000E94BA162C8522FF17C021FF03C088E5B9
:102CB00090E002C088E790E0B7010CC0822F8678D0
:102CC00059F021FD02C080E201C08BE227FD8DE2B8
:102CD000B70190E00E94BA16A51438F4B70180E35A
:102CE00090E00E94BA165A94F7CFAA94F401EA0D24
:102CF000F11D8081B70190E00E94BA16A110F5CFB6
:102D0000332009F451CEB70180E290E00E94BA1658
:102D10003A94F6CFF7018681978102C08FEF9FEF3B
:102D20002C96E2E10C946617FC010590615070400E
:102D30000110D8F7809590958E0F9F1F0895FC0184
:102D40006150704001900110D8F7809590958E0FDA
:102D50009F1F0895DC01FC01672F71917723E1F734
:102D6000329704C07C916D9370836291AE17BF0758
:102D7000C8F308950F931F93CF93DF93182F092F54
:102D8000EB018B8181FD03C08FEF9FEF20C082FF9D
:102D900010C04E815F812C813D81421753077CF426
:102DA000E881F9819F012F5F3F4F3983288310838A
:102DB00006C0E885F985812F0995892B29F72E8191
:102DC0003F812F5F3F4F3F832E83812F902FDF91D5
:102DD000CF911F910F910895FA01AA27283051F140
:102DE000203181F1E8946F936E7F6E5F7F4F8F4F3C
:102DF0009F4FAF4FB1E03ED0B4E03CD0670F781F9B
:102E0000891F9A1FA11D680F791F8A1F911DA11D7F
:102E10006A0F711D811D911DA11D20D009F46894B8
:102E20003F912AE0269F11243019305D3193DEF660
:102E3000CF010895462F4770405D4193B3E00FD016
:102E4000C9F7F6CF462F4F70405D4A3318F0495D01
:102E500031FD4052419302D0A9F7EACFB4E0A695E4
:102E60009795879577956795BA95C9F70097610506
:102E7000710508959B01AC010A2E0694579547955C
:102E800037952795BA95C9F7620F731F841F951F51
:102E9000A01D08952F923F924F925F926F927F9262
:102EA0008F929F92AF92BF92CF92DF92EF92FF925A
:102EB0000F931F93CF93DF93CDB7DEB7CA1BDB0B06
:102EC0000FB6F894DEBF0FBECDBF09942A883988AB
:102ED00048885F846E847D848C849B84AA84B984B2
:102EE000C884DF80EE80FD800C811B81AA81B981BE
:102EF000CE0FD11D0FB6F894DEBF0FBECDBFED01D2
:062F00000895F894FFCFD4
:102F06000A0086820411C0A80001C0A8006E5455AC
:102F1600581000290A010001502564002F666C72C2
:102F260020002F74312E6A73002F6D20002F723F00
:0C2F3600200047455420003230300000DD
:00000001FF
