:100000000C94D9030C94F6030C94F6030C94F603A9
:100010000C94F6030C94F6030C94F6030C94F6037C
:100020000C94F6030C94F6030C94F6030C946F0EE8
:100030000C94F6030C94F6030C94240E0C94F60323
:100040000C94F6030C94F6030C94F6030C94F6034C
:100050000C94F6030C94F6030C94F6030C94F6033C
:100060000C94F6030C94F6030D0A436F6E74656EE0
:10007000742D547970653A206170706C6963617495
:10008000696F6E2F782D7777772D666F726D2D756E
:10009000726C656E636F6465640D0A0D0A00436FD0
:1000A0006E74656E742D4C656E6774683A20000D31
:1000B0000A557365722D4167656E743A20746772D4
:1000C0002F312E310D0A4163636570743A202A2F57
:1000D0002A0D0A436F6E6E656374696F6E3A206312
:1000E0006C6F73650D0A000D0A0020485454502FA0
:1000F000312E310D0A486F73743A2000504F53541B
:1001000020000D0A557365722D4167656E743A20A3
:100110007467722F312E300D0A4163636570743A33
:1001200020746578742F68746D6C0D0A436F6E6E61
:10013000656374696F6E3A20636C6F73650D0A0DA9
:100140000A0020485454502F312E310D0A486F7345
:10015000743A20004745542000E30004FA000100EF
:10016000000001450000820000400020000108005E
:1001700006040001485454502F312E3020343031C1
:1001800020556E617574686F72697A65640D0A43F3
:100190006F6E74656E742D547970653A207465784D
:1001A000742F68746D6C0D0A0D0A3C68313E343052
:1001B0003120556E617574686F72697A65643C2F81
:1001C00068313E003C68313E323030204F4B3C2F8E
:1001D00068313E003C2F7072653E3C62723E3C6866
:1001E000723E003C2F666F726D3E0A003C696E7075
:1001F000757420747970653D7375626D69742076CD
:10020000616C75653D2273656E64223E0A003C6632
:100210006F726D20616374696F6E3D2F72206D6522
:1002200074686F643D6765743E0A006E7470207375
:1002300065727665723A20003C68323E73656E6482
:10024000206E747020726571756573743C2F68320E
:100250003E3C7072653E0A003C6120687265663DF6
:100260002F3E5B686F6D655D3C2F613E003C2F70DB
:1002700072653E0A00733C2F68323E006D696E2045
:10028000002D3E003C2F68313E3C68323E003C660B
:100290006F6E7420636F6C6F723D27726564273ECA
:1002A0002D2D2D3C2F666F6E743E00707261636160
:1002B0002E2E00637A656B616D200073746F700081
:1002C0003C666F6E7420636F6C6F723D277265645D
:1002D000273E41574152494121203C2F666F6E74A1
:1002E0003E003C68313E53544F444F4C413A20004D
:1002F0003C68723E003C68313E3C2F68313E0073E2
:100300003C2F68323E006D696E20002D3E003C2F70
:1003100068313E3C68323E003C666F6E7420636F0D
:100320006C6F723D27726564273E2D2D2D3C2F6624
:100330006F6E743E0070726163612E2E2E00637AC0
:10034000656B616D200073746F70003C666F6E7436
:1003500020636F6C6F723D27726564273E41574181
:1003600052494121203C2F666F6E743E003C68313B
:100370003E4F424F52413A20003C68723E0A003CD8
:100380007072653E003C73637269707420737263AF
:100390003D74312E6A733E3C2F7363726970743EF4
:1003A000003C2F7072653E0A00733C2F68343E009B
:1003B0006D696E20002D3E003C68343E00733C2F7A
:1003C00068333E006D696E20002D3E003C68333E70
:1003D00000733C2F68323E006D696E20002D3E0098
:1003E0003C2F68313E3C68323E003C2F666F6E7495
:1003F0003E003C666F6E7420636F6C6F723D2772B7
:100400006564273E0070726163612E2E00637A6519
:100410006B616D200073746F70003C666F6E7420AA
:10042000636F6C6F723D27726564273E415741527E
:10043000494121203C2F666F6E743E003C68313E7E
:1004400053544F444F4C413A20003C68723E003CAC
:1004500068313E3C2F68313E00733C2F68343E00CB
:100460006D696E20002D3E003C68343E00733C2FC9
:1004700068333E006D696E20002D3E003C68333EBF
:1004800000733C2F68323E006D696E20002D3E00E7
:100490003C2F68313E3C68323E003C2F666F6E74E4
:1004A0003E003C666F6E7420636F6C6F723D277206
:1004B0006564273E0070726163612E2E2E00637AA0
:1004C000656B616D200073746F70003C666F6E74B5
:1004D00020636F6C6F723D27726564273E41574100
:1004E00052494121203C2F666F6E743E003C6831BA
:1004F0003E4F424F52413A20003C2F693E0A0A00CB
:100500003C693E6E72206F64703A003C68723E3CFB
:10051000696D67207372633D68747470733A2F2F2E
:100520006269742E6C792F3257645973487820773A
:10053000696474683D2232303022206865696768DA
:10054000743D22323030223E003C7072653E003CE9
:10055000736372697074207372633D74312E6A73B1
:100560003E3C2F7363726970743E00293C2F7363A5
:10057000726970743E5D005B3C7363726970743EB7
:1005800074327328003C62723E3C68723E006E6FAB
:100590006E6500293C2F7363726970743E5D0020A4
:1005A0005B3C7363726970743E74327328000A0A8C
:1005B00054696D6520726563656976656420696E4E
:1005C00020554E4958207365632073696E6365201A
:1005D000313937303A0A3C2F7072653E000A537544
:1005E000636365737366756C20616E737765727390
:1005F0003A20000A4E756D626572206F6620726542
:100600007175657374733A20006E6F0079657300BD
:100610000A4757206D6163206B6E6F776E3A20003A
:100620003C68323E4E545020726573706F6E736535
:10063000207374617475733C2F68323E0A3C70728B
:10064000653E0A003C736372697074207372633D87
:1006500074312E6A733E3C2F7363726970743E006E
:100660003C6120687265663D2F6D3E5B6E6577204C
:100670006E74702071756572795D3C2F613E20004B
:100680003C6120687265663D2F3E4F4B3C2F613EBA
:100690000066756E6374696F6E20743273286E29FC
:1006A0007B0A7661722074203D206E65772044615C
:1006B0007465286E2A31303030293B0A646F6375C7
:1006C0006D656E742E777269746528742E746F4C24
:1006D0006F63616C65537472696E672829293B0AE0
:1006E0007D0A00485454502F312E302032303020B3
:1006F0004F4B0D0A436F6E74656E742D547970659F
:100700003A206170706C69636174696F6E2F782D27
:100710006A6176617363726970740D0A0D0A000A6A
:100720003C2F666F6E743E003C666F6E7420636F84
:100730006C6F723D27677265656E272073697A65F5
:100740003D2735273E003C666F6E7420636F6C6FEB
:10075000723D27726564272073697A653D273527C6
:100760003E003C666F6E742073697A653D273527BD
:100770003E00485454502F312E3020323030204F1C
:100780004B0D0A436F6E74656E742D547970653A23
:1007900020746578742F68746D6C0D0A50726167EF
:1007A0006D613A206E6F2D63616368650D0A0D0AF5
:1007B000000011241FBECFEFD8E0DEBFCDBF11E097
:1007C000A0E0B1E0E6E9FBE302C005900D92A83499
:1007D000B107D9F725E0A8E4B1E001C01D92AA3223
:1007E000B207E1F70E9468100C94C91D0C94000038
:1007F0002A98962F9F71982B9EBD0DB407FEFDCFB2
:100800001EBC0DB407FEFDCF67FD03C02A9A8EB54E
:1008100008951EBC0DB407FEFDCFF8CF2A986F7166
:10082000682B6EBD0DB407FEFDCF4EBD0DB407FEA7
:10083000FDCF2A9A0895FB012A982AE32EBD0DB414
:1008400007FEFDCF8E0F9F1FE817F90739F01EBC7A
:100850000DB407FEFDCF2EB52193F6CF10822A9A54
:1008600008952A982AE72EBD0DB407FEFDCF860F06
:10087000971F6817790741F0FB012191BF012EBD39
:100880000DB407FEFDCFF5CF2A9A08951F93CF939D
:10089000DF93182F1076C12FD0E020914A0130E06D
:1008A000C217D30789F043E06FE180EA0E940E048B
:1008B000AE0185E0559547958A95E1F76FE180E8AF
:1008C0000E940E0410934A01DF91CF911F91089569
:1008D000CF93DF931F92CDB7DEB7682F69830E9455
:1008E0004604698180E00F90DF91CF910C94F8036A
:1008F0001F93CF93DF931F92CDB7DEB7182F698375
:100900000E9446044981612F80E40F90DF91CF91CE
:100910001F910C940E04682F84ED0E94780461E00E
:1009200082ED0E94780488E28A95F1F78AEE0E94AF
:10093000680480FDFBCF60E082ED0E94780489EDC1
:100940000E94680490E008951F93CF93DF931F9255
:10095000CDB7DEB7162F682F84ED79830E94780417
:10096000612F86ED0E9478047981672F87ED0E94C0
:10097000780418E28AEE0E94680480FF04C0812F88
:100980008A95F1F7F7CF0F90DF91CF911F910895DE
:10099000682F677085E70C947804CF93DF93EC01A0
:1009A000229A2A9A84B1886284B9249A2B9A2D9A21
:1009B00080E58CBD8DB581608DBD4FEF60E08FEF20
:1009C0000E940E0480E090E00197F1F71092490137
:1009D0001092480160E088E00E94780460E089E0BD
:1009E0000E94780460E08CE00E94780460E08DE072
:1009F0000E9478046FEF8AE00E94780469E18BE03E
:100A00000E94780460E084E00E9478046AE185E056
:100A10000E9478046FEF86E00E9478046FE187E01F
:100A20000E94780460EB88E30E9478046FE388E218
:100A30000E94780460E389E20E94780469EF80E311
:100A40000E94780467EF81E30E9478046DE080ECF7
:100A50000E94780460E081EC0E94780442E362EC3A
:100A600080E80E940E0462E186EC0E9478046CE04B
:100A700087EC0E94780462E184EC0E9478046CEDBB
:100A80008AEC0E94780465E08BEC0E94780468810F
:100A900084EE0E947804698185EE0E9478046A8160
:100AA00082EE0E9478046B8183EE0E9478046C8150
:100AB00080EE0E9478046D8181EE0E94780460E0EF
:100AC00071E080E10E94A4048FE10E94460440ECA2
:100AD0006BE180E80E940E0444E06FE180E8DF9162
:100AE000CF910C940E0482E70E946804863008F0CF
:100AF0008F5F089581E10E948B0421E0892B09F426
:100B000020E0822F08950F931F93CF93DF93EC0182
:100B10008B016FE180E00E94F80383FF10C08CE13D
:100B20000E94680481FFF5CF40E86FE180E80E94F1
:100B30000E0440E86FE180EA0E940E04EACF60E014
:100B400082E00E9478046AE183E00E9478046C2FBE
:100B500086E00E947804CE01965E692F87E00E94AD
:100B6000780440E060E08AE70E940E04B801CE01FC
:100B70000E94310448E06FE180E8DF91CF911F913E
:100B80000F910C940E0489E30E94680491E0811196
:100B900001C090E0892F08959F92AF92BF92CF92AB
:100BA000DF92EF92FF920F931F93CF93DF937C011D
:100BB0006B0189E30E946804882309F45BC060919B
:100BC0004801C091490180E00E9478046C2F81E0C7
:100BD0000E94780460E08AE30E94F803082F60E036
:100BE0008AE30E94F80310E0182B10934901009348
:100BF000480160E08AE30E94F803C82F60E08AE3BE
:100C00000E94F803982E60E08AE30E94F803A82E61
:100C100060E08AE30E94F803A7FE0FC0970121500D
:100C20003109D0E0D92924972C173D0708F4E901B0
:100C3000B601CE010E941B0402C0C0E0D0E06FEFFD
:100C400001308AE118072CF08CE00E94780469E1F9
:100C500007C0600F8CE00E94780401501109612FD9
:100C60008DE00E94780440E46EE180E80E940E046A
:100C7000CE0102C080E090E0DF91CF911F910F91F3
:100C8000FF90EF90DF90CF90BF90AF909F9008952E
:100C9000E1E8F0E0808188608083808185608083E6
:100CA000EFE6F0E08081826080838EEA9FE290939D
:100CB000890080938800089554985C9A53985B9AB1
:100CC00056985E9A55985D9A2098289A57985F9AF8
:100CD0003C9A449A089584B5826084BD85B5856048
:100CE00085BDEEE6F0E080818260808389E787BD84
:100CF00008950F931F93CF93DF93EC01D901FB016C
:100D00002081242391E08881222311F090E004C007
:100D1000811102C098830BC0882331F19923D1F04F
:100D2000813041F48C9181111FC082E088838EE173
:100D30008C931AC0823039F48C91811115C083E0F4
:100D4000888382E012C0833079F49C9181E09923FA
:100D500061F00AC0823040F00115110511F0F80170
:100D60000995188283E001C080E0DF91CF911F9147
:100D70000F910895EF92FF920F931F93CF93DF93FC
:100D8000890190917301891751F0E0917001F09100
:100D9000710140E050E060E070E084E02BC0611140
:100DA0002AC02D30310538F1C0917001D091710108
:100DB000209709F1E0906401F0906501BA01675F46
:100DC0007F4F6E0D7F1D43E050E089E191E00E946E
:100DD000A21AF70166A562956F70F4E06F9FB001EB
:100DE00011246E5D7F4FA801892B11F480E001C0B2
:100DF00081E0FE01099580E0DF91CF911F910F9175
:100E0000FF90EF900895FF920F931F93CF93DF937E
:100E1000FB01413051F4AB014850510960E070E0F2
:100E20004F5E5F4F6F4F7F4F0FC0423051F4AB01A9
:100E30004850510960E070E04A5F5F4F6F4F7F4F4D
:100E400003C040E050E0BA01EF01DC01C230D1053F
:100E500098F00C9110E020E030E0322F212F102F7D
:100E600000271196FC9011970F29400F511F621F08
:100E7000731F12962297EACFDF01AE7FA80FB91F2A
:100E8000E0FF0CC08C9190E0A0E0B0E0BA2FA92F59
:100E9000982F8827480F591F6A1F7B1FCB01AA274D
:100EA000BB270097A105B10519F066277727F2CF78
:100EB000CA0180959095DF91CF911F910F91FF907E
:100EC00008955093800140930401FB01ADE4B1E02B
:100ED00021912D9321E0A135B207D1F7FC01A1E5C5
:100EE000B1E081918D9381E0A735B807D1F70895DE
:100EF000DC015A96FB0180E02D919191291305C0E8
:100F00008F5F8430C9F781E0089580E008956932E9
:100F10007105A8F0FC012485283089F42585263048
:100F200071F4DC019696EDE4F1E09D9181919813C6
:100F300006C081E0E135F807C1F781E0089580E05F
:100F40000895FC016A327105B0F08485883099F407
:100F50008585811110C08685853469F47E96ADE45F
:100F6000B1E091918D91981306C081E0A135B80749
:100F7000C1F781E0089580E00895CF93DF93E1E524
:100F8000F1E0DC0116962C91EC012993CE01219120
:100F90002D93D1E0E735FD07B1F7DF91CF910895AB
:100FA000CF93DF93EC01188E198E80E48C8B1D8A11
:100FB0008E8B40E064E170E0CE010E960E94030744
:100FC000988F898FDF91CF910895CF93DF93EC01B4
:100FD0006E96EDE4F1E0DC015A962C912993219173
:100FE0002D9321E0E135F207C1F7DF91CF910C9409
:100FF000D007FC01BA96DC019E9686962291620F7C
:10100000711D2E916C93442311F0208301C0108236
:10101000672F7727E817F90789F70895CF93DF93AC
:10102000EC018CA19AA19CA38AA38DA19BA19DA355
:101030008BA3CE010E94F9071AAA1BAA80E58EA7EE
:10104000DF91CF910895CF93DF93EC010E94BD070C
:101050001C8A82E08D8BCE01809641E551E0DE0155
:1010600056962C91FC012193CF01FA012191AF01F9
:101070002D93F1E047355F07A1F7CE0186964DE449
:1010800051E0DE015C962C91FC012193CF01FA0125
:101090002191AF012D93F1E041355F07A1F7BE012A
:1010A0008AE290E0DF91CF910C9483050F931F9318
:1010B000CF93DF93EC018B010E94BD07CE010E940C
:1010C000E5071AA29CA1983F18F08DA18F5F8DA310
:1010D000985F9CA3BE01C801DF91CF911F910F9132
:1010E0000C948305DF92EF92FF920F931F93CF939F
:1010F000DF93EC01162FF72E042FE22ED32E0E9441
:10110000BD070D3D08F00CED188A8CE1800F898B2E
:10111000CE010E94E5078AA18CA38BA18DA3DAA240
:10112000EBA21EA288E0800F8FA318A619A6912F0C
:10113000DE019A96E12FFF2D8E2F891B801718F460
:1011400081918D93F9CF10E0B801605F7F4F41E04E
:10115000CE014A960E94030798A789A7BE01C8013D
:101160008A96DF91CF911F910F91FF90EF90DF90C2
:101170000C948305CF93DF93EC010E94BD07188A7E
:101180008CE2898BCE010E94E50782E18FA740E0C7
:1011900061E070E0CE010E940E081EA21FA28091A5
:1011A000000188A719A68D5F8093000182E08EABB5
:1011B00084E08FAB85E088AF19AE90E69EA788AB40
:1011C00088E789AB42E060E270E0CE014A960E9477
:1011D00003079AAB8BABBE018AE390E0DF91CF911E
:1011E0000C948305FC01808990E0982F8827218941
:1011F000822B449726A522952F7034E0239F8019D7
:101200009109112497FF02C080E090E008959C01AD
:10121000CB01461B570BFA01E80FF91FE491EE23AF
:1012200039F0D901A80FB91FD696EC930196F3CFE8
:101230000895DB01D696A80FB91FFA01420F4E1789
:1012400019F081918D93FBCFCB01820F911D0895F1
:10125000FA0101900020E9F79F0121503109241B78
:10126000350B0C941909EF92FF920F931F93CF93B4
:10127000DF9300D000D01F92CDB7DEB790917301FD
:1012800089139CC0809172010091640110916501E5
:1012900081112CC044E551E060E070E0C8010E947B
:1012A000070940916A0150916B01BC01C8010E947D
:1012B00007094091680150916901BC01C8010E9471
:1012C000280942E451E0BC01C8010E94070940918D
:1012D000660150916701BC01C8010E94070942E004
:1012E00051E0BC01C8010E9407096AC04CEF50E000
:1012F00060E070E0C8010E94070940916A015091C6
:101300006B01BC01C8010E9407094AEE50E0BC0114
:10131000C8010E9407094091660150916701BC0114
:10132000C8010E940709E0906E01F0906F01E1147E
:10133000F10459F047EE50E0BC01C8010E940709D2
:10134000A701BC01C8010E9407094FEA50E0BC0197
:10135000C8010E9407094EE950E0BC01C8010E9483
:1013600007097C01A0916C01B0916D01FD01019014
:101370000020E9F731974AE0BE016F5F7F4FCF0150
:101380008A1B9B0B0E94BB1A00916401109165019E
:10139000AE014F5F5F4FB701C8010E94280948E6C0
:1013A00050E0BC01C8010E94070940916C015091B6
:1013B0006D01BC01C8010E94280902C080E090E0D4
:1013C0000F900F900F900F900F90DF91CF911F9182
:1013D0000F91FF90EF9008950F931F93CF93DF939A
:1013E00000D01F92CDB7DEB78C014B8369837A831F
:1013F0000E94BD074B81842F8061F80187A7698116
:101400007A81443029F06115710511F461E070E0D2
:1014100041E0C8010E940E08F801108A88E2818B21
:10142000C8010E94E50784E0F80180AB11AA42E000
:101430006CE170E0C8014A960E940307F80192AB84
:1014400083ABB80186E390E00F900F900F90DF918F
:10145000CF911F910F910C9483050F931F93CF93FE
:10146000DF93EC018B01CB018896988B898BCE01A1
:101470000E94D0071AAA1BAAB801645E7F4F42E0FF
:10148000CE014A960E9403079AAB8BABBE01C801FE
:10149000C696DF91CF911F910F910C9483050F9306
:1014A0001F93CF93DF93EC018B0160914B017091FF
:1014B0004C0140E00E94EC0989E18FA7B801CE0100
:1014C000DF91CF911F910F910C942D0A640F751F1E
:1014D0004617570741F0FA012491FC012193CF01EF
:1014E0004F5F5F4FF5CF0895FF920F931F93CF93F8
:1014F000DF93EC01F62E072F142FE8E5F1E09C01B5
:1015000081E591E0BE016A5F7F4F4191D9014D9322
:101510009D01DC014D91CD01DB014D93BD01B1E099
:10152000EE35FB0791F788E08C871D8643E651E096
:1015300069E070E0CE010E960E94660A8CE4898B09
:1015400081E18F8B6F2D702FCE014E96ADE4B1E00F
:10155000FB012191BF01FC012193CF014D919F011E
:1015600025503109F9014083F1E0A135BF0781F72A
:10157000CE010E94D0071CA28BE78DA38AE08AA32C
:101580001BA31EA288E38FA318A619A6CE018A96D4
:10159000FC0120E011922F5F2033E1F749E551E093
:1015A0006AE070E00E94660A41E060E470E0CE010B
:1015B0004A960E94030798A789A7BE018AE590E092
:1015C000DF91CF911F910F91FF900C948305CF93E2
:1015D000DF93FC01DB01442319F085A1841324C0AF
:1015E00086A1811121C087A18833F1F483A18B37B3
:1015F000D9F4EF01CE5ADF4F88812196488150E01F
:1016000060E070E0BA0155274427782B2296888144
:10161000482BEC5AFF4F8081582B4D935D936D936F
:101620007C93139781E001C080E0DF91CF91089512
:101630000F931F93CF93DF93EC018B01AE014A5FB1
:101640005F4FE1E5F1E03FEFDC013D93CD012191FA
:10165000DA012D93AD01B1E0E735FB07A9F788E08A
:101660008C8786E08D874CE651E068E070E0CE0123
:101670000E960E94660ADE01909641E551E0FA015D
:101680002191AF01CD010A97FC0120831D92F1E069
:1016900047355F07A1F7B801CE018696ADE4B1E00A
:1016A000FB012191BF01FC012193CF014D919F01CD
:1016B0002B503109F9014083F1E0A135BF0781F7D3
:1016C00080915701886080935701BE018AE290E0C3
:1016D000DF91CF911F910F910C9483058091570159
:1016E0008695817091E089270895DC015C96EEE58E
:1016F000F1E03D91219132130FC021E0E236F20773
:10170000C1F7DC015696E8E5F1E08D91819381E027
:10171000EE35F807D1F702C080E0089581E0089522
:101720008091570181FF03C0846080935701089521
:1017300021E020935701EEE5F1E0DC012D91CD0190
:101740002193B1E0E236FB07C1F70895EBE7F1E042
:10175000DC012D91CD012193B1E0EF37FB07C1F7FB
:101760000895DF92EF92FF920F931F93CF93DF9331
:10177000EC01F62EE42ED22EE8E5F1E08C0181E5B5
:1017800091E0AE014A5F5F4F2191D8012D938D0109
:10179000DC012D91CD01DA012D93AD01B1E0EE35E3
:1017A000FB0791F788E08C871D8643E651E069E0EE
:1017B00070E0CE010E960E94660A8CE2898B86E06C
:1017C0008F8B6BE771E0DE015E968DE491E0FB01AB
:1017D0002191BF012D93FC014191CF019D01255025
:1017E0003109F9014083F1E06F377F0781F7CE01BE
:1017F0000E94D007ECA2DDA28BE08AA3FBA2FE012F
:10180000B69688E011928150E9F78091000188A78F
:101810008D5F8093000180E68EA782E08FA793E022
:1018200098AB19AA1AAA1BAA1CAA1DAA8EAB94E0EF
:101830009FAB88AF86E289AF42E060E270E0CE0104
:101840004A960E9403079AAB8BABBE018AE390E0F5
:10185000DF91CF911F910F91FF90EF90DF900C944B
:10186000830590937701809376017093750160935F
:101870007401509379014093780181E080937A015B
:1018800080917F018F5F883018F480937F0102C0C0
:1018900010927F0180917F01089590936B01809356
:1018A0006A017093690160936801509367014093E6
:1018B000660110927201309371012093700140E52E
:1018C00050E063E379E08AEB96E00E94310C80936C
:1018D000730108950F931F9390936B0180936A0196
:1018E000709367016093660150936F0140936E019E
:1018F00030936D0120936C0181E08093720110930D
:1019000071010093700140E550E063E379E08AEBF8
:1019100096E00E94310C809373011F910F910895FE
:1019200090936301809362010895CF92DF92EF92CA
:10193000FF920F931F93CF93DF931F92CDB7DEB724
:101940006C018B0161157105E9F580915701857076
:1019500079F08091010190910201892B49F40E9454
:101960007A05882329F06EE571E0C6010E94180B04
:101970008091010190910201019690930201809360
:10198000010180917A01813009F04BC180915701AA
:1019900081FF47C182E080937A01609103016F5F0C
:1019A000609303016F7180917F0120E2829FC001EB
:1019B0001124682B2091780140917901C6010E9481
:1019C000B10B2FC10E9487078823D1F0D60155960D
:1019D0008C91813019F4C6010E942308809157012F
:1019E00083FF1FC1F6011589123009F01AC1C60123
:1019F0000E94750B882309F414C11093570111C17B
:101A0000B801C6010E94A107882309F40AC1D601C2
:101A100057968C915797813099F492968C91883093
:101A200009F004C1E0916201F0916301309719F06F
:101A3000C6014A960995B801C6010E945608F1C030
:101A40000633110518F4863009F0EBC0F60184A1C5
:101A50008B3009F0B3C0D0926501C09264016BE78E
:101A600071E0C6010E947807882309F4DAC0D60124
:101A70009F962C919F9722FF13C0E0917601F091E1
:101A80007701309709F490C095968C9120E030E072
:101A900040E050E063E0829586958770099584C0A8
:101AA000C60129830E94F2087C0180917A01298174
:101AB000823099F5822F80712271223109F540E040
:101AC00060E070E0C6010E94EC0988E1F60187A79A
:101AD000E0917401F0917501309741F0D601939631
:101AE0008C91829586958770099502C080E090E080
:101AF00023E020937A01BC01C6010E942D0A91C007
:101B000091E090937A01811104C0B7016F5F7F4F1C
:101B100002C060E070E044E071C08330A9F5E114D8
:101B2000F10491F184E080937A01E0917601F091E3
:101B30007701309749F1D6019E964C9142954F70AE
:101B4000B4E04B9FA0011124C80108974E5D5F4F80
:101B50008417950708F4AC01C701840F951F081777
:101B6000190720F49801241B350B01C09701D601F9
:101B700095968C9160E0829586958770099588236B
:101B800019F049E0B7010DC080917A01853009F460
:101B900048C0F60187A580FF0BC0B7016F5F7F4F7C
:101BA00049E0C6010E94EC0985E080937A0139C0C2
:101BB000E114F104B1F140E0B70120C0909180013F
:101BC00089132FC095A18091040198132AC0F7A40E
:101BD000F1FE04C0C6010E94BA0823C0F4FE21C071
:101BE000C6010E94F20890934C0180934B01892B0F
:101BF00049F4F0FE16C040E060E070E0C6010E94CB
:101C0000EC090FC0F60126A522952F70F4E02F9F56
:101C1000900111242E5D3F4F085011090217130740
:101C200018F480E090E006C0C90104C00633110535
:101C3000C0F30CCF0F90DF91CF911F910F91FF90C8
:101C4000EF90DF90CF9008951F920F920FB60F92F2
:101C500011248F938091B901882319F081508093CA
:101C6000B9018091B701882319F081508093B701A1
:101C70008091B001882319F081508093B001809148
:101C8000B301882319F081508093B3018091B8018A
:101C9000882319F081508093B8018091B601882380
:101CA00019F081508093B6018091BA01882319F010
:101CB00081508093BA01809187018F5F8093870163
:101CC000843611F4449805C0863619F4449A10926B
:101CD00087018F910F900FBE0F901F9018951F9244
:101CE0000F920FB60F9211248F939F93AF93BF93D0
:101CF0008091890190918A01A0918B01B0918C0112
:101D00000196A11DB11D8093890190938A01A09332
:101D10008B01B0938C018091050190910601892B74
:101D200049F0809105019091060101979093060179
:101D300080930501BF91AF919F918F910F900FBE3E
:101D40000F901F9018958F929F92AF92BF92CF9253
:101D5000DF92EF92FF920F931F93CF938091B9017F
:101D60008111AAC100E010E027EB31E040E169E217
:101D700070E086E891E00E9479068093B50120EB3F
:101D800031E048E069E270E085E891E00E94790680
:101D90008093BC0123EB31E040E469E270E084E829
:101DA00091E00E9479068093B20128EB31E040E295
:101DB00069E270E083E891E00E9479068093B101C6
:101DC00026EB31E041E063E270E082E891E00E94BE
:101DD00079068093B4012AEB31E040E869E270E0D3
:101DE00081E891E00E947906C82F8093BB01809121
:101DF000B201823028F491E098279093B20109C093
:101E0000823011F483E003C0833019F482E08093C0
:101E1000B2019091B101923018F481E0892707C096
:101E2000923011F483E003C0933019F482E0809380
:101E3000B1018091B201813091F560918901709179
:101E40008A0180918B0190918C018090C8019090C3
:101E5000C901A090CA01B090CB01681979098A091B
:101E60009B093CE3C32ED12CE12CF12CA701960158
:101E70000E944E1A2093BD016091890170918A01E0
:101E800080918B0190918C01681979098A099B09CD
:101E9000A70196010E944E1A6093F40143C082305C
:101EA00009F040C04091BE015091BF016091C00156
:101EB0007091C10140931B0550931C0560931D0553
:101EC00070931E054091C8015091C9016091CA01EB
:101ED0007091CB014093BE015093BF016093C0014C
:101EE0007093C1014091890150918A0160918B01E9
:101EF00070918C014093C8015093C9016093CA014D
:101F00007093CB018091CF018093EB018091BD0153
:101F10008093CF0180911F05809329058091F40162
:101F200080931F058091B101813091F56091890105
:101F300070918A0180918B0190918C018090F001C9
:101F40009090F101A090F201B090F3016819790925
:101F50008A099B092CE3C22ED12CE12CF12CA7017C
:101F600096010E944E1A2093160560918901709186
:101F70008A0180918B0190918C01681979098A09F5
:101F80009B09A70196010E944E1A6093D60143C097
:101F9000823009F040C040911705509118056091BA
:101FA000190570911A054093EC015093ED0160936F
:101FB000EE017093EF014091F0015091F1016091B9
:101FC000F2017091F3014093170550931805609347
:101FD000190570931A054091890150918A01609109
:101FE0008B0170918C014093F0015093F10160934B
:101FF000F2017093F3018091D0018093CE01809122
:1020000016058093D001809120058093D1018091A5
:10201000D601809320058091B501823081F44091F2
:10202000890150918A0160918B0170918C014093DC
:102030002105509322056093230570932405809118
:10204000BC01823081F44091890150918A016091F4
:102050008B0170918C014093D2015093D301609316
:10206000D4017093D5018091B401823081F4409104
:10207000890150918A0160918B0170918C0140938C
:10208000C2015093C3016093C4017093C501C23073
:1020900081F48091890190918A01A0918B01B09186
:1020A0008C018093250590932605A0932705B09376
:1020B000280584E68093B901CF911F910F91FF907D
:1020C000EF90DF90CF90BF90AF909F908F9008954A
:1020D00080E8809361001092610080E08A95F1F7BA
:1020E00083E191E00E94CD0482E00E94C80480E078
:1020F0008A95F1F766E774E084E10E94A40441E761
:1021000053E06FE071E083E191E00E9461078BE0B2
:1021100091E00E94980B0E946B060E94480683E2A1
:1021200094EF0197F1F700C000000E945C0644980C
:102130009FE121EA87E0915020408040E1F700C014
:102140000000449A789429E288E190E00FB6F89470
:10215000A895809360000FBE20936000FF24F39445
:10216000C8EFD5E2A8950E94A30E80910501909139
:102170000601892B31F4F0928D01D0930601C093B2
:10218000050165EF71E080E293E00E94CC056C01EF
:10219000BC0185EF91E00E94950C8C019093C701E2
:1021A0008093C6010097E9F144E050E0BC016B5018
:1021B0007E4F8DE191E00E94A21A892B51F00E947E
:1021C0006F119093C7018093C60144EC51E0BC01AC
:1021D0000BC0C80187509E4F0E9484188F3F49F45E
:1021E00044E751E060E070E085EF91E00E9407096C
:1021F00009C0813019F40E94881104C08A3031F07E
:102200000E9491119093C7018093C60144986091F8
:10221000C6017091C70185EF91E00E944F0A449A70
:10222000A1CFB60185EF91E00E94A10781111CC0EA
:1022300080918D01882309F495CF0E946E0B811146
:1022400091CF409188014F5F4093880110928D019A
:1022500067E071E085EF91E00E94740A80918F0140
:102260008F5F80938F017ECF80910C02813109F0C6
:1022700079CF80911702811175CF809118028B3729
:1022800009F070CF4091880169E871E085EF91E035
:102290000E94E70A882309F465CF80918901909113
:1022A0008A01A0918B01B0918C018091890190915C
:1022B0008A01A0918B01B0918C0180589E47AA4A57
:1022C000B3488093890190938A01A0938B01B093C6
:1022D0008C0180918E018F5F80938E0143CF42E706
:1022E00057E060E070E085EF91E00C94070943EE61
:1022F00056E060E070E085EF91E00C9407090E94E1
:10230000771141E956E0BC0185EF91E00C94070993
:102310000E946F1140E856E0BC0185EF91E00C94FB
:1023200007094F925F927F928F929F92AF92BF92D6
:10233000CF92DF92EF92FF920F931F93CF93DF9391
:1023400000D0CDB7DEB7C0908901D0908A01E0906F
:102350008B01F0908C010E946F1140E656E0BC01A9
:1023600085EF91E00E94070944E456E0BC0185EF47
:1023700091E00E94070940E256E0BC0185EF91E040
:102380000E94070940E156E0BC0185EF91E00E9400
:102390000709BC0189837A830E946E0B69817A8167
:1023A000811103C04CE056E002C049E056E085EFE1
:1023B00091E00E94070943EF55E0BC0185EF91E0F1
:1023C0000E9407098C0180918F014AE06BE971E05E
:1023D00090E00E94BB1A4BE951E0B80185EF91E013
:1023E0000E9428094DED55E0BC0185EF91E00E9467
:1023F00007098C0180918E014AE06BE971E090E061
:102400000E94BB1A4BE951E0B80185EF91E00E94B0
:1024100028094EEA55E0BC0185EF91E00E940709CA
:102420008C0180918E01882309F440C010929A019A
:102430008AE0782E9AE0892E912CA12CB12CC1141F
:10244000D104E104F104A9F0772099F07A94472CA3
:10245000512CC20180579E4F2C01C701B601A50126
:1024600094010E944E1A605DF201608369017A0155
:10247000E6CFE72CF12CC70180579E4F7C01AC01C1
:10248000B80185EF91E00E9428094FE955E0BC01B1
:1024900085EF91E00E940709A701BC0185EF91E05B
:1024A0000E94280943E955E0BC0103C04EE855E00D
:1024B000B80185EF91E00E94070945E855E0BC01AD
:1024C00085EF91E00F900F90DF91CF911F910F91C9
:1024D000FF90EF90DF90CF90BF90AF909F908F9044
:1024E0007F905F904F900C940709BF92CF92DF923C
:1024F000EF92FF920F931F93CF93DF93EA01109215
:102500009A012AE0B22E3AE0C32ED12CE12CF12C14
:10251000611571058105910589F0BB2079F0BA94A8
:102520000B2D10E000571E4FA70196010E944E1A76
:10253000605DF8016083B901CA01EACF68817981E1
:1025400047E755E085EF91E00E940709998388836A
:102550004B2D50E040575E4FBC0185EF91E00E944B
:102560002809998388834BE655E0BC0185EF91E00B
:102570000E94070999838883DF91CF911F910F9162
:10258000FF90EF90DF90CF90BF900895BF92CF92D1
:10259000DF92EF92FF920F931F93CF93DF9300D0C0
:1025A000CDB7DEB78C010E946F119A8389834FE407
:1025B00055E0BC01C8010E9407099A83898349E458
:1025C00055E0BC01C8010E9407099A8389834BE04A
:1025D00055E0BC01C8010E9407099A83898340E045
:1025E00055E0BC01C8010E9407099A838983809144
:1025F000CD018F938091CC018F9386E291E09F93E0
:102600008F93A7EDEA2EA1E0FA2EFF92EF920E949F
:10261000E81A69817A81A701C8010E9428099A8372
:102620008983B4E1DB2EF7012D2D11922A95E9F76C
:1026300049EF54E0BC01C8010E9407099A838983CD
:102640004DEE54E0BC01C8010E940709BC019A8309
:1026500089830F900F900F900F900F900F908091A3
:10266000B401882381F04BEC54E0C8010E940709B3
:102670009A8389836091C2017091C3018091C401E2
:102680009091C5011CC09091B5018091B20191114A
:1026900005C0811122C046EC54E019C0811115C05B
:1026A0004EEB54E0C8010E9407099A838983609128
:1026B0002105709122058091230590912405AE019A
:1026C0004F5F5F4F0E9475123DC045EB54E0C8015B
:1026D0000E9407099A83898335C042EA54E0C80101
:1026E0000E9407099A8389838091B4011F928F9376
:1026F0008091B2011F928F938091B5011F928F93A9
:1027000082E291E09F938F93FF92EF920E94E81AEA
:1027100069817A8147ED51E0C8010E9428099A83B6
:102720008983F7011192DA94E9F74AE954E0BC0190
:10273000C8010E9407099A8389830FB6F894DEBF07
:102740000FBECDBF69817A8140E954E0C8010E9483
:1027500007099A8389836091C8017091C9018091AA
:10276000CA019091CB01AE014F5F5F4F0E9475127D
:1027700069817A814DE854E0C8010E9407099A8373
:1027800089838091BD011F928F9376E2C72E71E0FD
:10279000D72EDF92CF92E7EDEE2EE1E0FE2EFF92F4
:1027A000EF920E94E81A69817A81A701C8010E940C
:1027B00028099A838983F4E1BF2EF7012B2D11920A
:1027C0002A95E9F748E854E0BC01C8010E940709CE
:1027D0009A8389838091F4011F928F93DF92CF9225
:1027E000FF92EF920E94E81A69817A81A701C801DD
:1027F0000E9428099A838983F7012B2D11922A952B
:10280000E9F741E854E0BC01C8010E9407099A8336
:1028100089834CE754E0BC01C8010E9407099A83F0
:1028200089836091BE017091BF018091C001909138
:10283000C101AE014F5F5F4F0E94751269817A81BD
:1028400049E754E0C8010E9407099A83898380916F
:10285000CF011F928F93DF92CF92FF92EF920E944F
:10286000E81A69817A81A701C8010E9428099A8320
:102870008983F7012B2D11922A95E9F744E754E05B
:10288000BC01C8010E9407099A83898380911F05B2
:102890001F928F93DF92CF92FF92EF920E94E81ADD
:1028A00069817A81A701C8010E9428099A838983D6
:1028B000F7012B2D11922A95E9F74DE654E0BC0162
:1028C000C8010E9407099A83898348E654E0BC0145
:1028D000C8010E9407099A83898360911B05709142
:1028E0001C0580911D0590911E05AE014F5F5F4F45
:1028F0000E94751269817A8145E654E0C8010E9400
:1029000007099A8389838091EB011F928F93DF924D
:10291000CF92FF92EF920E94E81A69817A81A70113
:10292000C8010E9428099A838983F7012B2D1192EF
:102930002A95E9F740E654E0BC01C8010E94070966
:102940009A838983809129051F928F93DF92CF927A
:10295000FF92EF920E94E81A0FB6F894DEBF0FBE06
:10296000CDBF69817A81A701C8010E9428099A8395
:102970008983F7012B2D11922A95E9F749E554E057
:10298000BC01C8010E9407099A8389834FE454E07F
:10299000BC01C8010E9407099A8389834AE454E074
:1029A000BC01C8010E9407099A8389834CE354E063
:1029B000BC01C8010E940709BC019A8389838091E8
:1029C000BB01882381F04AE154E0C8010E94070955
:1029D0009A8389836091250570912605809127054A
:1029E000909128051CC09091BC018091B10191117A
:1029F00005C0811122C045E154E019C0811115C004
:102A00004DE054E0C8010E9407099A8389836091D0
:102A1000D2017091D3018091D4019091D501AE0182
:102A20004F5F5F4F0E9475123DC045E054E0C80102
:102A30000E9407099A83898335C042EF53E0C80199
:102A40000E9407099A8389838091BB011F928F930B
:102A50008091B1011F928F938091BC011F928F933F
:102A600082E291E09F938F93FF92EF920E94E81A87
:102A700069817A8147ED51E0C8010E9428099A8353
:102A80008983F7011192BA94E9F74AEE53E0BC0149
:102A9000C8010E9407099A8389830FB6F894DEBFA4
:102AA0000FBECDBF69817A8140EE53E0C8010E941C
:102AB00007099A8389836091F0017091F1018091F7
:102AC000F2019091F301AE014F5F5F4F0E947512CA
:102AD00069817A814DED53E0C8010E9407099A830C
:102AE0008983809116051F928F9346E2C42E41E0A0
:102AF000D42EDF92CF9257EDE52E51E0F52EFF92C6
:102B0000EF920E94E81A69817A81A701C8010E94A8
:102B100028099A83898364E1B62EF7012B2D11923F
:102B20002A95E9F748ED53E0BC01C8010E94070966
:102B30009A8389838091D6011F928F93DF92CF92DF
:102B4000FF92EF920E94E81A69817A81A701C80179
:102B50000E9428099A838983F7012B2D11922A95C7
:102B6000E9F741ED53E0BC01C8010E9407099A83CF
:102B700089834CEC53E0BC01C8010E9407099A8389
:102B800089836091170570911805809119059091BE
:102B90001A05AE014F5F5F4F0E94751269817A81FD
:102BA00049EC53E0C8010E9407099A838983809108
:102BB000D0011F928F93DF92CF92FF92EF920E94EB
:102BC000E81A69817A81A701C8010E9428099A83BD
:102BD0008983F7012B2D11922A95E9F744EC53E0F4
:102BE000BC01C8010E9407099A838983809120054E
:102BF0001F928F93DF92CF92FF92EF920E94E81A7A
:102C000069817A81A701C8010E9428099A83898372
:102C1000F7012B2D11922A95E9F74DEB53E0BC01FA
:102C2000C8010E9407099A83898348EB53E0BC01DD
:102C3000C8010E9407099A8389836091EC01709111
:102C4000ED018091EE019091EF01AE014F5F5F4F7A
:102C50000E94751269817A8145EB53E0C8010E9498
:102C600007099A8389838091CE011F928F93DF9207
:102C7000CF92FF92EF920E94E81A69817A81A701B0
:102C8000C8010E9428099A838983F7012B2D11928C
:102C90002A95E9F740EB53E0BC01C8010E940709FF
:102CA0009A8389838091D1011F928F93DF92CF9273
:102CB000FF92EF920E94E81A0FB6F894DEBF0FBEA3
:102CC000CDBF69817A81A701C8010E9428099A8332
:102CD0008983F7011192BA94E9F749EA53E0BC01FC
:102CE000C8010E9407099A83898341EA53E0BC0125
:102CF000C8010E9407090F900F90DF91CF911F919B
:102D00000F91FF90EF90DF90CF90BF900895BF920A
:102D1000CF92DF92EF92FF920F931F93CF93DF93A7
:102D200000D0CDB7DEB78C010E946F119A838983E2
:102D300045E853E0BC01C8010E9407099A838983D2
:102D40004FE753E0BC01C8010E9407099A838983B9
:102D500049E753E0BC01C8010E9407099A838983AF
:102D60004DE653E0BC01C8010E940709BC019A83EB
:102D700089838091B401882381F04BE453E0C8013A
:102D80000E9407099A8389836091C2017091C301EF
:102D90008091C4019091C5011CC09091B5018091B2
:102DA000B201911105C081111DC046E453E01CC061
:102DB000811115C04EE353E0C8010E9407099A83B0
:102DC000898360912105709122058091230590915E
:102DD0002405AE014F5F5F4F0E9475120AC045E3A4
:102DE00053E002C048E153E0C8010E9407099A83FA
:102DF000898369817A814EE053E0C8010E94070906
:102E00009A8389836091C8017091C9018091CA0138
:102E10009091CB01AE014F5F5F4F0E9475126981A7
:102E20007A814BE053E0C8010E9407099A838983A5
:102E30008091BD011F928F9336E2C32E31E0D32ED5
:102E4000DF92CF9247EDE42E41E0F42EFF92EF9215
:102E50000E94E81A69817A81A701C8010E942809A5
:102E60009A83898354E1B52EF7012B2D11922A956F
:102E7000E9F746E053E0BC01C8010E9407099A83C4
:102E800089838091F4011F928F93DF92CF92FF92FA
:102E9000EF920E94E81A69817A81A701C8010E9415
:102EA00028099A838983F7011192BA94E9F74FEFC1
:102EB00052E0BC01C8010E9407099A83898345EF4B
:102EC00052E0BC01C8010E9407099A83898340EF40
:102ED00052E0BC01C8010E9407099A83898342EE2F
:102EE00052E0BC01C8010E940709BC019A83898392
:102EF0000FB6F894DEBF0FBECDBF8091BB01882313
:102F000081F040EC52E0C8010E9407099A8389834E
:102F100060912505709126058091270590912805DF
:102F20001CC09091BC018091B101911105C081112B
:102F30001DC04BEB52E01CC0811115C043EB52E0A9
:102F4000C8010E9407099A8389836091D201709118
:102F5000D3018091D4019091D501AE014F5F5F4FB5
:102F60000E9475120AC04BEA52E002C04EE852E0DD
:102F7000C8010E9407099A83898369817A8144E89C
:102F800052E0C8010E9407099A8389836091F00189
:102F90007091F1018091F2019091F301AE014F5FC8
:102FA0005F4F0E94751269817A8141E852E0C80141
:102FB0000E9407099A838983809116051F928F9337
:102FC00086E2C82E81E0D82EDF92CF9297EDE92ECF
:102FD00091E0F92EFF92EF920E94E81A69817A81BE
:102FE000A701C8010E9428099A83898324E1B22E8F
:102FF000F7012B2D11922A95E9F74CE752E0BC011D
:10300000C8010E9407099A8389838091D6011F9283
:103010008F93DF92CF92FF92EF920E94E81A69811C
:103020007A81A701C8010E9428099A838983F70140
:103030001192BA94E9F745E752E0BC01C8010E9439
:1030400007099A8389834DE652E0BC01C8010E94BA
:1030500007090FB6F894DEBF0FBECDBF0F900F90DB
:10306000DF91CF911F910F91FF90EF90DF90CF9064
:10307000BF9008950F93CF93DF930E946F1148E59F
:1030800052E0BC0185EF91E00E94070948E352E05D
:10309000BC0185EF91E00E9407094BE252E0BC01C0
:1030A00085EF91E00E940709EC010AE02EE244E07E
:1030B00067E071E08BE991E00E940F1A4BE951E063
:1030C000BE0185EF91E00E9428094EE052E0BC016C
:1030D00085EF91E00E9407094CEE51E0BC0185EFBD
:1030E00091E00E94070943EE51E0BC0185EF91E0B9
:1030F0000E94070944ED51E0BC0185EF91E0DF91AA
:10310000CF910F910C940709CF93DF93EC0145E029
:1031100050E0BC0189E291E00E94A21A892B91F44F
:1031200085EF91E00E94C6129093C7018093C6017B
:103130008091CC019091CD0101969093CD01809327
:10314000CC012FC045E050E0BE018FE291E00E942B
:10315000A21A892B29F485EF91E00E9487161DC0E1
:1031600088818F3219F48981803251F146E050E034
:10317000BE0188E391E00E94A21A892B19F40E94F3
:103180007F110BC043E050E0BE018FE391E00E944D
:10319000A21A892B41F40E943A189093C701809398
:1031A000C6018AE010C044E050E0BE0183E491E033
:1031B0000E94A21A892B31F481E080938D0103C013
:1031C00080E001C08FEFDF91CF910895CF93DF931F
:1031D000F90150E0EC01A881BA2FBF7D01F1AA30BE
:1031E000F1F0511116C0B081AB1310C0A181AA2318
:1031F00011F031960CC0DC01119651E0EC0189818F
:103200008D3309F050E0F901CD0101C0F9010196BB
:10321000E1CFDC01FB0150E0415051090EC05130BB
:10322000C1F380E011C09A3071F0963261F0282F1E
:1032300030E0241735073CF491938E2F861B9D9127
:10324000292F2F7D81F71082DF91CF91089590ED86
:10325000980F9A3070F09FE9980F963010F48755C8
:1032600008959FEB980F963010F48753089580E0EF
:103270000895892F0895DF92EF92FF920F931F9385
:10328000CF93DF93EC018C0188818823E1F08B32AE
:10329000A1F0853299F47E0182E0E80EF11C89816B
:1032A0000E942719D82E8A810E94271990E1D99E61
:1032B00090011124822BE70101C080E2F801819383
:1032C0008F012196E1CFF8011082DF91CF911F91FC
:1032D0000F91FF90EF90DF900895FB01982F9F7062
:1032E000292F30E02A30310514F4905D01C0995A3D
:1032F000918382958F708A3010F4805D01C0895A65
:10330000808312820895AF92BF92DF92EF92FF9274
:103310000F931F93CF93DF931F92CDB7DEB75B015F
:103320008C0185E2D82EF80121918F012223E9F04A
:10333000C50101967C01203249F0822F90E029835B
:103340000E948E1A2981892B11F405C02BE2F50108
:1033500020835701E8CFF501D082B701822F0E9468
:103360006D19F3E0AF0EB11CDECFF50110820F90A6
:10337000DF91CF911F910F91FF90EF90DF90BF9061
:10338000AF900895CF92DF92EF92FF920F931F9329
:10339000CF93DF931F92CDB7DEB76C018B01FC0199
:1033A000108211821282138240E080E090E0F801E6
:1033B0005081511106C0F8011082433009F181E0BB
:1033C00024C04430C0F7009741F4252F30E020534B
:1033D00031092A30310508F4C8015E3271F4F80170
:1033E00010827601E40EF11C49830E94701AF701E5
:1033F000808349814F5F80E090E00F5F1F4FD7CF00
:103400000E94701AF601838380E00F90DF91CF91C4
:103410001F910F91FF90EF90DF90CF9008958F92C2
:103420009F92BF92CF92DF92EF92FF920F931F93E2
:10343000CF93DF931F92CDB7DEB77C01C42EB62E9B
:103440004B01D12C10E0882D8B198C15A8F4F401B8
:1034500081914F01A801B7016D0D711D90E0298385
:103460000E94B01A2981F701ED0DF11D8081D394DE
:103470008111F9CF2083E7CFDA94F701ED0DF11D2B
:1034800010820F90DF91CF911F910F91FF90EF90DD
:10349000DF90CF90BF909F908F900895A1E21A2E59
:1034A000AA1BBB1BFD010DC0AA1FBB1FEE1FFF1FE8
:1034B000A217B307E407F50720F0A21BB30BE40B38
:1034C000F50B661F771F881F991F1A9469F760957F
:1034D0007095809590959B01AC01BD01CF01089539
:1034E000FC0188279927E89421912032E9F32930BB
:1034F00010F02E30C8F32B3241F02D3239F468949D
:1035000004C00E94C61A820F911D219120532A30B7
:10351000C0F31EF4909581959F4F0895911106C0B8
:1035200080538A5010F0865C06C00895992788273A
:10353000089585FDFBCF80629111F8CF81568A51A5
:10354000E0F70895FB01DC014150504030F08D91CF
:103550000190801919F40020B9F7881B990B089580
:103560004532510520F4423010F00C94BB1AFB0197
:103570001082CB010895BB274A3031F4992322F4FD
:10358000BDE2909581959F4F0C94CF1A7AE0979F5A
:10359000902D879F802D910D11240895BB27FB014D
:1035A0005527AA27880F991FAA1FA41710F0A41B3C
:1035B00083955051B9F7A05DAA3308F0A95DA19396
:1035C000009779F7B111B1931192CB010C94F21CD1
:1035D000AEE0B0E0EEEEFAE10C94A01D0D891E897C
:1035E00086E08C831A8309838FEF9FE79E838D8308
:1035F000AE01475E5F4F6F89788DCE0101960E94C4
:103600000A1BEF81F885E00FF11F10822E96E4E08F
:103610000C94BC1DACE0B0E0E0E1FBE10C94921D29
:103620007C016B018A01FC0117821682838181FF74
:10363000BDC1CE0101964C01F7019381F60193FDC6
:10364000859193FF81916F01882309F4ABC1853285
:1036500039F493FD859193FF81916F01853229F4AF
:10366000B70190E00E94021DE7CF512C312C20E0E1
:103670002032A0F48B3269F030F4803259F083327A
:1036800069F420612CC08D3239F0803339F4216027
:1036900026C02260246023C0286021C027FD27C0E7
:1036A00030ED380F3A3078F426FF06C0FAE05F9E1E
:1036B000300D1124532E13C08AE0389E300D112492
:1036C000332E20620CC08E3221F426FD6BC12064A3
:1036D00006C08C3611F4206802C0883641F4F60129
:1036E00093FD859193FF81916F018111C1CF982F37
:1036F0009F7D9554933028F40C5F1F4FFFE3F983AF
:103700000DC0833631F0833771F0833509F05BC02B
:1037100022C0F801808189830E5F1F4F44244394A7
:10372000512C540115C03801F2E06F0E711CF801E4
:10373000A080B18026FF03C0652D70E002C06FEF4E
:103740007FEFC5012C870E94E71C2C0183012C858B
:103750002F77222E17C03801F2E06F0E711CF8018E
:10376000A080B18026FF03C0652D70E002C06FEF1E
:103770007FEFC5012C870E94DC1C2C012C85206862
:10378000222E830123FC1BC0832D90E0481659068E
:10379000B0F4B70180E290E00E94021D3A94F4CFA9
:1037A000F50127FC859127FE81915F01B70190E02B
:1037B0000E94021D31103A94F1E04F1A5108411451
:1037C000510471F7E5C0843611F0893639F5F801F6
:1037D00027FF07C060817181828193810C5F1F4F39
:1037E00008C060817181882777FD8095982F0E5FD2
:1037F0001F4F2F76B22E97FF09C090958095709538
:1038000061957F4F8F4F9F4F2068B22E2AE030E0A6
:10381000A4010E94341DA82EA81844C0853729F49D
:103820002F7EB22E2AE030E025C0F22FF97FBF2E86
:103830008F36C1F018F4883579F0B4C0803719F0AC
:10384000883721F0AFC02F2F2061B22EB4FE0DC0FB
:103850008B2D8460B82E09C024FF0AC09F2F96606C
:10386000B92E06C028E030E005C020E130E002C0FB
:1038700020E132E0F801B7FE07C0608171818281EA
:1038800093810C5F1F4F06C06081718180E090E0E2
:103890000E5F1F4FA4010E94341DA82EA818FB2DF7
:1038A000FF77BF2EB6FE0BC02B2D2E7FA51450F434
:1038B000B4FE0AC0B2FC08C02B2D2E7E05C07A2CA7
:1038C0002B2D03C07A2C01C0752C24FF0DC0FE01E6
:1038D000EA0DF11D8081803311F4297E09C022FF99
:1038E00006C07394739404C0822F867809F0739491
:1038F00023FD13C020FF06C05A2C731418F4530C78
:103900005718732C731468F4B70180E290E02C8789
:103910000E94021D73942C85F5CF731410F4371890
:1039200001C0312C24FF12C0B70180E390E02C8746
:103930000E94021D2C8522FF17C021FF03C088E5CD
:1039400090E002C088E790E0B7010CC0822F867833
:1039500059F021FD02C080E201C08BE227FD8DE21B
:10396000B70190E00E94021DA51438F4B70180E36E
:1039700090E00E94021D5A94F7CFAA94F401EA0D38
:10398000F11D8081B70190E00E94021DA110F5CFCA
:10399000332009F451CEB70180E290E00E94021D6D
:1039A0003A94F6CFF7018681978102C08FEF9FEF9F
:1039B0002C96E2E10C94AE1DFC0105906150704024
:1039C0000110D8F7809590958E0F9F1F0895FC01E8
:1039D0006150704001900110D8F7809590958E0F3E
:1039E0009F1F0895DC01FC01672F71917723E1F798
:1039F000329704C07C916D9370836291AE17BF07BC
:103A0000C8F308950F931F93CF93DF93182F092FB7
:103A1000EB018B8181FD03C08FEF9FEF20C082FF00
:103A200010C04E815F812C813D81421753077CF489
:103A3000E881F9819F012F5F3F4F398328831083ED
:103A400006C0E885F985812F0995892B29F72E81F4
:103A50003F812F5F3F4F3F832E83812F902FDF9138
:103A6000CF911F910F910895FA01AA27283051F1A3
:103A7000203181F1E8946F936E7F6E5F7F4F8F4F9F
:103A80009F4FAF4FB1E03ED0B4E03CD0670F781FFE
:103A9000891F9A1FA11D680F791F8A1F911DA11DE3
:103AA0006A0F711D811D911DA11D20D009F468941C
:103AB0003F912AE0269F11243019305D3193DEF6C4
:103AC000CF010895462F4770405D4193B3E00FD07A
:103AD000C9F7F6CF462F4F70405D4A3318F0495D65
:103AE00031FD4052419302D0A9F7EACFB4E0A69548
:103AF0009795879577956795BA95C9F7009761056A
:103B0000710508959B01AC010A2E069457954795BF
:103B100037952795BA95C9F7620F731F841F951FB4
:103B2000A01D08952F923F924F925F926F927F92C5
:103B30008F929F92AF92BF92CF92DF92EF92FF92BD
:103B40000F931F93CF93DF93CDB7DEB7CA1BDB0B69
:103B50000FB6F894DEBF0FBECDBF09942A8839880E
:103B600048885F846E847D848C849B84AA84B98415
:103B7000C884DF80EE80FD800C811B81AA81B98121
:103B8000CE0FD11D0FB6F894DEBF0FBECDBFED0135
:063B90000895F894FFCF38
:103B96000A010001500A0086820411C0A80001C073
:103BA600A800575455581000293230300047455464
:103BB6002000256425642564002F666C7220002F82
:103BC600617070666C7220002F74312E6A73002F3C
:083BD6006D20002F723F20005A
:00000001FF
