:100000000C9416030C9433030C9433030C943303B5
:100010000C9433030C9433030C9433030C94330388
:100020000C9433030C9433030C9433030C949E0D03
:100030000C9433030C9433030C94610D0C94330330
:100040000C9433030C9433030C9433030C94330358
:100050000C9433030C9433030C9433030C94330348
:100060000C9433030C9433030D0A436F6E74656E66
:10007000742D547970653A206170706C6963617495
:10008000696F6E2F782D7777772D666F726D2D756E
:10009000726C656E636F6465640D0A0D0A00436FD0
:1000A0006E74656E742D4C656E6774683A20000D31
:1000B0000A557365722D4167656E743A20746772D4
:1000C0002F312E310D0A4163636570743A202A2F57
:1000D0002A0D0A436F6E6E656374696F6E3A206312
:1000E0006C6F73650D0A000D0A0020485454502FA0
:1000F000312E310D0A486F73743A2000504F53541B
:1001000020000D0A557365722D4167656E743A20A3
:100110007467722F312E300D0A4163636570743A33
:1001200020746578742F68746D6C0D0A436F6E6E61
:10013000656374696F6E3A20636C6F73650D0A0DA9
:100140000A0020485454502F312E310D0A486F7345
:10015000743A20004745542000E30004FA000100EF
:10016000000001450000820000400020000108005E
:1001700006040001485454502F312E3020343031C1
:1001800020556E617574686F72697A65640D0A43F3
:100190006F6E74656E742D547970653A207465784D
:1001A000742F68746D6C0D0A0D0A3C68313E343052
:1001B0003120556E617574686F72697A65643C2F81
:1001C00068313E003C68313E323030204F4B3C2F8E
:1001D00068313E003C2F7072653E3C62723E3C6866
:1001E000723E546F6D61737A204B003C2F666F72C4
:1001F0006D3E0A003C696E70757420747970653DBF
:100200007375626D69742076616C75653D227365E6
:100210006E64223E0A003C666F726D2061637469F1
:100220006F6E3D2F72206D6574686F643D676574F5
:100230003E0A006E7470207365727665723A200013
:100240003C68323E73656E64206E74702072657116
:10025000756573743C2F68323E3C7072653E0A00CF
:100260003C6120687265663D2F3E5B686F6D655D21
:100270003C2F613E003C2F7072653E0A006D696E36
:100280003C2F68323E003C2F68313E3C68323E00D5
:100290003C666F6E7420636F6C6F723D277265648D
:1002A000273E2D2D2D3C2F666F6E743E00507261DF
:1002B00063612E2E00437A656B616D0053746F701D
:1002C000003C666F6E7420636F6C6F723D277265C1
:1002D00064273E415741524941213C2F666F6E745D
:1002E0003E003C68313E53544F444F4C413A20004D
:1002F0003C68723E003C68313E3C2F68313E006DE8
:10030000696E3C2F68323E003C2F68313E3C6832BB
:100310003E003C666F6E7420636F6C6F723D277297
:100320006564273E2D2D2D3C2F666F6E743E005068
:10033000726163612E2E2E00437A656B616D0053EE
:10034000746F70003C666F6E7420636F6C6F723DEB
:1003500027726564273E415741524941213C2F662F
:100360006F6E743E003C68313E4F424F52413A201E
:10037000003C2F693E0A0A003C693E6E72206F64A1
:10038000703A003C68723E3C696D67207372633D51
:1003900068747470733A2F2F6269742E6C792F32DF
:1003A0005764597348782077696474683D22323005
:1003B0003022206865696768743D22323030223E01
:1003C000003C7072653E003C736372697074207308
:1003D00072633D74312E6A733E3C2F736372697091
:1003E000743E00293C2F7363726970743E5D2C204B
:1003F000005B3C7363726970743E74327328003C16
:1004000062723E3C68723E006E6F6E6500293C2F42
:100410007363726970743E5D00205B3C7363726944
:1004200070743E74327328000A0A54696D65207234
:100430006563656976656420696E20554E4958206C
:100440007365632073696E636520313937303A0A0A
:100450003C2F7072653E000A537563636573736663
:10046000756C20616E73776572733A20000A4E7561
:100470006D626572206F6620726571756573747345
:100480003A20006E6F00796573000A4757206D614E
:1004900063206B6E6F776E3A20003C68323E4E549C
:1004A0005020726573706F6E73652073746174751C
:1004B000733C2F68323E0A3C7072653E0A003C7302
:1004C0006372697074207372633D74312E6A733E77
:1004D0003C2F7363726970743E003C6120687265E2
:1004E000663D2F6D3E5B6E6577206E747020717572
:1004F0006572795D3C2F613E20003C612068726529
:10050000663D2F3E4F4B3C2F613E0066756E637417
:10051000696F6E20743273286E297B0A76617220AF
:1005200074203D206E65772044617465286E2A3101
:10053000303030293B0A646F63756D656E742E77B9
:100540007269746528742E746F4C6F63616C6553A7
:100550007472696E672829293B0A7D0A0048545441
:10056000502F312E3020323030204F4B0D0A436F48
:100570006E74656E742D547970653A206170706C7C
:1005800069636174696F6E2F782D6A617661736338
:10059000726970740D0A0D0A000A3C2F666F6E7442
:1005A0003E003C666F6E7420636F6C6F723D276710
:1005B0007265656E272073697A653D2735273E0091
:1005C0003C666F6E7420636F6C6F723D277265645A
:1005D000272073697A653D2735273E003C666F6E9C
:1005E000742073697A653D2735273E00485454507E
:1005F0002F312E3020323030204F4B0D0A436F6E9A
:1006000074656E742D547970653A20746578742F12
:1006100068746D6C0D0A507261676D613A206E6F7F
:100620002D63616368650D0A0D0A000011241FBE69
:10063000CFEFD8E0DEBFCDBF11E0A0E0B1E0E0EB4E
:10064000FFE202C005900D92A034B107D9F724E073
:10065000A0E4B1E001C01D92A73FB207E1F70E94FC
:10066000980E0C94D6170C9400002A98962F9F7120
:10067000982B9EBD0DB407FEFDCF1EBC0DB407FE2A
:10068000FDCF67FD03C02A9A8EB508951EBC0DB438
:1006900007FEFDCFF8CF2A986F71682B6EBD0DB4A1
:1006A00007FEFDCF4EBD0DB407FEFDCF2A9A08957B
:1006B000FB012A982AE32EBD0DB407FEFDCF8E0F55
:1006C0009F1FE817F90739F01EBC0DB407FEFDCFD8
:1006D0002EB52193F6CF10822A9A08952A982AE7F8
:1006E0002EBD0DB407FEFDCF860F971F6817790743
:1006F00041F0FB012191BF012EBD0DB407FEFDCFDE
:10070000F5CF2A9A08951F93CF93DF93182F107671
:10071000C12FD0E02091420130E0C217D30789F009
:1007200043E06FE180EA0E944B03AE0185E05595FE
:1007300047958A95E1F76FE180E80E944B0310939B
:100740004201DF91CF911F910895CF93DF931F92C4
:10075000CDB7DEB7682F69830E948303698180E08B
:100760000F90DF91CF910C9435031F93CF93DF93BC
:100770001F92CDB7DEB7182F69830E94830349818A
:10078000612F80E40F90DF91CF911F910C944B0368
:10079000682F84ED0E94B50361E082ED0E94B503ED
:1007A00088E28A95F1F78AEE0E94A50380FDFBCFCF
:1007B00060E082ED0E94B50389ED0E94A50390E000
:1007C00008951F93CF93DF931F92CDB7DEB7162FF7
:1007D000682F84ED79830E94B503612F86ED0E9416
:1007E000B5037981672F87ED0E94B50318E28AEE81
:1007F0000E94A50380FF04C0812F8A95F1F7F7CFEF
:100800000F90DF91CF911F910895682F677085E752
:100810000C94B503CF93DF93EC01229A2A9A84B10A
:10082000886284B9249A2B9A2D9A80E58CBD8DB567
:1008300081608DBD4FEF60E08FEF0E944B0380E041
:1008400090E00197F1F7109241011092400160E0B1
:1008500088E00E94B50360E089E00E94B50360E093
:100860008CE00E94B50360E08DE00E94B5036FEF5D
:100870008AE00E94B50369E18BE00E94B50360E065
:1008800084E00E94B5036AE185E00E94B5036FEF42
:1008900086E00E94B5036FE187E00E94B50360EB3C
:1008A00088E30E94B5036FE388E20E94B50360E32A
:1008B00089E20E94B50369EF80E30E94B50367EF08
:1008C00081E30E94B5036DE080EC0E94B50360E017
:1008D00081EC0E94B50342E362EC80E80E944B0386
:1008E00062E186EC0E94B5036CE087EC0E94B503E0
:1008F00062E184EC0E94B5036CED8AEC0E94B503C2
:1009000065E08BEC0E94B503688184EE0E94B5031C
:10091000698185EE0E94B5036A8182EE0E94B5036B
:100920006B8183EE0E94B5036C8180EE0E94B5035B
:100930006D8181EE0E94B50360E071E080E10E946C
:10094000E1038FE10E94830340EC6BE180E80E94A9
:100950004B0344E06FE180E8DF91CF910C944B03AF
:1009600082E70E94A503863008F08F5F089581E139
:100970000E94C80321E0892B09F420E0822F08950A
:100980000F931F93CF93DF93EC018B016FE180E016
:100990000E94350383FF10C08CE10E94A50381FFF4
:1009A000F5CF40E86FE180E80E944B0340E86FE13B
:1009B00080EA0E944B03EACF60E082E00E94B50328
:1009C0006AE183E00E94B5036C2F86E00E94B503C4
:1009D000CE01965E692F87E00E94B50340E060E09B
:1009E0008AE70E944B03B801CE010E946E0348E0E3
:1009F0006FE180E8DF91CF911F910F910C944B0331
:100A000089E30E94A50391E0811101C090E0892F44
:100A100008959F92AF92BF92CF92DF92EF92FF9292
:100A20000F931F93CF93DF937C016B0189E30E94A7
:100A3000A503882309F45BC060914001C091410186
:100A400080E00E94B5036C2F81E00E94B50360E056
:100A50008AE30E943503082F60E08AE30E94350391
:100A600010E0182B109341010093400160E08AE3ED
:100A70000E943503C82F60E08AE30E943503982E58
:100A800060E08AE30E943503A82E60E08AE30E94BA
:100A90003503A7FE0FC0970121503109D0E0D929B5
:100AA00024972C173D0708F4E901B601CE010E94F6
:100AB000580302C0C0E0D0E06FEF01308AE11807B0
:100AC0002CF08CE00E94B50369E107C0600F8CE058
:100AD0000E94B50301501109612F8DE00E94B503FA
:100AE00040E46EE180E80E944B03CE0102C080E04A
:100AF00090E0DF91CF911F910F91FF90EF90DF90E9
:100B0000CF90BF90AF909F900895E1E8F0E0808192
:100B100088608083808185608083EFE6F0E080815B
:100B2000826080838EEA9FE29093890080938800A0
:100B3000089553985B9A54985C9A55985D9A569884
:100B40005E9A57985F9A2098289A3C9A449A0895FA
:100B500084B5826084BD85B5856085BDEEE6F0E034
:100B600080818260808389E787BD08950F931F93FA
:100B7000CF93DF93EC01D901FB012081242391E085
:100B80008881222311F090E004C0811102C0988373
:100B90000BC0882331F19923D1F0813041F48C913D
:100BA00081111FC082E088838EE18C931AC082304D
:100BB00039F48C91811115C083E0888382E012C0E2
:100BC000833079F49C9181E0992361F00AC08230EE
:100BD00040F00115110511F0F8010995188283E024
:100BE00001C080E0DF91CF911F910F910895EF92A6
:100BF000FF920F931F93CF93DF93890190916B0125
:100C0000891751F0E0916801F091690140E050E0EE
:100C100060E070E084E02BC061112AC02D30310506
:100C200038F1C0916801D0916901209709F1E090F5
:100C30005C01F0905D01BA01675F7F4F6E0D7F1D13
:100C400043E050E089E191E00E94AF14F70166A50E
:100C500062956F70F4E06F9FB00111246E5D7F4F5D
:100C6000A801892B11F480E001C081E0FE01099503
:100C700080E0DF91CF911F910F91FF90EF90089549
:100C8000FF920F931F93CF93DF93FB01413051F4F9
:100C9000AB014850510960E070E04F5E5F4F6F4F0D
:100CA0007F4F0FC0423051F4AB014850510960E012
:100CB00070E04A5F5F4F6F4F7F4F03C040E050E0EE
:100CC000BA01EF01DC01C230D10598F00C9110E0BF
:100CD00020E030E0322F212F102F00271196FC90BA
:100CE00011970F29400F511F621F731F12962297F1
:100CF000EACFDF01AE7FA80FB91FE0FF0CC08C91D7
:100D000090E0A0E0B0E0BA2FA92F982F8827480FD5
:100D1000591F6A1F7B1FCB01AA27BB270097A1057C
:100D2000B10519F066277727F2CFCA018095909513
:100D3000DF91CF911F910F91FF900895509378010B
:100D400040930401FB01A5E4B1E021912D9321E042
:100D5000A934B207D1F7FC01A9E4B1E081918D93E8
:100D600081E0AF34B807D1F70895DC015A96FB0152
:100D700080E02D919191291305C08F5F8430C9F7D0
:100D800081E0089580E0089569327105A8F0FC01C2
:100D90002485283089F42585263071F4DC01969667
:100DA000E5E4F1E09D918191981306C081E0E9347A
:100DB000F807C1F781E0089580E00895FC016A32E8
:100DC0007105B0F08485883099F48585811110C053
:100DD0008685853469F47E96A5E4B1E091918D9184
:100DE000981306C081E0A934B807C1F781E00895DF
:100DF00080E00895CF93DF93E9E4F1E0DC011696FB
:100E00002C91EC012993CE0121912D93D1E0EF3467
:100E1000FD07B1F7DF91CF910895CF93DF93EC01F8
:100E2000188E198E80E48C8B1D8A8E8B40E064E1D5
:100E300070E0CE010E960E944006988F898FDF9158
:100E4000CF910895CF93DF93EC016E96E5E4F1E046
:100E5000DC015A962C91299321912D9321E0E934BC
:100E6000F207C1F7DF91CF910C940D07FC01BA9600
:100E7000DC019E9686962291620F711D2E916C93D5
:100E8000442311F0208301C01082672F7727E817D1
:100E9000F90789F70895CF93DF93EC018CA19AA10C
:100EA0009CA38AA38DA19BA19DA38BA3CE010E948D
:100EB00036071AAA1BAA80E58EA7DF91CF91089565
:100EC000CF93DF93EC010E94FA061C8A82E08D8B9F
:100ED000CE01809649E451E0DE0156962C91FC014A
:100EE0002193CF01FA012191AF012D93F1E04F340D
:100EF0005F07A1F7CE01869645E451E0DE015C96DE
:100F00002C91FC012193CF01FA012191AF012D9386
:100F1000F1E049345F07A1F7BE018AE290E0DF917A
:100F2000CF910C94C0040F931F93CF93DF93EC01E8
:100F30008B010E94FA06CE010E9422071AA29CA1F0
:100F4000983F18F08DA18F5F8DA3985F9CA3BE0181
:100F5000C801DF91CF911F910F910C94C004DF92D3
:100F6000EF92FF920F931F93CF93DF93EC01162F15
:100F7000F72E042FE22ED32E0E94FA060D3D08F024
:100F80000CED188A8CE1800F898BCE010E9422071C
:100F90008AA18CA38BA18DA3DAA2EBA21EA288E06A
:100FA000800F8FA318A619A6912FDE019A96E12F24
:100FB000FF2D8E2F891B801718F481918D93F9CF07
:100FC00010E0B801605F7F4F41E0CE014A960E9479
:100FD000400698A789A7BE01C8018A96DF91CF91E4
:100FE0001F910F91FF90EF90DF900C94C004CF936E
:100FF000DF93EC010E94FA06188A8CE2898BCE01FD
:101000000E94220782E18FA740E061E070E0CE01FC
:101010000E944B071EA21FA28091000188A719A65B
:101020008D5F8093000182E08EAB84E08FAB85E022
:1010300088AF19AE90E69EA788AB88E789AB42E0FF
:1010400060E270E0CE014A960E9440069AAB8BABFC
:10105000BE018AE390E0DF91CF910C94C004FC01C3
:10106000808990E0982F88272189822B449726A594
:1010700022952F7034E0239F80199109112497FF46
:1010800002C080E090E008959C01CB01461B570B05
:10109000FA01E80FF91FE491EE2339F0D901A80F06
:1010A000B91FD696EC930196F3CF0895DB01D6963F
:1010B000A80FB91FFA01420F4E1719F081918D93B5
:1010C000FBCFCB01820F911D0895FA010190002002
:1010D000E9F79F0121503109241B350B0C94560868
:1010E000EF92FF920F931F93CF93DF9300D000D026
:1010F0001F92CDB7DEB790916B0189139CC0809190
:101100006A0100915C0110915D0181112CC044E5E0
:1011100051E060E070E0C8010E9444084091620123
:1011200050916301BC01C8010E94440840916001D4
:1011300050916101BC01C8010E94650842E451E080
:10114000BC01C8010E94440840915E0150915F01BA
:10115000BC01C8010E94440842E051E0BC01C80142
:101160000E9444086AC04CEF50E060E070E0C801A3
:101170000E9444084091620150916301BC01C80182
:101180000E9444084AEE50E0BC01C8010E94440895
:1011900040915E0150915F01BC01C8010E9444086A
:1011A000E0906601F0906701E114F10459F047EE18
:1011B00050E0BC01C8010E944408A701BC01C8015D
:1011C0000E9444084FEA50E0BC01C8010E94440854
:1011D0004EE950E0BC01C8010E9444087C01A09186
:1011E0006401B0916501FD0101900020E9F731979C
:1011F0004AE0BE016F5F7F4FCF018A1B9B0B0E94AD
:10120000C81400915C0110915D01AE014F5F5F4F0A
:10121000B701C8010E94650848E650E0BC01C8015A
:101220000E9444084091640150916501BC01C801CD
:101230000E94650802C080E090E00F900F900F9030
:101240000F900F90DF91CF911F910F91FF90EF9032
:1012500008950F931F93CF93DF9300D01F92CDB7C4
:10126000DEB78C014B8369837A830E94FA064B8137
:10127000842F8061F80187A769817A81443029F041
:101280006115710511F461E070E041E0C8010E9450
:101290004B07F801108A88E2818BC8010E9422075F
:1012A00084E0F80180AB11AA42E06CE170E0C80173
:1012B0004A960E944006F80192AB83ABB80186E3E0
:1012C00090E00F900F900F90DF91CF911F910F91B1
:1012D0000C94C0040F931F93CF93DF93EC018B0109
:1012E000CB018896988B898BCE010E940D071AAA94
:1012F0001BAAB801645E7F4F42E0CE014A960E946D
:1013000040069AAB8BABBE01C801C696DF91CF9168
:101310001F910F910C94C0040F931F93CF93DF93F1
:10132000EC018B01609143017091440140E00E9407
:10133000290989E18FA7B801CE01DF91CF911F91D3
:101340000F910C946A09640F751F4617570741F0F7
:10135000FA012491FC012193CF014F5F5F4FF5CF3C
:101360000895FF920F931F93CF93DF93EC01F62E16
:10137000072F142FE0E5F1E09C0189E491E0BE0124
:101380006A5F7F4F4191D9014D939D01DC014D91E1
:10139000CD01DB014D93BD01B1E0E635FB0791F7CF
:1013A00088E08C871D8643E651E069E070E0CE015D
:1013B0000E960E94A3098CE4898B81E18F8B6F2D9F
:1013C000702FCE014E96A5E4B1E0FB012191BF0143
:1013D000FC012193CF014D919F0125503109F90165
:1013E0004083F1E0A934BF0781F7CE010E940D07C9
:1013F0001CA28BE78DA38AE08AA31BA31EA288E30D
:101400008FA318A619A6CE018A96FC0120E011929E
:101410002F5F2033E1F749E551E06AE070E00E9478
:10142000A30941E060E470E0CE014A960E944006C4
:1014300098A789A7BE018AE590E0DF91CF911F911F
:101440000F91FF900C94C004CF93DF93FC01DB015C
:10145000442319F085A1841324C086A1811121C0E1
:1014600087A18833F1F483A18B37D9F4EF01CE5AE9
:10147000DF4F88812196488150E060E070E0BA013A
:1014800055274427782B22968881482BEC5AFF4F0A
:101490008081582B4D935D936D937C93139781E0DE
:1014A00001C080E0DF91CF9108950F931F93CF93F8
:1014B000DF93EC018B01AE014A5F5F4FE9E4F1E09D
:1014C0003FEFDC013D93CD012191DA012D93AD0178
:1014D000B1E0EF34FB07A9F788E08C8786E08D87C1
:1014E0004CE651E068E070E0CE010E960E94A30940
:1014F000DE01909649E451E0FA012191AF01CD015E
:101500000A97FC0120831D92F1E04F345F07A1F799
:10151000B801CE018696A5E4B1E0FB012191BF019F
:10152000FC012193CF014D919F012B503109F9010D
:101530004083F1E0A934BF0781F780914F018860B3
:1015400080934F01BE018AE290E0DF91CF911F911D
:101550000F910C94C00480914F018695817091E0A9
:1015600089270895DC015C96E6E5F1E03D91219143
:1015700032130FC021E0EA35F207C1F7DC015696BD
:10158000E0E5F1E08D91819381E0E635F807D1F750
:1015900002C080E0089581E0089580914F0181FFAD
:1015A00003C0846080934F01089521E020934F0190
:1015B000E6E5F1E0DC012D91CD012193B1E0EA35C2
:1015C000FB07C1F70895E3E7F1E0DC012D91CD01C0
:1015D0002193B1E0E737FB07C1F70895DF92EF925F
:1015E000FF920F931F93CF93DF93EC01F62EE42E1F
:1015F000D22EE0E5F1E08C0189E491E0AE014A5F92
:101600005F4F2191D8012D938D01DC012D91CD01EA
:10161000DA012D93AD01B1E0E635FB0791F788E0E3
:101620008C871D8643E651E069E070E0CE010E969E
:101630000E94A3098CE2898B86E08F8B63E771E0BF
:10164000DE015E9685E491E0FB012191BF012D93BF
:10165000FC014191CF019D0125503109F9014083E1
:10166000F1E067377F0781F7CE010E940D07ECA2FA
:10167000DDA28BE08AA3FBA2FE01B69688E0119260
:101680008150E9F78091000188A78D5F8093000168
:1016900080E68EA782E08FA793E098AB19AA1AAADA
:1016A0001BAA1CAA1DAA8EAB94E09FAB88AF86E252
:1016B00089AF42E060E270E0CE014A960E944006A7
:1016C0009AAB8BABBE018AE390E0DF91CF911F9183
:1016D0000F91FF90EF90DF900C94C00490936F01F6
:1016E00080936E0170936D0160936C015093710152
:1016F0004093700181E080937201809177018F5F48
:10170000883018F48093770102C01092770180919D
:101710007701089590936301809362017093610152
:101720006093600150935F0140935E0110926A01E3
:10173000309369012093680140E550E060E778E06C
:1017400087EF95E00E946E0B80936B0108950F93D5
:101750001F93909363018093620170935F01609384
:101760005E015093670140936601309365012093B9
:10177000640181E080936A0110936901009368011C
:1017800040E550E060E778E087EF95E00E946E0B5F
:1017900080936B011F910F91089590935B0180934B
:1017A0005A010895CF92DF92EF92FF920F931F9309
:1017B000CF93DF931F92CDB7DEB76C018B0161151C
:1017C0007105E9F580914F01857079F080910101F3
:1017D00090910201892B49F40E94B704882329F0D3
:1017E00066E571E0C6010E94550A80910101909161
:1017F0000201019690930201809301018091720190
:10180000813009F04BC180914F0181FF47C182E0D7
:1018100080937201609103016F5F609303016F71A8
:101820008091770120E2829FC0011124682B2091D2
:10183000700140917101C6010E94EE0A2FC10E9401
:10184000C4068823D1F0D60155968C91813019F4C5
:10185000C6010E94600780914F0183FF1FC1F601FE
:101860001589123009F01AC1C6010E94B20A8823F4
:1018700009F414C110934F0111C1B801C6010E94AF
:10188000DE06882309F40AC1D60157968C91579732
:10189000813099F492968C91883009F004C1E091DE
:1018A0005A01F0915B01309719F0C6014A960995EB
:1018B000B801C6010E949307F1C00633110518F460
:1018C000863009F0EBC0F60184A18B3009F0B3C07B
:1018D000D0925D01C0925C0163E771E0C6010E9495
:1018E000B506882309F4DAC0D6019F962C919F97FC
:1018F00022FF13C0E0916E01F0916F01309709F45F
:1019000090C095968C9120E030E040E050E063E09C
:10191000829586958770099584C0C60129830E94A7
:101920002F087C01809172012981823099F5822FE4
:1019300080712271223109F540E060E070E0C6015B
:101940000E94290988E1F60187A7E0916C01F091D6
:101950006D01309741F0D60193968C9182958695D2
:101960008770099502C080E090E023E02093720127
:10197000BC01C6010E946A0991C091E09093720176
:10198000811104C0B7016F5F7F4F02C060E070E05B
:1019900044E071C08330A9F5E114F10491F184E0D1
:1019A00080937201E0916E01F0916F01309749F1DF
:1019B000D6019E964C9142954F70B4E04B9FA0018A
:1019C0001124C80108974E5D5F4F8417950708F4EE
:1019D000AC01C701840F951F0817190720F498015F
:1019E000241B350B01C09701D60195968C9160E0C0
:1019F0008295869587700995882319F049E0B7018B
:101A00000DC080917201853009F448C0F60187A5A8
:101A100080FF0BC0B7016F5F7F4F49E0C6010E9496
:101A2000290985E08093720139C0E114F104B1F114
:101A300040E0B70120C09091780189132FC095A193
:101A40008091040198132AC0F7A4F1FE04C0C601D6
:101A50000E94F70723C0F4FE21C0C6010E942F0890
:101A60009093440180934301892B49F4F0FE16C002
:101A700040E060E070E0C6010E9429090FC0F60155
:101A800026A522952F70F4E02F9F900111242E5D42
:101A90003F4F085011090217130718F480E090E037
:101AA00006C0C90104C006331105C0F30CCF0F9066
:101AB000DF91CF911F910F91FF90EF90DF90CF902A
:101AC00008951F920F920FB60F9211248F93809159
:101AD000B001882319F081508093B0018091AE014C
:101AE000882319F081508093AE018091A70188234B
:101AF00019F081508093A7018091AA01882319F0E1
:101B000081508093AA018091AF01882319F0815000
:101B10008093AF018091AD01882319F081508093AB
:101B2000AD018091B101882319F081508093B101FA
:101B30008F910F900FBE0F901F9018951F920F92CC
:101B40000FB60F9211248F939F93AF93BF9388B1D9
:101B500090E1892788B98091800190918101A091BD
:101B60008201B09183010196A11DB11D8093800176
:101B700090938101A0938201B0938301809105012C
:101B800090910601892B49F0809105019091060101
:101B900001979093060180930501BF91AF919F91AA
:101BA0008F910F900FBE0F901F9018950F931F935A
:101BB000CF938091B0018111B7C000E010E02EEA10
:101BC00031E048E069E270E08EE791E00E94B605FE
:101BD0008093AC0127EA31E040E169E270E08DE7F3
:101BE00091E00E94B6058093B3012AEA31E040E219
:101BF00069E270E08CE791E00E94B6058093A9014C
:101C00002FEA31E040E469E270E08BE791E00E9466
:101C1000B6058093A8012DEA31E040E869E270E062
:101C20008AE791E00E94B6058093AB0121EB31E099
:101C300041E063E270E089E791E00E94B60580939D
:101C4000B2012091A901223081F48091800190910C
:101C50008101A0918201B09183018093BA01909398
:101C6000BB01A093BC01B093BD01C091A801C230DB
:101C700081F48091800190918101A0918201B091C5
:101C800083018093CA019093CB01A093CC01B093C0
:101C9000CD01213011F56091800170918101809119
:101CA0008201909183010091BA011091BB012091B2
:101CB000BC013091BD01601B710B820B930B2CE3B7
:101CC00030E040E050E00E945B142093B401309378
:101CD000B5014093B6015093B701C13011F5609141
:101CE0008001709181018091820190918301009126
:101CF000CA011091CB012091CC013091CD01601B24
:101D0000710B820B930B2CE330E040E050E00E941B
:101D10005B142093EF043093F0044093F10450934C
:101D2000F20484E68093B001CF911F910F91089542
:101D300080E8809361001092610080E08A95F1F75D
:101D400083E191E00E940A0482E00E94050480E0A1
:101D50008A95F1F766E774E084E10E94E10341E7C8
:101D600053E06FE071E083E191E00E949E068BE01A
:101D700091E00E94D50A0E94A8050E94850583E291
:101D800094EF0197F1F700C000000E949905449874
:101D90009FE121EA87E0915020408040E1F700C0B8
:101DA0000000449A789429E288E190E00FB6F89414
:101DB000A895809360000FBE20936000FF24F394E9
:101DC000C8EFD5E2A8950E94D60D809105019091AB
:101DD0000601892B31F4F0928401D0930601C0935F
:101DE00005016EEC71E080E293E00E9409056C0150
:101DF000BC018EEC91E00E94D20B8C019093B90152
:101E00008093B8010097E9F144E050E0BC016253CF
:101E10007E4F8DE191E00E94AF14892B51F00E941A
:101E20009F0F9093B9018093B80144EC51E0BC013D
:101E30000BC0C8018E529E4F0E949E128F3F49F4E4
:101E400044E751E060E070E08EEC91E00E944408CD
:101E500009C0813019F40E94B80F04C08A3031F0F3
:101E60000E94C10F9093B9018093B801449860918A
:101E7000B8017091B9018EEC91E00E948C09449AEE
:101E8000A1CFB6018EEC91E00E94DE0681111CC04C
:101E900080918401882309F495CF0E94AB0A8111B7
:101EA00091CF40917F014F5F40937F011092840159
:101EB00067E071E08EEC91E00E94B10980918601AB
:101EC0008F5F809386017ECF8091E501813109F09B
:101ED00079CF8091F001811175CF8091F1018B371D
:101EE00009F070CF40917F0160E871E08EEC91E0E5
:101EF0000E94240A882309F465CF80918001909183
:101F00008101A0918201B091830180918001909123
:101F10008101A0918201B091830180589E47AA4A15
:101F2000B3488093800190938101A0938201B09384
:101F30008301809185018F5F8093850143CF4CEEB3
:101F400055E060E070E08EEC91E00C9444084DE5C3
:101F500055E060E070E08EEC91E00C9444080E9443
:101F6000A70F4BE055E0BC018EEC91E00C944408C7
:101F70000E949F0F4AEF54E0BC018EEC91E00C945C
:101F800044084F925F927F928F929F92AF92BF923E
:101F9000CF92DF92EF92FF920F931F93CF93DF9335
:101FA00000D0CDB7DEB7C0908001D0908101E09025
:101FB0008201F09083010E949F0F4AED54E0BC0122
:101FC0008EEC91E00E9444084EEB54E0BC018EEC94
:101FD00091E00E9444084AE954E0BC018EEC91E093
:101FE0000E9444084AE854E0BC018EEC91E00E9453
:101FF0004408BC0189837A830E94AB0A69817A8193
:10200000811103C046E854E002C043E854E08EEC7E
:1020100091E00E9444084DE654E0BC018EEC91E052
:102020000E9444088C01809186014AE062E971E0D7
:1020300090E00E94C81442E951E0B8018EEC91E0B2
:102040000E94650847E554E0BC018EEC91E00E94D7
:1020500044088C01809185014AE062E971E090E0DA
:102060000E94C81442E951E0B8018EEC91E00E9450
:10207000650848E254E0BC018EEC91E00E944408FF
:102080008C0180918501882309F440C01092910150
:102090008AE0782E9AE0892E912CA12CB12CC114C3
:1020A000D104E104F104A9F0772099F07A94472C47
:1020B000512CC20189579E4F2C01C701B601A501C1
:1020C00094010E945B14605DF201608369017A01F2
:1020D000E6CFE72CF12CC70189579E4F7C01AC015C
:1020E000B8018EEC91E00E94650849E154E0BC0122
:1020F0008EEC91E00E944408A701BC018EEC91E0B7
:102100000E9465084DE054E0BC0103C048E054E083
:10211000B8018EEC91E00E9444084FEF53E0BC01FF
:102120008EEC91E00F900F90DF91CF911F910F9166
:10213000FF90EF90DF90CF90BF90AF909F908F90E7
:102140007F905F904F900C944408BF92CF92DF92A3
:10215000EF92FF920F931F93CF93DF93EA011092B8
:1021600091012AE0B22E3AE0C32ED12CE12CF12CC1
:10217000611571058105910589F0BB2079F0BA944C
:102180000B2D10E009571E4FA70196010E945B140A
:10219000605DF8016083B901CA01EACF6881798185
:1021A00041EF53E08EEC91E00E94440899838883CC
:1021B0004B2D50E049575E4FBC018EEC91E00E94E0
:1021C00065089983888343EE53E0BC018EEC91E06F
:1021D0000E94440899838883DF91CF911F910F91CA
:1021E000FF90EF90DF90CF90BF900895EF92FF9215
:1021F0000F931F93CF93DF9300D0CDB7DEB78C0141
:102200000E949F0F9A83898347EC53E0BC01C80169
:102210000E9444089A83898341EC53E0BC01C801C1
:102220000E9444089A83898343E853E0BC01C801B3
:102230000E9444089A83898348E753E0BC01C8019F
:102240000E9444089A8389838091BF018F93809173
:10225000BE018F9382E291E09F938F9364ECE62E10
:1022600061E0F62EFF92EF920E94F51469817A8167
:10227000A701C8010E9465089A83898326E0F701B7
:1022800011922A95E9F741E753E0BC01C8010E9489
:1022900044089A83898345E653E0BC01C8010E9443
:1022A0004408BC019A8389830F900F900F900F9080
:1022B0000F900F908091AB01882319F044E453E014
:1022C00015C09091AC018091A901911105C08111B7
:1022D0000BC04FE353E00AC0811103C048E353E051
:1022E00005C04FE253E002C042E153E0C8010E9442
:1022F00044089A83898369817A8148E053E0C80160
:102300000E9444089A8389836091BA017091BB014D
:102310008091BC019091BD01AE014F5F5F4F0E9463
:10232000A5108091B7018F938091B6018F93809112
:10233000B5018F938091B4018F9385E291E09F93D3
:102340008F9354ECE52E51E0F52EFF92EF920E9410
:10235000F51469817A81A701C8010E9465089A83F2
:10236000898326E0F70111922A95E9F74FEF52E0B1
:10237000BC01C8010E9444089A83898345EF52E05A
:10238000BC01C8010E9444089A83898340EF52E04F
:10239000BC01C8010E9444089A83898342EE52E03E
:1023A000BC01C8010E944408BC019A8389830FB60E
:1023B000F894DEBF0FBECDBF8091B201882319F023
:1023C00041EC52E015C09091B3018091A8019111A8
:1023D00005C081110BC04CEB52E00AC0811103C053
:1023E00045EB52E005C04DEA52E002C040E952E040
:1023F000C8010E9444089A83898369817A8146E8EA
:1024000052E0C8010E9444089A8389836091CA01FE
:102410007091CB018091CC019091CD01AE014F5FC5
:102420005F4F0E94A5108091F2048F938091F10478
:102430008F938091F0048F938091EF048F9385E2C6
:1024400091E09F938F9344ECE42E41E0F42EFF92B1
:10245000EF920E94F51469817A81A701C8010E9458
:1024600065089A83898326E0F70111922A95E9F796
:102470004DE752E0BC01C8010E9444089A83898359
:1024800045E752E0BC01C8010E9444080FB6F89429
:10249000DEBF0FBECDBF0F900F90DF91CF911F9188
:1024A0000F91FF90EF9008950F93CF93DF930E94C9
:1024B0009F0F40E652E0BC018EEC91E00E94440880
:1024C00040E452E0BC018EEC91E00E94440843E3FA
:1024D00052E0BC018EEC91E00E944408EC010AE05D
:1024E0002EE244E067E071E082E991E00E941C1472
:1024F00042E951E0BE018EEC91E00E94650846E1A0
:1025000052E0BC018EEC91E00E94440844EF51E09F
:10251000BC018EEC91E00E9444084BEE51E0BC01FE
:102520008EEC91E00E94440844ED51E0BC018EEC39
:1025300091E0DF91CF910F910C944408CF93DF93FA
:10254000EC0188818F3221F48981803209F445C001
:1025500045E050E0BE0189E291E00E94AF14892B72
:1025600091F48EEC91E00E94F6109093B901809363
:10257000B8018091BE019091BF0101969093BF0177
:102580008093BE011BC046E050E0BE018FE291E0A7
:102590000E94AF14892B19F40E94AF0F0BC043E0C7
:1025A00050E0BE0186E391E00E94AF14892B41F414
:1025B0000E9454129093B9018093B8018AE010C030
:1025C00044E050E0BE018AE391E00E94AF14892B01
:1025D00031F481E08093840103C080E001C08FEF7B
:1025E000DF91CF910895CF93DF93F90150E0EC0193
:1025F000A881BA2FBF7D01F1AA30F1F0511116C0A8
:10260000B081AB1310C0A181AA2311F031960CC088
:10261000DC01119651E0EC0189818D3309F050E025
:10262000F901CD0101C0F9010196E1CFDC01FB0107
:1026300050E0415051090EC05130C1F380E011C04B
:102640009A3071F0963261F0282F30E02417350768
:102650003CF491938E2F861B9D91292F2F7D81F71E
:102660001082DF91CF91089590ED980F9A3070F01D
:102670009FE9980F963010F4875508959FEB980FB7
:10268000963010F48753089580E00895892F0895B7
:10269000DF92EF92FF920F931F93CF93DF93EC01A2
:1026A0008C0188818823E1F08B32A1F0853299F486
:1026B0007E0182E0E80EF11C89810E943413D82E3D
:1026C0008A810E94341390E1D99E90011124822BBB
:1026D000E70101C080E2F80181938F012196E1CFEB
:1026E000F8011082DF91CF911F910F91FF90EF9031
:1026F000DF900895FB01982F9F70292F30E02A303A
:10270000310514F4905D01C0995A918382958F70C0
:102710008A3010F4805D01C0895A80831282089546
:10272000AF92BF92DF92EF92FF920F931F93CF93DE
:10273000DF931F92CDB7DEB75B018C0185E2D82E07
:10274000F80121918F012223E9F0C50101967C0156
:10275000203249F0822F90E029830E949B14298126
:10276000892B11F405C02BE2F50120835701E8CF36
:10277000F501D082B701822F0E947A13F3E0AF0EE9
:10278000B11CDECFF50110820F90DF91CF911F9128
:102790000F91FF90EF90DF90BF90AF900895CF9290
:1027A000DF92EF92FF920F931F93CF93DF931F92CD
:1027B000CDB7DEB76C018B01FC0110821182128251
:1027C000138240E080E090E0F8015081511106C092
:1027D000F8011082433009F181E024C04430C0F791
:1027E000009741F4252F30E0205331092A3031057C
:1027F00008F4C8015E3271F4F80110827601E40E2B
:10280000F11C49830E947D14F701808349814F5F49
:1028100080E090E00F5F1F4FD7CF0E947D14F6013C
:10282000838380E00F90DF91CF911F910F91FF90F4
:10283000EF90DF90CF9008958F929F92BF92CF92AA
:10284000DF92EF92FF920F931F93CF93DF931F922C
:10285000CDB7DEB77C01C42EB62E4B01D12C10E0D3
:10286000882D8B198C15A8F4F40181914F01A801D2
:10287000B7016D0D711D90E029830E94BD1429815F
:10288000F701ED0DF11D8081D3948111F9CF2083E3
:10289000E7CFDA94F701ED0DF11D10820F90DF9173
:1028A000CF911F910F91FF90EF90DF90CF90BF904D
:1028B0009F908F900895A1E21A2EAA1BBB1BFD01C9
:1028C0000DC0AA1FBB1FEE1FFF1FA217B307E4070F
:1028D000F50720F0A21BB30BE40BF50B661F771F67
:1028E000881F991F1A9469F7609570958095909547
:1028F0009B01AC01BD01CF010895FC0188279927F8
:10290000E89421912032E9F3293010F02E30C8F3F9
:102910002B3241F02D3239F4689404C00E94D31454
:10292000820F911D219120532A30C0F31EF49095FF
:1029300081959F4F0895911106C080538A5010F0E1
:10294000865C06C0089599278827089585FDFBCFEA
:1029500080629111F8CF81568A51E0F70895FB010A
:10296000DC014150504030F08D910190801919F4F4
:102970000020B9F7881B990B08954532510520F4C2
:10298000423010F00C94C814FB011082CB01089562
:10299000BB274A3031F4992322F4BDE2909581950A
:1029A0009F4F0C94DC147AE0979F902D879F802D89
:1029B000910D11240895BB27FB015527AA27880FE5
:1029C000991FAA1FA41710F0A41B83955051B9F7A3
:1029D000A05DAA3308F0A95DA193009779F7B11122
:1029E000B1931192CB010C94FF16AEE0B0E0EBEF87
:1029F000F4E10C94AD170D891E8986E08C831A834F
:102A000009838FEF9FE79E838D83AE01475E5F4F03
:102A10006F89788DCE0101960E941715EF81F88598
:102A2000E00FF11F10822E96E4E00C94C917ACE081
:102A3000B0E0EDE1F5E10C949F177C016B018A0198
:102A4000FC0117821682838181FFBDC1CE010196F0
:102A50004C01F7019381F60193FD859193FF8191DC
:102A60006F01882309F4ABC1853239F493FD859158
:102A700093FF81916F01853229F4B70190E00E94A4
:102A80000F17E7CF512C312C20E02032A0F48B32ED
:102A900069F030F4803259F0833269F420612CC03F
:102AA0008D3239F0803339F4216026C022602460F1
:102AB00023C0286021C027FD27C030ED380F3A30F1
:102AC00078F426FF06C0FAE05F9E300D1124532EE5
:102AD00013C08AE0389E300D1124332E20620CC0C2
:102AE0008E3221F426FD6BC1206406C08C3611F4B1
:102AF000206802C0883641F4F60193FD859193FF6A
:102B000081916F018111C1CF982F9F7D9554933092
:102B100028F40C5F1F4FFFE3F9830DC0833631F0BB
:102B2000833771F0833509F05BC022C0F8018081E2
:102B300089830E5F1F4F44244394512C540115C0C8
:102B40003801F2E06F0E711CF801A080B18026FF01
:102B500003C0652D70E002C06FEF7FEFC5012C87C9
:102B60000E94F4162C0183012C852F77222E17C08A
:102B70003801F2E06F0E711CF801A080B18026FFD1
:102B800003C0652D70E002C06FEF7FEFC5012C8799
:102B90000E94E9162C012C852068222E830123FC3B
:102BA0001BC0832D90E048165906B0F4B70180E2AF
:102BB00090E00E940F173A94F4CFF50127FC85911D
:102BC00027FE81915F01B70190E00E940F1731103D
:102BD0003A94F1E04F1A51084114510471F7E5C0DD
:102BE000843611F0893639F5F80127FF07C0608176
:102BF0007181828193810C5F1F4F08C06081718158
:102C0000882777FD8095982F0E5F1F4F2F76B22E65
:102C100097FF09C090958095709561957F4F8F4F74
:102C20009F4F2068B22E2AE030E0A4010E94411795
:102C3000A82EA81844C0853729F42F7EB22E2AE08A
:102C400030E025C0F22FF97FBF2E8F36C1F018F487
:102C5000883579F0B4C0803719F0883721F0AFC0DB
:102C60002F2F2061B22EB4FE0DC08B2D8460B82EA4
:102C700009C024FF0AC09F2F9660B92E06C028E025
:102C800030E005C020E130E002C020E132E0F80190
:102C9000B7FE07C060817181828193810C5F1F4FF5
:102CA00006C06081718180E090E00E5F1F4FA4013B
:102CB0000E944117A82EA818FB2DFF77BF2EB6FE45
:102CC0000BC02B2D2E7FA51450F4B4FE0AC0B2FC0D
:102CD00008C02B2D2E7E05C07A2C2B2D03C07A2CFC
:102CE00001C0752C24FF0DC0FE01EA0DF11D80818D
:102CF000803311F4297E09C022FF06C073947394B7
:102D000004C0822F867809F0739423FD13C020FF3E
:102D100006C05A2C731418F4530C5718732C7314E0
:102D200068F4B70180E290E02C870E940F1773943B
:102D30002C85F5CF731410F4371801C0312C24FF03
:102D400012C0B70180E390E02C870E940F172C85FA
:102D500022FF17C021FF03C088E590E002C088E78A
:102D600090E0B7010CC0822F867859F021FD02C097
:102D700080E201C08BE227FD8DE2B70190E00E9466
:102D80000F17A51438F4B70180E390E00E940F17E5
:102D90005A94F7CFAA94F401EA0DF11D8081B7018E
:102DA00090E00E940F17A110F5CF332009F451CE07
:102DB000B70180E290E00E940F173A94F6CFF70136
:102DC0008681978102C08FEF9FEF2C96E2E10C94F1
:102DD000BB17FC010590615070400110D8F7809539
:102DE00090958E0F9F1F0895FC01615070400190D7
:102DF0000110D8F7809590958E0F9F1F0895DC01E4
:102E0000FC01672F71917723E1F7329704C07C9121
:102E10006D9370836291AE17BF07C8F308950F9347
:102E20001F93CF93DF93182F092FEB018B8181FD27
:102E300003C08FEF9FEF20C082FF10C04E815F81E3
:102E40002C813D81421753077CF4E881F9819F0171
:102E50002F5F3F4F39832883108306C0E885F985AB
:102E6000812F0995892B29F72E813F812F5F3F4FB5
:102E70003F832E83812F902FDF91CF911F910F9150
:102E80000895FA01AA27283051F1203181F1E89400
:102E90006F936E7F6E5F7F4F8F4F9F4FAF4FB1E04D
:102EA0003ED0B4E03CD0670F781F891F9A1FA11D48
:102EB000680F791F8A1F911DA11D6A0F711D811D49
:102EC000911DA11D20D009F468943F912AE0269F0E
:102ED00011243019305D3193DEF6CF010895462F6D
:102EE0004770405D4193B3E00FD0C9F7F6CF462F4E
:102EF0004F70405D4A3318F0495D31FD40524193B7
:102F000002D0A9F7EACFB4E0A69597958795779573
:102F10006795BA95C9F700976105710508959B01FA
:102F2000AC010A2E06945795479537952795BA9583
:102F3000C9F7620F731F841F951FA01D08952F925C
:102F40003F924F925F926F927F928F929F92AF9239
:102F5000BF92CF92DF92EF92FF920F931F93CF9386
:102F6000DF93CDB7DEB7CA1BDB0B0FB6F894DEBF1D
:102F70000FBECDBF09942A88398848885F846E8443
:102F80007D848C849B84AA84B984C884DF80EE808D
:102F9000FD800C811B81AA81B981CE0FD11D0FB696
:102FA000F894DEBF0FBECDBFED010895F894FFCFBA
:102FB0000A010001500A0086820411C0A80101C064
:102FC000A8016E545558100029323030004745543E
:102FD0002000256400256C64002F666C7220002F91
:102FE00074312E6A73002F6D20002F723F20000075
:00000001FF
